{
  "contractName": "AssetOwnership",
  "abi": [
    {
      "constant": true,
      "inputs": [],
      "name": "getUsers",
      "outputs": [
        {
          "name": "",
          "type": "address[]"
        }
      ],
      "payable": false,
      "stateMutability": "view",
      "type": "function"
    },
    {
      "constant": false,
      "inputs": [
        {
          "name": "_spender",
          "type": "address"
        },
        {
          "name": "_value",
          "type": "uint256"
        }
      ],
      "name": "approve",
      "outputs": [
        {
          "name": "",
          "type": "bool"
        }
      ],
      "payable": false,
      "stateMutability": "nonpayable",
      "type": "function"
    },
    {
      "constant": false,
      "inputs": [
        {
          "name": "_address",
          "type": "address"
        }
      ],
      "name": "removeMember",
      "outputs": [],
      "payable": false,
      "stateMutability": "nonpayable",
      "type": "function"
    },
    {
      "constant": false,
      "inputs": [
        {
          "name": "_address",
          "type": "address"
        },
        {
          "name": "_name",
          "type": "string"
        }
      ],
      "name": "addSupplier",
      "outputs": [],
      "payable": false,
      "stateMutability": "nonpayable",
      "type": "function"
    },
    {
      "constant": false,
      "inputs": [
        {
          "name": "_address",
          "type": "address"
        },
        {
          "name": "_name",
          "type": "string"
        }
      ],
      "name": "addConsumer",
      "outputs": [],
      "payable": false,
      "stateMutability": "nonpayable",
      "type": "function"
    },
    {
      "constant": false,
      "inputs": [
        {
          "name": "_from",
          "type": "address"
        },
        {
          "name": "_to",
          "type": "address"
        },
        {
          "name": "_value",
          "type": "uint256"
        }
      ],
      "name": "transferFrom",
      "outputs": [
        {
          "name": "",
          "type": "bool"
        }
      ],
      "payable": false,
      "stateMutability": "nonpayable",
      "type": "function"
    },
    {
      "constant": false,
      "inputs": [
        {
          "name": "_address",
          "type": "address"
        },
        {
          "name": "_name",
          "type": "string"
        }
      ],
      "name": "addProducer",
      "outputs": [],
      "payable": false,
      "stateMutability": "nonpayable",
      "type": "function"
    },
    {
      "constant": true,
      "inputs": [
        {
          "name": "",
          "type": "uint256"
        }
      ],
      "name": "users",
      "outputs": [
        {
          "name": "",
          "type": "address"
        }
      ],
      "payable": false,
      "stateMutability": "view",
      "type": "function"
    },
    {
      "constant": false,
      "inputs": [],
      "name": "kill",
      "outputs": [],
      "payable": false,
      "stateMutability": "nonpayable",
      "type": "function"
    },
    {
      "constant": true,
      "inputs": [
        {
          "name": "_address",
          "type": "address"
        }
      ],
      "name": "memberAllowed",
      "outputs": [
        {
          "name": "",
          "type": "bool"
        }
      ],
      "payable": false,
      "stateMutability": "view",
      "type": "function"
    },
    {
      "constant": true,
      "inputs": [
        {
          "name": "_address",
          "type": "address"
        }
      ],
      "name": "ownerAllowed",
      "outputs": [
        {
          "name": "",
          "type": "bool"
        }
      ],
      "payable": false,
      "stateMutability": "view",
      "type": "function"
    },
    {
      "constant": true,
      "inputs": [
        {
          "name": "_address",
          "type": "address"
        }
      ],
      "name": "getUserByAddress",
      "outputs": [
        {
          "name": "",
          "type": "string"
        },
        {
          "name": "",
          "type": "string"
        },
        {
          "name": "",
          "type": "uint256"
        }
      ],
      "payable": false,
      "stateMutability": "view",
      "type": "function"
    },
    {
      "constant": true,
      "inputs": [
        {
          "name": "_owner",
          "type": "address"
        }
      ],
      "name": "balanceOf",
      "outputs": [
        {
          "name": "",
          "type": "uint256"
        }
      ],
      "payable": false,
      "stateMutability": "view",
      "type": "function"
    },
    {
      "constant": true,
      "inputs": [],
      "name": "owner",
      "outputs": [
        {
          "name": "",
          "type": "address"
        }
      ],
      "payable": false,
      "stateMutability": "view",
      "type": "function"
    },
    {
      "constant": false,
      "inputs": [
        {
          "name": "_amount",
          "type": "uint256"
        }
      ],
      "name": "mint",
      "outputs": [],
      "payable": false,
      "stateMutability": "nonpayable",
      "type": "function"
    },
    {
      "constant": false,
      "inputs": [
        {
          "name": "_from",
          "type": "address"
        },
        {
          "name": "_to",
          "type": "address"
        },
        {
          "name": "_value",
          "type": "uint256"
        }
      ],
      "name": "transferTokens",
      "outputs": [],
      "payable": false,
      "stateMutability": "nonpayable",
      "type": "function"
    },
    {
      "constant": false,
      "inputs": [
        {
          "name": "_to",
          "type": "address"
        },
        {
          "name": "_value",
          "type": "uint256"
        }
      ],
      "name": "transfer",
      "outputs": [
        {
          "name": "",
          "type": "bool"
        }
      ],
      "payable": false,
      "stateMutability": "nonpayable",
      "type": "function"
    },
    {
      "constant": false,
      "inputs": [
        {
          "name": "_address",
          "type": "address"
        },
        {
          "name": "_value",
          "type": "uint256"
        }
      ],
      "name": "requestTokens",
      "outputs": [],
      "payable": false,
      "stateMutability": "nonpayable",
      "type": "function"
    },
    {
      "constant": false,
      "inputs": [
        {
          "name": "_address",
          "type": "address"
        }
      ],
      "name": "addMember",
      "outputs": [],
      "payable": false,
      "stateMutability": "nonpayable",
      "type": "function"
    },
    {
      "constant": true,
      "inputs": [],
      "name": "tokenDetails",
      "outputs": [
        {
          "name": "",
          "type": "string"
        },
        {
          "name": "",
          "type": "string"
        },
        {
          "name": "",
          "type": "uint8"
        },
        {
          "name": "",
          "type": "uint256"
        }
      ],
      "payable": false,
      "stateMutability": "view",
      "type": "function"
    },
    {
      "constant": true,
      "inputs": [
        {
          "name": "_owner",
          "type": "address"
        },
        {
          "name": "_spender",
          "type": "address"
        }
      ],
      "name": "allowance",
      "outputs": [
        {
          "name": "",
          "type": "uint256"
        }
      ],
      "payable": false,
      "stateMutability": "view",
      "type": "function"
    },
    {
      "constant": false,
      "inputs": [
        {
          "name": "newOwner",
          "type": "address"
        }
      ],
      "name": "transferOwnership",
      "outputs": [],
      "payable": false,
      "stateMutability": "nonpayable",
      "type": "function"
    },
    {
      "inputs": [
        {
          "name": "_name",
          "type": "string"
        }
      ],
      "payable": false,
      "stateMutability": "nonpayable",
      "type": "constructor"
    },
    {
      "anonymous": false,
      "inputs": [
        {
          "indexed": true,
          "name": "_address",
          "type": "address"
        },
        {
          "indexed": false,
          "name": "_id",
          "type": "bytes32"
        },
        {
          "indexed": false,
          "name": "_name",
          "type": "string"
        },
        {
          "indexed": false,
          "name": "_value",
          "type": "uint256"
        },
        {
          "indexed": false,
          "name": "_quantity",
          "type": "uint256"
        },
        {
          "indexed": false,
          "name": "_createdAt",
          "type": "uint256"
        }
      ],
      "name": "LogNewAssetEvent",
      "type": "event"
    },
    {
      "anonymous": false,
      "inputs": [
        {
          "indexed": true,
          "name": "_userAddress",
          "type": "address"
        },
        {
          "indexed": false,
          "name": "_id",
          "type": "bytes32"
        },
        {
          "indexed": false,
          "name": "_name",
          "type": "string"
        },
        {
          "indexed": false,
          "name": "_value",
          "type": "uint256"
        },
        {
          "indexed": false,
          "name": "_quantity",
          "type": "uint256"
        },
        {
          "indexed": false,
          "name": "_updatedAt",
          "type": "uint256"
        }
      ],
      "name": "LogUpdateAssetEvent",
      "type": "event"
    },
    {
      "anonymous": false,
      "inputs": [
        {
          "indexed": true,
          "name": "_to",
          "type": "address"
        },
        {
          "indexed": true,
          "name": "_from",
          "type": "address"
        },
        {
          "indexed": false,
          "name": "_id",
          "type": "bytes32"
        },
        {
          "indexed": false,
          "name": "_name",
          "type": "string"
        },
        {
          "indexed": false,
          "name": "_value",
          "type": "uint256"
        },
        {
          "indexed": false,
          "name": "_quantity",
          "type": "uint256"
        },
        {
          "indexed": false,
          "name": "_timestamp",
          "type": "uint256"
        }
      ],
      "name": "LogTransferAssetEvent",
      "type": "event"
    },
    {
      "anonymous": false,
      "inputs": [
        {
          "indexed": false,
          "name": "_supplier",
          "type": "address"
        },
        {
          "indexed": false,
          "name": "_transactionId",
          "type": "bytes32"
        },
        {
          "indexed": false,
          "name": "_status",
          "type": "string"
        },
        {
          "indexed": false,
          "name": "_timestamp",
          "type": "uint256"
        }
      ],
      "name": "LogSupplierSensorAlert",
      "type": "event"
    },
    {
      "anonymous": false,
      "inputs": [
        {
          "indexed": false,
          "name": "_transactionId",
          "type": "bytes32"
        },
        {
          "indexed": false,
          "name": "_status",
          "type": "string"
        },
        {
          "indexed": false,
          "name": "_timestamp",
          "type": "uint256"
        }
      ],
      "name": "LogTransactionUpdateEvent",
      "type": "event"
    },
    {
      "anonymous": false,
      "inputs": [
        {
          "indexed": true,
          "name": "_userAddress",
          "type": "address"
        },
        {
          "indexed": false,
          "name": "_username",
          "type": "string"
        },
        {
          "indexed": false,
          "name": "_type",
          "type": "string"
        },
        {
          "indexed": false,
          "name": "_balance",
          "type": "uint256"
        },
        {
          "indexed": false,
          "name": "_createdAt",
          "type": "uint256"
        }
      ],
      "name": "LogNewUserEvent",
      "type": "event"
    },
    {
      "anonymous": false,
      "inputs": [
        {
          "indexed": false,
          "name": "_address",
          "type": "address"
        },
        {
          "indexed": false,
          "name": "_value",
          "type": "uint256"
        }
      ],
      "name": "LogLockedFundsEvent",
      "type": "event"
    },
    {
      "anonymous": false,
      "inputs": [
        {
          "indexed": false,
          "name": "_address",
          "type": "address"
        },
        {
          "indexed": false,
          "name": "_value",
          "type": "uint256"
        }
      ],
      "name": "LogReleasedFundsEvent",
      "type": "event"
    },
    {
      "anonymous": false,
      "inputs": [
        {
          "indexed": true,
          "name": "from",
          "type": "address"
        },
        {
          "indexed": true,
          "name": "to",
          "type": "address"
        },
        {
          "indexed": false,
          "name": "value",
          "type": "uint256"
        }
      ],
      "name": "Transfer",
      "type": "event"
    },
    {
      "anonymous": false,
      "inputs": [
        {
          "indexed": true,
          "name": "owner",
          "type": "address"
        },
        {
          "indexed": true,
          "name": "spender",
          "type": "address"
        },
        {
          "indexed": false,
          "name": "value",
          "type": "uint256"
        }
      ],
      "name": "Approval",
      "type": "event"
    },
    {
      "anonymous": false,
      "inputs": [
        {
          "indexed": true,
          "name": "previousOwner",
          "type": "address"
        },
        {
          "indexed": true,
          "name": "newOwner",
          "type": "address"
        }
      ],
      "name": "OwnershipTransferred",
      "type": "event"
    },
    {
      "anonymous": false,
      "inputs": [
        {
          "indexed": true,
          "name": "account",
          "type": "address"
        }
      ],
      "name": "MemberAdded",
      "type": "event"
    },
    {
      "anonymous": false,
      "inputs": [
        {
          "indexed": true,
          "name": "account",
          "type": "address"
        }
      ],
      "name": "MemberRemoved",
      "type": "event"
    },
    {
      "constant": false,
      "inputs": [
        {
          "name": "_address",
          "type": "address"
        },
        {
          "name": "_name",
          "type": "string"
        },
        {
          "name": "_value",
          "type": "uint256"
        },
        {
          "name": "_quantity",
          "type": "uint256"
        }
      ],
      "name": "createAsset",
      "outputs": [],
      "payable": false,
      "stateMutability": "nonpayable",
      "type": "function"
    },
    {
      "constant": false,
      "inputs": [
        {
          "name": "_address",
          "type": "address"
        },
        {
          "name": "_id",
          "type": "bytes32"
        },
        {
          "name": "_value",
          "type": "uint256"
        },
        {
          "name": "_quantity",
          "type": "uint256"
        }
      ],
      "name": "editAsset",
      "outputs": [],
      "payable": false,
      "stateMutability": "nonpayable",
      "type": "function"
    },
    {
      "constant": true,
      "inputs": [
        {
          "name": "_assetId",
          "type": "bytes32"
        }
      ],
      "name": "getAssetOwners",
      "outputs": [
        {
          "name": "",
          "type": "address[]"
        }
      ],
      "payable": false,
      "stateMutability": "view",
      "type": "function"
    },
    {
      "constant": true,
      "inputs": [
        {
          "name": "_address",
          "type": "address"
        }
      ],
      "name": "getAssetIdsByAddress",
      "outputs": [
        {
          "name": "",
          "type": "bytes32[]"
        }
      ],
      "payable": false,
      "stateMutability": "view",
      "type": "function"
    },
    {
      "constant": true,
      "inputs": [
        {
          "name": "_id",
          "type": "bytes32"
        }
      ],
      "name": "getAssetById",
      "outputs": [
        {
          "name": "",
          "type": "address"
        },
        {
          "name": "",
          "type": "bytes32"
        },
        {
          "name": "",
          "type": "string"
        },
        {
          "name": "",
          "type": "uint256"
        },
        {
          "name": "",
          "type": "uint256"
        },
        {
          "name": "",
          "type": "bytes32"
        },
        {
          "name": "",
          "type": "string"
        },
        {
          "name": "",
          "type": "string"
        },
        {
          "name": "",
          "type": "uint256"
        },
        {
          "name": "",
          "type": "uint256"
        }
      ],
      "payable": false,
      "stateMutability": "view",
      "type": "function"
    }
  ],
  "bytecode": "0x60806040523480156200001157600080fd5b50604051620038673803806200386783398101604052805101806200003562000aeb565b60008054600160a060020a031916339081179091556200006690600190640100000000620022fb6200020882021704565b6040805180820190915260098082527f46435420546f6b656e00000000000000000000000000000000000000000000006020909201918252620000ac9160069162000b34565b506040805180820190915260038082527f46435400000000000000000000000000000000000000000000000000000000006020909201918252620000f39160079162000b34565b506008805460ff1916600a1790556402540be4006005819055336000818152600260209081526040808320859055805194855251929391927fddf252ad1be2c89b69c2b068fc378daa952ba7f163c4a11628f55a4df523b3ef9281900390910190a36200016f6009640100000000620026d46200022d82021704565b62000189600964010000000062002adb6200064c82021704565b6040805160e08101825233815260208101849052908101620001b864010000000062002c0d6200078582021704565b8152602001620001d1336401000000006200078b810204565b81526001602082015242604082018190526060909101529050620001ff3382640100000000620007a6810204565b50505062000bd6565b600160a060020a0316600090815260209190915260409020805460ff19166001179055565b604080518082018252600981527f415641494c41424c4500000000000000000000000000000000000000000000006020808301918252600260009081526001860190915292909220905162000283929062000b34565b50604080518082018252600a81527f4f4e5f5448455f5741590000000000000000000000000000000000000000000060208083019182526004600090815260018601909152929092209051620002da929062000b34565b50604080518082018252600981527f434f4d504c4554454400000000000000000000000000000000000000000000006020808301918252600860009081526001860190915292909220905162000331929062000b34565b50604080518082018252600981527f44454c49564552454400000000000000000000000000000000000000000000006020808301918252600660009081526001860190915292909220905162000388929062000b34565b50604080518082018252600781527f50454e44494e47000000000000000000000000000000000000000000000000006020808301918252600a600090815260018601909152929092209051620003df929062000b34565b50604080518082018252600781527f53554343455353000000000000000000000000000000000000000000000000006020808301918252600b60009081526001860190915292909220905162000436929062000b34565b50604080518082018252600481527f444541440000000000000000000000000000000000000000000000000000000060208083019182526000808052600186019091529290922090516200048b929062000b34565b50604080518082018252600581527f414c495645000000000000000000000000000000000000000000000000000000602080830191825260016000818152908601909152929092209051620004e1929062000b34565b50604080518082018252600b81527f544f5f42455f41444445440000000000000000000000000000000000000000006020808301918252600360009081526001860190915292909220905162000538929062000b34565b50604080518082018252600b81527f494e5f50524f4752455353000000000000000000000000000000000000000000602080830191825260076000908152600186019091529290922090516200058f929062000b34565b50604080518082018252600981527f5049434b45445f5550000000000000000000000000000000000000000000000060208083019182526005600090815260018601909152929092209051620005e6929062000b34565b506040805180820190915260098082527f43414e43454c4c45440000000000000000000000000000000000000000000000602083015260018301906000905b815260200190815260200160002090805190602001906200064892919062000b34565b5050565b604080518082018252600581527f41444d494e00000000000000000000000000000000000000000000000000000060208083019182526000808052908590529290922090516200069d929062000b34565b50604080518082018252600881527f50524f445543455200000000000000000000000000000000000000000000000060208083019182526001600090815290859052929092209051620006f1929062000b34565b50604080518082018252600881527f434f4e53554d45520000000000000000000000000000000000000000000000006020808301918252600260009081529085905292909220905162000745929062000b34565b5060408051808201909152600881527f535550504c4945520000000000000000000000000000000000000000000000006020820152816000600362000625565b60005b90565b600160a060020a031660009081526002602052604090205490565b600160a060020a0382166000908152600c602052604090206004015460ff16156200083257604080517f08c379a000000000000000000000000000000000000000000000000000000000815260206004820152601260248201527f5573657220616c72656164792065786973740000000000000000000000000000604482015290519081900360640190fd5b600b805460018181019092557f0175b7a638427703f0dbe7bb9bbf987a2551717b34e79f33b5b1008d1fa01db9018054600160a060020a03808616600160a060020a031992831681179093556000928352600c602090815260409093208551815492169190921617815583820151805185949293620008b693850192019062000b34565b50604082810151600283015560608301516003830155608083015160048301805460ff191691151591909117905560a0830151600583015560c090920151600690910155602082015190820151600160a060020a038416917fc847e6f60ca9d046e82cc9869608ea59d7b79d63d9ad3f3fdc9fa994a3815963916200094c9060099064010000000062000a47810262001e261704565b846060015142604051808060200180602001858152602001848152602001838103835287818151815260200191508051906020019080838360005b83811015620009a157818101518382015260200162000987565b50505050905090810190601f168015620009cf5780820380516001836020036101000a031916815260200191505b50838103825286518152865160209182019188019080838360005b8381101562000a04578181015183820152602001620009ea565b50505050905090810190601f16801562000a325780820380516001836020036101000a031916815260200191505b50965050505050505060405180910390a25050565b6000818152602083815260409182902080548351601f600260001961010060018616150201909316929092049182018490048402810184019094528084526060939283018282801562000ade5780601f1062000ab25761010080835404028352916020019162000ade565b820191906000526020600020905b81548152906001019060200180831162000ac057829003601f168201915b5050505050905092915050565b60e0604051908101604052806000600160a060020a0316815260200160608152602001600081526020016000815260200160001515815260200160008152602001600081525090565b828054600181600116156101000203166002900490600052602060002090601f016020900481019282601f1062000b7757805160ff191683800117855562000ba7565b8280016001018555821562000ba7579182015b8281111562000ba757825182559160200191906001019062000b8a565b5062000bb592915062000bb9565b5090565b6200078891905b8082111562000bb5576000815560010162000bc0565b612c818062000be66000396000f30060806040526004361061015d5763ffffffff7c0100000000000000000000000000000000000000000000000000000000600035041662ce8e3e8114610162578063095ea7b3146101c75780630b1ca49a146101ff5780631c933a3e14610222578063227cca091461024f57806323b872dd1461027c578063274f97c6146102a6578063365b98b2146102d3578063418325671461030757806341c0e1b5146104aa578063471dc28d146104bf5780635d99f0cb146104e057806369c212f61461050157806370a082311461060757806371c3e7561461063a57806381aa7bc1146106525780638da5cb5b14610685578063a0712d681461069a578063a64b6e5f146106b2578063a9059cbb146106dc578063af42156414610700578063b5dfd73514610724578063c58a5b0e14610745578063ca6d56dc1461076f578063d6abe11014610790578063dd62ed3e14610897578063f2fde38b146108be575b600080fd5b34801561016e57600080fd5b506101776108df565b60408051602080825283518183015283519192839290830191858101910280838360005b838110156101b357818101518382015260200161019b565b505050509050019250505060405180910390f35b3480156101d357600080fd5b506101eb600160a060020a0360043516602435610942565b604080519115158252519081900360200190f35b34801561020b57600080fd5b50610220600160a060020a03600435166109a8565b005b34801561022e57600080fd5b5061022060048035600160a060020a03169060248035908101910135610a07565b34801561025b57600080fd5b5061022060048035600160a060020a03169060248035908101910135610a4f565b34801561028857600080fd5b506101eb600160a060020a0360043581169060243516604435610a8d565b3480156102b257600080fd5b5061022060048035600160a060020a03169060248035908101910135610bf2565b3480156102df57600080fd5b506102eb600435610c30565b60408051600160a060020a039092168252519081900360200190f35b34801561031357600080fd5b5061031f600435610c58565b60408051600160a060020a038c16815260208082018c9052606082018a90526080820189905260a08201889052610100820185905261012082018490526101409282018381528b51938301939093528a5191929160c084019160e08501916101608601918e019080838360005b838110156103a457818101518382015260200161038c565b50505050905090810190601f1680156103d15780820380516001836020036101000a031916815260200191505b5084810383528851815288516020918201918a019080838360005b838110156104045781810151838201526020016103ec565b50505050905090810190601f1680156104315780820380516001836020036101000a031916815260200191505b50848103825287518152875160209182019189019080838360005b8381101561046457818101518382015260200161044c565b50505050905090810190601f1680156104915780820380516001836020036101000a031916815260200191505b509d505050505050505050505050505060405180910390f35b3480156104b657600080fd5b50610220610f22565b3480156104cb57600080fd5b506101eb600160a060020a0360043516610f47565b3480156104ec57600080fd5b506101eb600160a060020a0360043516610f60565b34801561050d57600080fd5b50610522600160a060020a0360043516610f9d565b604051808060200180602001848152602001838103835286818151815260200191508051906020019080838360005b83811015610569578181015183820152602001610551565b50505050905090810190601f1680156105965780820380516001836020036101000a031916815260200191505b50838103825285518152855160209182019187019080838360005b838110156105c95781810151838201526020016105b1565b50505050905090810190601f1680156105f65780820380516001836020036101000a031916815260200191505b509550505050505060405180910390f35b34801561061357600080fd5b50610628600160a060020a0360043516611134565b60408051918252519081900360200190f35b34801561064657600080fd5b5061017760043561114f565b34801561065e57600080fd5b5061022060048035600160a060020a0316906024803590810191013560443560643561122a565b34801561069157600080fd5b506102eb611575565b3480156106a657600080fd5b50610220600435611584565b3480156106be57600080fd5b50610220600160a060020a0360043581169060243516604435611619565b3480156106e857600080fd5b506101eb600160a060020a0360043516602435611700565b34801561070c57600080fd5b50610220600160a060020a03600435166024356117cf565b34801561073057600080fd5b50610177600160a060020a036004351661182d565b34801561075157600080fd5b50610220600160a060020a03600435166024356044356064356118e8565b34801561077b57600080fd5b50610220600160a060020a0360043516611a08565b34801561079c57600080fd5b506107a5611a67565b6040518080602001806020018560ff1660ff168152602001848152602001838103835287818151815260200191508051906020019080838360005b838110156107f85781810151838201526020016107e0565b50505050905090810190601f1680156108255780820380516001836020036101000a031916815260200191505b50838103825286518152865160209182019188019080838360005b83811015610858578181015183820152602001610840565b50505050905090810190601f1680156108855780820380516001836020036101000a031916815260200191505b50965050505050505060405180910390f35b3480156108a357600080fd5b50610628600160a060020a0360043581169060243516611bad565b3480156108ca57600080fd5b50610220600160a060020a0360043516611bd8565b6060600b80548060200260200160405190810160405280929190818152602001828054801561093757602002820191906000526020600020905b8154600160a060020a03168152600190910190602001808311610919575b505050505090505b90565b336000818152600360209081526040808320600160a060020a038716808552908352818420869055815186815291519394909390927f8c5be1e5ebec7d5bd14f71427d1e84f3dd0314c0f7b2291e5b200ac8c7c3b925928290030190a350600192915050565b600054600160a060020a031633146109bf57600080fd5b6109d060018263ffffffff611c5f16565b604051600160a060020a038216907f6e76fb4c77256006d9c38ec7d82b45a8c8f3c27b1d6766fffc42dfb8de68449290600090a250565b610a4a8383838080601f01602080910402602001604051908101604052809392919081815260200183838082843750610a459450611c819350505050565b611c8b565b505050565b610a4a8383838080601f01602080910402602001604051908101604052809392919081815260200183838082843750610a459450611cfc9350505050565b600160a060020a038316600090815260026020526040812054821115610ab257600080fd5b600160a060020a0384166000908152600360209081526040808320338452909152902054821115610ae257600080fd5b600160a060020a0383161515610af757600080fd5b600160a060020a038416600090815260026020526040902054610b20908363ffffffff611d0516565b600160a060020a038086166000908152600260205260408082209390935590851681522054610b55908363ffffffff611d1716565b600160a060020a038085166000908152600260209081526040808320949094559187168152600382528281203382529091522054610b99908363ffffffff611d0516565b600160a060020a0380861660008181526003602090815260408083203384528252918290209490945580518681529051928716939192600080516020612c36833981519152929181900390910190a35060019392505050565b610a4a8383838080601f01602080910402602001604051908101604052809392919081815260200183838082843750610a459450611d2d9350505050565b600b805482908110610c3e57fe5b600091825260209091200154600160a060020a0316905081565b60008060606000806000606080600080610c7061259e565b8b610c7c816000611d36565b158015610c8857508015155b1515610cde576040805160e560020a62461bcd02815260206004820152601660248201527f49642073686f756c64206e6f7420626520656d70747900000000000000000000604482015290519081900360640190fd5b60008d8152600e60209081526040918290208251610100818101855282548252600180840154600160a060020a031683860152600280850180548851601f9482161590950260001901169190910491820186900486028301860187528183529295939493860193919291830182828015610d995780601f10610d6e57610100808354040283529160200191610d99565b820191906000526020600020905b815481529060010190602001808311610d7c57829003601f168201915b505050505081526020016003820154815260200160048201548152602001600582015460001916600019168152602001600682015481526020016007820154815250509150816020015182600001518360400151846060015185608001518660a00151600c60008960200151600160a060020a0316600160a060020a03168152602001908152602001600020600101610e68600c60008b60200151600160a060020a0316600160a060020a03168152602001908152602001600020600201546009611e2690919063ffffffff16565b60c08a015160e08b01518354604080516020601f60026000196101006001881615020190951694909404938401819004810282018101909252828152918691830182828015610ef85780601f10610ecd57610100808354040283529160200191610ef8565b820191906000526020600020905b815481529060010190602001808311610edb57829003601f168201915b505050505093509b509b509b509b509b509b509b509b509b509b5050509193959799509193959799565b600054600160a060020a03163314610f3957600080fd5b600054600160a060020a0316ff5b6000610f5a60018363ffffffff611ec616565b92915050565b600081610f6c81610f47565b8015610f7c5750610f7c33610f47565b1515610f8757600080fd5b5050600054600160a060020a0390811691161490565b6060806000610faa6125f3565b84610fb481610f47565b1515610ff8576040805160e560020a62461bcd0281526020600482015260136024820152600080516020612c16833981519152604482015290519081900360640190fd5b600160a060020a038681166000908152600c6020908152604091829020825160e08101845281549094168452600180820180548551600261010094831615949094026000190190911692909204601f81018590048502830185019095528482529193858401939192918301828280156110b25780601f10611087576101008083540402835291602001916110b2565b820191906000526020600020905b81548152906001019060200180831161109557829003601f168201915b50505091835250506002820154602082015260038201546040820152600482015460ff16151560608201526005820154608082015260069091015460a09091015291506110fe86611134565b60608301526020820151604083015161111f9060099063ffffffff611e2616565b60608401519196509450925050509193909250565b600160a060020a031660009081526002602052604090205490565b60608161115d816000611d36565b15801561116957508015155b15156111bf576040805160e560020a62461bcd02815260206004820152601660248201527f49642073686f756c64206e6f7420626520656d70747900000000000000000000604482015290519081900360640190fd5b6000838152600f60209081526040918290208054835181840281018401909452808452909183018282801561121d57602002820191906000526020600020905b8154600160a060020a031681526001909101906020018083116111ff575b5050505050915050919050565b600061123461259e565b8661123d611d2d565b600160a060020a0382166000908152600c6020526040902060020154146112d4576040805160e560020a62461bcd02815260206004820152602860248201527f5570646174696e67204173736574206e6f7420616c6c6f77656420666f72207960448201527f6f757220726f6c65000000000000000000000000000000000000000000000000606482015290519081900360840190fd5b876112de81610f47565b1515611322576040805160e560020a62461bcd0281526020600482015260136024820152600080516020612c16833981519152604482015290519081900360640190fd5b6114028989898080601f01602080910402602001604051908101604052809392919081815260200183838082843750505050600160a060020a038e166000908152600c6020908152604091829020600190810180548451600293821615610100026000190190911692909204601f810184900484028301840190945283825290945092508301828280156113f75780601f106113cc576101008083540402835291602001916113f7565b820191906000526020600020905b8154815290600101906020018083116113da57829003601f168201915b505050505042611ee5565b935061010060405190810160405280856000191681526020018a600160a060020a0316815260200189898080601f016020809104026020016040519081016040528093929190818152602001838380828437505050928452505050602081018890526040810187905260006060820152426080820181905260a090910152925061148b83612049565b8260200151600160a060020a03167fffc11ca9ffba641907900e673392b8ef1c382e91faedca550e6919b21d4767ba84600001518560400151866060015187608001514260405180866000191660001916815260200180602001858152602001848152602001838152602001828103825286818151815260200191508051906020019080838360005b8381101561152c578181015183820152602001611514565b50505050905090810190601f1680156115595780820380516001836020036101000a031916815260200191505b50965050505050505060405180910390a2505050505050505050565b600054600160a060020a031681565b600054600160a060020a0316331461159b57600080fd5b3315156115a757600080fd5b6005546115ba908263ffffffff611d1716565b600555336000908152600260205260409020546115dd908263ffffffff611d1716565b336000818152600260209081526040808320949094558351858152935192939192600080516020612c368339815191529281900390910190a350565b8261162381610f47565b8015611633575061163333610f47565b151561163e57600080fd5b83828061164a83611134565b101561165557600080fd5b600160a060020a03861660009081526002602052604090205461167e908563ffffffff611d0516565b600160a060020a0380881660009081526002602052604080822093909355908716815220546116b3908563ffffffff611d1716565b600160a060020a0380871660008181526002602090815260409182902094909455805188815290519193928a1692600080516020612c3683398151915292918290030190a3505050505050565b3360009081526002602052604081205482111561171c57600080fd5b600160a060020a038316151561173157600080fd5b33600090815260026020526040902054611751908363ffffffff611d0516565b3360009081526002602052604080822092909255600160a060020a03851681522054611783908363ffffffff611d1716565b600160a060020a038416600081815260026020908152604091829020939093558051858152905191923392600080516020612c368339815191529281900390910190a350600192915050565b816117d981610f47565b151561181d576040805160e560020a62461bcd0281526020600482015260136024820152600080516020612c16833981519152604482015290519081900360640190fd5b6118278383611700565b50505050565b60608161183981610f47565b151561187d576040805160e560020a62461bcd0281526020600482015260136024820152600080516020612c16833981519152604482015290519081900360640190fd5b600160a060020a0383166000908152601060209081526040918290208054835181840281018401909452808452909183018282801561121d57602002820191906000526020600020905b815481526001909101906020018083116118c7575050505050915050919050565b6000846118f3611d2d565b600160a060020a0382166000908152600c60205260409020600201541461198a576040805160e560020a62461bcd02815260206004820152602860248201527f5570646174696e67204173736574206e6f7420616c6c6f77656420666f72207960448201527f6f757220726f6c65000000000000000000000000000000000000000000000000606482015290519081900360840190fd5b8561199481610f47565b15156119d8576040805160e560020a62461bcd0281526020600482015260136024820152600080516020612c16833981519152604482015290519081900360640190fd5b6000868152600e6020526040902060058101549093506119ff908890889088908890612174565b50505050505050565b600054600160a060020a03163314611a1f57600080fd5b611a3060018263ffffffff6122fb16565b604051600160a060020a038216907fb251eb052afc73ffd02ffe85ad79990a8b3fed60d76dbc2fa2fdd7123dffd91490600090a250565b60085460055460068054604080516020601f6002600019600187161561010002019095169490940493840181900481028201810190925282815260609586956000958695909460079460ff90941693918691830182828015611b0a5780601f10611adf57610100808354040283529160200191611b0a565b820191906000526020600020905b815481529060010190602001808311611aed57829003601f168201915b5050865460408051602060026001851615610100026000190190941693909304601f810184900484028201840190925281815295995088945092508401905082828015611b985780601f10611b6d57610100808354040283529160200191611b98565b820191906000526020600020905b815481529060010190602001808311611b7b57829003601f168201915b50505050509250935093509350935090919293565b600160a060020a03918216600090815260036020908152604080832093909416825291909152205490565b600054600160a060020a03163314611bef57600080fd5b600160a060020a0381161515611c0457600080fd5b6000805473ffffffffffffffffffffffffffffffffffffffff1916600160a060020a0383811691821780845560405192939116917f8be0079c531659141344cd1fd0a4f28419497f9722a3daafe3b4186f6b6457e09190a350565b600160a060020a0316600090815260209190915260409020805460ff19169055565b600060035b905090565b611c936125f3565b611c9f846103e8611700565b50611ca984611a08565b60e06040519081016040528085600160a060020a03168152602001848152602001838152602001611cd986611134565b815260016020820152426040820181905260609091015290506118278482612320565b60006002611c86565b600082821115611d1157fe5b50900390565b600082820183811015611d2657fe5b9392505050565b60006001611c86565b604080516020808201849052825180830382018152918301928390528151600093918291908401908083835b60208310611d815780518252601f199092019160209182019101611d62565b51815160209384036101000a6000190180199092169116179052604080519290940182900382208282018a90528451808403830181529285019485905282519096509194508392508401908083835b60208310611def5780518252601f199092019160209182019101611dd0565b5181516020939093036101000a60001901801990911692169190911790526040519201829003909120939093149695505050505050565b6000818152602083815260409182902080548351601f6002600019610100600186161502019093169290920491820184900484028101840190945280845260609392830182828015611eb95780601f10611e8e57610100808354040283529160200191611eb9565b820191906000526020600020905b815481529060010190602001808311611e9c57829003601f168201915b5050505050905092915050565b600160a060020a03166000908152602091909152604090205460ff1690565b600084611ef181610f47565b8015611f015750611f0133610f47565b1515611f0c57600080fd5b858585856040516020018085600160a060020a0316600160a060020a03166c0100000000000000000000000002815260140184805190602001908083835b60208310611f695780518252601f199092019160209182019101611f4a565b51815160209384036101000a600019018019909216911617905286519190930192860191508083835b60208310611fb15780518252601f199092019160209182019101611f92565b51815160209384036101000a6000190180199092169116179052920193845250604080518085038152938201908190528351939650945084935085019190508083835b602083106120135780518252601f199092019160209182019101611ff4565b5181516020939093036101000a600019018019909116921691909117905260405192018290039091209998505050505050505050565b60208181018051600160a060020a039081166000908152600d845260408082208651835285528082208054600160ff19909116811790915586518352600e865291819020865181559351918401805473ffffffffffffffffffffffffffffffffffffffff19169290931691909117909155830151805184936120d292600285019291019061263c565b50606082015160038201556080820151600482015560a0820151600582015560c0820151600682015560e09091015160079091015580516000908152600f60209081526040808320828501805182546001808201855593875285872001805473ffffffffffffffffffffffffffffffffffffffff1916600160a060020a0392831617905590511684526010835290832093518454918201855593835291200155565b60008561218081610f47565b15156121c4576040805160e560020a62461bcd0281526020600482015260136024820152600080516020612c16833981519152604482015290519081900360640190fd5b6000868152600e6020908152604091829020600381018890556004810187905560018082018054600160a060020a038d1673ffffffffffffffffffffffffffffffffffffffff19909116811790915560058301889055825485518181529586018b9052606086018a9052426080870181905260a0958701868152600280870180549687161561010002600019019096160496880187905294985091957fafd42942a0c53a78c612a313396fa781b28b96152008176c868133162b7ea5349591948c938c939092919060c0830190879080156122e05780601f106122b5576101008083540402835291602001916122e0565b820191906000526020600020905b8154815290600101906020018083116122c357829003601f168201915b5050965050505050505060405180910390a250505050505050565b600160a060020a0316600090815260209190915260409020805460ff19166001179055565b600160a060020a0382166000908152600c602052604090206004015460ff1615612394576040805160e560020a62461bcd02815260206004820152601260248201527f5573657220616c72656164792065786973740000000000000000000000000000604482015290519081900360640190fd5b600b805460018181019092557f0175b7a638427703f0dbe7bb9bbf987a2551717b34e79f33b5b1008d1fa01db9018054600160a060020a0380861673ffffffffffffffffffffffffffffffffffffffff1992831681179093556000928352600c60209081526040909320855181549216919092161781558382015180518594929361242393850192019061263c565b50604082810151600283015560608301516003830155608083015160048301805460ff191691151591909117905560a0830151600583015560c090920151600690910155602082015190820151600160a060020a038416917fc847e6f60ca9d046e82cc9869608ea59d7b79d63d9ad3f3fdc9fa994a3815963916124a990600990611e26565b846060015142604051808060200180602001858152602001848152602001838103835287818151815260200191508051906020019080838360005b838110156124fc5781810151838201526020016124e4565b50505050905090810190601f1680156125295780820380516001836020036101000a031916815260200191505b50838103825286518152865160209182019188019080838360005b8381101561255c578181015183820152602001612544565b50505050905090810190601f1680156125895780820380516001836020036101000a031916815260200191505b50965050505050505060405180910390a25050565b61010060405190810160405280600080191681526020016000600160a060020a031681526020016060815260200160008152602001600081526020016000801916815260200160008152602001600081525090565b60e0604051908101604052806000600160a060020a0316815260200160608152602001600081526020016000815260200160001515815260200160008152602001600081525090565b828054600181600116156101000203166002900490600052602060002090601f016020900481019282601f1061267d57805160ff19168380011785556126aa565b828001600101855582156126aa579182015b828111156126aa57825182559160200191906001019061268f565b506126b69291506126ba565b5090565b61093f91905b808211156126b657600081556001016126c0565b604080518082018252600981527f415641494c41424c45000000000000000000000000000000000000000000000060208083019182526002600090815260018601909152929092209051612728929061263c565b50604080518082018252600a81527f4f4e5f5448455f574159000000000000000000000000000000000000000000006020808301918252600460009081526001860190915292909220905161277d929061263c565b50604080518082018252600981527f434f4d504c455445440000000000000000000000000000000000000000000000602080830191825260086000908152600186019091529290922090516127d2929061263c565b50604080518082018252600981527f44454c495645524544000000000000000000000000000000000000000000000060208083019182526006600090815260018601909152929092209051612827929061263c565b50604080518082018252600781527f50454e44494e47000000000000000000000000000000000000000000000000006020808301918252600a60009081526001860190915292909220905161287c929061263c565b50604080518082018252600781527f53554343455353000000000000000000000000000000000000000000000000006020808301918252600b6000908152600186019091529290922090516128d1929061263c565b50604080518082018252600481527f44454144000000000000000000000000000000000000000000000000000000006020808301918252600080805260018601909152929092209051612924929061263c565b50604080518082018252600581527f414c495645000000000000000000000000000000000000000000000000000000602080830191825260016000818152908601909152929092209051612978929061263c565b50604080518082018252600b81527f544f5f42455f4144444544000000000000000000000000000000000000000000602080830191825260036000908152600186019091529290922090516129cd929061263c565b50604080518082018252600b81527f494e5f50524f475245535300000000000000000000000000000000000000000060208083019182526007600090815260018601909152929092209051612a22929061263c565b50604080518082018252600981527f5049434b45445f5550000000000000000000000000000000000000000000000060208083019182526005600090815260018601909152929092209051612a77929061263c565b506040805180820190915260098082527f43414e43454c4c45440000000000000000000000000000000000000000000000602083015260018301906000905b81526020019081526020016000209080519060200190612ad792919061263c565b5050565b604080518082018252600581527f41444d494e0000000000000000000000000000000000000000000000000000006020808301918252600080805290859052929092209051612b2a929061263c565b50604080518082018252600881527f50524f445543455200000000000000000000000000000000000000000000000060208083019182526001600090815290859052929092209051612b7c929061263c565b50604080518082018252600881527f434f4e53554d455200000000000000000000000000000000000000000000000060208083019182526002600090815290859052929092209051612bce929061263c565b5060408051808201909152600881527f535550504c49455200000000000000000000000000000000000000000000000060208201528160006003612ab6565b600080611c8656005573657220646f6573206e6f7420657869737400000000000000000000000000ddf252ad1be2c89b69c2b068fc378daa952ba7f163c4a11628f55a4df523b3efa165627a7a72305820c459b41026ddd5e9d0602fb7e423a1a27d8dceca5b1f8c333baf45aed224fa3d0029",
  "source": "pragma solidity ^0.4.24;\n\nimport \"./AccessControl.sol\";\n\ncontract AssetOwnership is AccessControl{\n\n    struct Asset {\n        bytes32 _id;\n        address _address;//current owner\n        string _name;\n        uint _value;//per quantity\n        uint _quantity; \n        bytes32 _trackId;//\n        // bool _isAlive;//TODO no need for checking it\n        uint256 _createdAt;\n        uint256 _updatedAt;\n    }\n      \n    struct Transaction {\n        bytes32 _id;// unique id\n        address _from;// seller\n        address _to;// buyer\n        address _supplier;\n        uint _status;// current status\n\n        bytes32 _assetId;\n\n        bytes32 _sensorId;//\n        uint _amount;\n        uint256 _createdAt;\n        uint256 _updatedAt;\n    }\n  \n    //events\n   \n    event LogNewAssetEvent (address indexed _address,bytes32 _id, string _name, uint _value,uint _quantity,uint256 _createdAt);\n    event LogUpdateAssetEvent (address indexed _userAddress,bytes32 _id, string _name, uint _value,uint _quantity,uint256 _updatedAt);\n    // event LogDeleteAssetEvent (address indexed _userAddress,string _username, string _name, uint256 _deletedAt);\n    event LogTransferAssetEvent (address indexed _to,address indexed _from,bytes32 _id, string _name, uint _value,uint _quantity,uint256 _timestamp);\n   \n    event LogSupplierSensorAlert (address _supplier , bytes32 _transactionId ,string _status ,uint256 _timestamp);\n    event LogTransactionUpdateEvent  (bytes32 _transactionId , string _status , uint256 _timestamp); \n    // map asset id with address\n    mapping (address => mapping(bytes32=>bool)) internal userAssetIds;\n    // map an asset with its unique asset id\n    mapping (bytes32 => Asset) internal assets;\n    mapping (bytes32 => address[]) internal assetOwners;//TODO: Do we need this?\n    mapping (address => bytes32[]) internal userAssets;\n  \n    mapping (address => bytes32[]) internal userTransactions;// tranfers done by user\n    mapping (bytes32 => Transaction) internal transactions;// each transactions\n  \n  constructor(string _name) AccessControl(_name) public {\n      \n  }\n  \n  modifier ownerOf(address _address,bytes32 _id)  {\n      require(_address != address(0),\"Address is zero\");\n      //double check\n      require(userAssetIds[_address][_id],\"This asset is not with the specified address\");\n      require(assets[_id]._address == _address,\"You are not authorized\");\n      _;\n  }\n  \n  modifier NotEmpty(bytes32 id) {\n      require(!equals(id,'') && id !=0,\"Id should not be empty\");\n      _;\n  }\n  \n  modifier isTransactionPending(bytes32 _id) {\n      require(transactions[_id]._status == Enums.getPendingStatus());\n      _;\n  }\n  \n  function addAssetToMap(Asset memory asset) internal {\n      //adding asset to each map\n      userAssetIds[asset._address][asset._id] =true;\n      assets[asset._id] = asset;\n      assetOwners[asset._id].push(asset._address);\n      userAssets[asset._address].push(asset._id);\n  }\n\n   function createAsset(address _address,string _name,uint _value,uint _quantity) external allowUpdateAsset(_address) isExisting(_address) {\n      bytes32 _id = createId(_address,_name,userIdMap[_address]._username,now);\n      Asset memory asset = Asset(_id,_address,_name,_value,_quantity,0,now,now);\n      addAssetToMap(asset);\n      emit LogNewAssetEvent(asset._address,asset._id,asset._name,asset._value,asset._quantity,now);\n  }\n\n  function editAsset(address _address,bytes32 _id,uint _value,uint _quantity) external allowUpdateAsset(_address) isExisting(_address){\n    Asset storage asset = assets[_id];\n    updateAsset(_address,_id,_value,_quantity,asset._trackId);\n  }\n  \n  //TODO check for updation by producer only\n  //DONE : changes should be made for every mapped asset\n  function updateAsset(address _address,bytes32 _id,uint _value,uint _quantity,bytes32 _trackId) internal  isExisting(_address) {\n      Asset storage asset = assets[_id];\n      asset._value = _value;\n      asset._quantity = _quantity;\n      asset._address = _address;\n      asset._trackId = _trackId;\n      emit LogUpdateAssetEvent(_address,asset._id,asset._name,asset._value,asset._quantity,now);\n  }\n\n   //DONE: check for index\n  function getAssetOwners(bytes32 _assetId) view public NotEmpty(_assetId)\n   returns \n    (address[]) \n    {\n       return assetOwners[_assetId];\n    }\n  \n  //DONE: check for index\n  function getAssetIdsByAddress(address _address) view public isExisting(_address)\n   returns \n    (bytes32[]) \n    {\n       return userAssets[_address];\n    }\n\n  //DONE: get out more details\n  function getAssetById(bytes32 _id) public view NotEmpty(_id) \n    //   checkAsset(_id) , TODO\n  returns \n    (address,\n    bytes32 ,\n    string ,\n    uint ,\n    uint , \n    bytes32 ,\n    string,\n    string,\n    uint256,\n    uint256) \n    {\n        Asset memory asset = assets[_id];\n        return(asset._address,asset._id,asset._name,asset._value,asset._quantity,asset._trackId,userIdMap[asset._address]._username,enums.getStringOwnerType(userIdMap[asset._address]._type),asset._createdAt,asset._updatedAt);\n    }\n  \n  } ",
  "sourcePath": "/home/synerzip/Desktop/Ethereum/truffle/contracts/AssetOwnership.sol",
  "compiler": {
    "name": "solc",
    "version": "0.4.24+commit.e67f0147.Emscripten.clang"
  },
  "schemaVersion": "2.0.1",
  "updatedAt": "2018-11-13T12:28:24.843Z"
}