{
  "contractName": "AccessControl",
  "abi": [
    {
      "constant": false,
      "inputs": [
        {
          "name": "_spender",
          "type": "address"
        },
        {
          "name": "_value",
          "type": "uint256"
        }
      ],
      "name": "approve",
      "outputs": [
        {
          "name": "",
          "type": "bool"
        }
      ],
      "payable": false,
      "stateMutability": "nonpayable",
      "type": "function"
    },
    {
      "constant": false,
      "inputs": [
        {
          "name": "_address",
          "type": "address"
        }
      ],
      "name": "removeMember",
      "outputs": [],
      "payable": false,
      "stateMutability": "nonpayable",
      "type": "function"
    },
    {
      "constant": false,
      "inputs": [
        {
          "name": "_from",
          "type": "address"
        },
        {
          "name": "_to",
          "type": "address"
        },
        {
          "name": "_value",
          "type": "uint256"
        }
      ],
      "name": "transferFrom",
      "outputs": [
        {
          "name": "",
          "type": "bool"
        }
      ],
      "payable": false,
      "stateMutability": "nonpayable",
      "type": "function"
    },
    {
      "constant": true,
      "inputs": [
        {
          "name": "",
          "type": "uint256"
        }
      ],
      "name": "users",
      "outputs": [
        {
          "name": "",
          "type": "address"
        }
      ],
      "payable": false,
      "stateMutability": "view",
      "type": "function"
    },
    {
      "constant": false,
      "inputs": [],
      "name": "kill",
      "outputs": [],
      "payable": false,
      "stateMutability": "nonpayable",
      "type": "function"
    },
    {
      "constant": true,
      "inputs": [
        {
          "name": "_address",
          "type": "address"
        }
      ],
      "name": "memberAllowed",
      "outputs": [
        {
          "name": "",
          "type": "bool"
        }
      ],
      "payable": false,
      "stateMutability": "view",
      "type": "function"
    },
    {
      "constant": true,
      "inputs": [
        {
          "name": "_address",
          "type": "address"
        }
      ],
      "name": "ownerAllowed",
      "outputs": [
        {
          "name": "",
          "type": "bool"
        }
      ],
      "payable": false,
      "stateMutability": "view",
      "type": "function"
    },
    {
      "constant": true,
      "inputs": [
        {
          "name": "_owner",
          "type": "address"
        }
      ],
      "name": "balanceOf",
      "outputs": [
        {
          "name": "",
          "type": "uint256"
        }
      ],
      "payable": false,
      "stateMutability": "view",
      "type": "function"
    },
    {
      "constant": true,
      "inputs": [],
      "name": "owner",
      "outputs": [
        {
          "name": "",
          "type": "address"
        }
      ],
      "payable": false,
      "stateMutability": "view",
      "type": "function"
    },
    {
      "constant": false,
      "inputs": [
        {
          "name": "_amount",
          "type": "uint256"
        }
      ],
      "name": "mint",
      "outputs": [],
      "payable": false,
      "stateMutability": "nonpayable",
      "type": "function"
    },
    {
      "constant": false,
      "inputs": [
        {
          "name": "_from",
          "type": "address"
        },
        {
          "name": "_to",
          "type": "address"
        },
        {
          "name": "_value",
          "type": "uint256"
        }
      ],
      "name": "transferTokens",
      "outputs": [],
      "payable": false,
      "stateMutability": "nonpayable",
      "type": "function"
    },
    {
      "constant": false,
      "inputs": [
        {
          "name": "_to",
          "type": "address"
        },
        {
          "name": "_value",
          "type": "uint256"
        }
      ],
      "name": "transfer",
      "outputs": [
        {
          "name": "",
          "type": "bool"
        }
      ],
      "payable": false,
      "stateMutability": "nonpayable",
      "type": "function"
    },
    {
      "constant": false,
      "inputs": [
        {
          "name": "_address",
          "type": "address"
        }
      ],
      "name": "addMember",
      "outputs": [],
      "payable": false,
      "stateMutability": "nonpayable",
      "type": "function"
    },
    {
      "constant": true,
      "inputs": [],
      "name": "tokenDetails",
      "outputs": [
        {
          "name": "",
          "type": "string"
        },
        {
          "name": "",
          "type": "string"
        },
        {
          "name": "",
          "type": "uint8"
        },
        {
          "name": "",
          "type": "uint256"
        }
      ],
      "payable": false,
      "stateMutability": "view",
      "type": "function"
    },
    {
      "constant": true,
      "inputs": [
        {
          "name": "_owner",
          "type": "address"
        },
        {
          "name": "_spender",
          "type": "address"
        }
      ],
      "name": "allowance",
      "outputs": [
        {
          "name": "",
          "type": "uint256"
        }
      ],
      "payable": false,
      "stateMutability": "view",
      "type": "function"
    },
    {
      "constant": false,
      "inputs": [
        {
          "name": "newOwner",
          "type": "address"
        }
      ],
      "name": "transferOwnership",
      "outputs": [],
      "payable": false,
      "stateMutability": "nonpayable",
      "type": "function"
    },
    {
      "inputs": [
        {
          "name": "_name",
          "type": "string"
        }
      ],
      "payable": false,
      "stateMutability": "nonpayable",
      "type": "constructor"
    },
    {
      "anonymous": false,
      "inputs": [
        {
          "indexed": true,
          "name": "_userAddress",
          "type": "address"
        },
        {
          "indexed": false,
          "name": "_username",
          "type": "string"
        },
        {
          "indexed": false,
          "name": "_type",
          "type": "string"
        },
        {
          "indexed": false,
          "name": "_balance",
          "type": "uint256"
        },
        {
          "indexed": false,
          "name": "_createdAt",
          "type": "uint256"
        }
      ],
      "name": "LogNewUserEvent",
      "type": "event"
    },
    {
      "anonymous": false,
      "inputs": [
        {
          "indexed": false,
          "name": "_address",
          "type": "address"
        },
        {
          "indexed": false,
          "name": "_value",
          "type": "uint256"
        }
      ],
      "name": "LogLockedFundsEvent",
      "type": "event"
    },
    {
      "anonymous": false,
      "inputs": [
        {
          "indexed": false,
          "name": "_address",
          "type": "address"
        },
        {
          "indexed": false,
          "name": "_value",
          "type": "uint256"
        }
      ],
      "name": "LogReleasedFundsEvent",
      "type": "event"
    },
    {
      "anonymous": false,
      "inputs": [
        {
          "indexed": true,
          "name": "from",
          "type": "address"
        },
        {
          "indexed": true,
          "name": "to",
          "type": "address"
        },
        {
          "indexed": false,
          "name": "value",
          "type": "uint256"
        }
      ],
      "name": "Transfer",
      "type": "event"
    },
    {
      "anonymous": false,
      "inputs": [
        {
          "indexed": true,
          "name": "owner",
          "type": "address"
        },
        {
          "indexed": true,
          "name": "spender",
          "type": "address"
        },
        {
          "indexed": false,
          "name": "value",
          "type": "uint256"
        }
      ],
      "name": "Approval",
      "type": "event"
    },
    {
      "anonymous": false,
      "inputs": [
        {
          "indexed": true,
          "name": "previousOwner",
          "type": "address"
        },
        {
          "indexed": true,
          "name": "newOwner",
          "type": "address"
        }
      ],
      "name": "OwnershipTransferred",
      "type": "event"
    },
    {
      "anonymous": false,
      "inputs": [
        {
          "indexed": true,
          "name": "account",
          "type": "address"
        }
      ],
      "name": "MemberAdded",
      "type": "event"
    },
    {
      "anonymous": false,
      "inputs": [
        {
          "indexed": true,
          "name": "account",
          "type": "address"
        }
      ],
      "name": "MemberRemoved",
      "type": "event"
    },
    {
      "constant": false,
      "inputs": [
        {
          "name": "_address",
          "type": "address"
        },
        {
          "name": "_name",
          "type": "string"
        }
      ],
      "name": "addProducer",
      "outputs": [],
      "payable": false,
      "stateMutability": "nonpayable",
      "type": "function"
    },
    {
      "constant": false,
      "inputs": [
        {
          "name": "_address",
          "type": "address"
        },
        {
          "name": "_name",
          "type": "string"
        }
      ],
      "name": "addConsumer",
      "outputs": [],
      "payable": false,
      "stateMutability": "nonpayable",
      "type": "function"
    },
    {
      "constant": false,
      "inputs": [
        {
          "name": "_address",
          "type": "address"
        },
        {
          "name": "_name",
          "type": "string"
        }
      ],
      "name": "addSupplier",
      "outputs": [],
      "payable": false,
      "stateMutability": "nonpayable",
      "type": "function"
    },
    {
      "constant": true,
      "inputs": [
        {
          "name": "_address",
          "type": "address"
        }
      ],
      "name": "getUserByAddress",
      "outputs": [
        {
          "name": "",
          "type": "string"
        },
        {
          "name": "",
          "type": "string"
        },
        {
          "name": "",
          "type": "uint256"
        }
      ],
      "payable": false,
      "stateMutability": "view",
      "type": "function"
    },
    {
      "constant": true,
      "inputs": [],
      "name": "getUsers",
      "outputs": [
        {
          "name": "",
          "type": "address[]"
        }
      ],
      "payable": false,
      "stateMutability": "view",
      "type": "function"
    },
    {
      "constant": false,
      "inputs": [
        {
          "name": "_address",
          "type": "address"
        },
        {
          "name": "_value",
          "type": "uint256"
        }
      ],
      "name": "requestTokens",
      "outputs": [],
      "payable": false,
      "stateMutability": "nonpayable",
      "type": "function"
    }
  ],
  "bytecode": "0x60806040523480156200001157600080fd5b506040516200281d3803806200281d833981016040528051016200003462000ae9565b60008054600160a060020a031916339081179091556200006590600190640100000000620013286200020682021704565b6040805180820190915260098082527f46435420546f6b656e00000000000000000000000000000000000000000000006020909201918252620000ab9160069162000b32565b506040805180820190915260038082527f46435400000000000000000000000000000000000000000000000000000000006020909201918252620000f29160079162000b32565b506008805460ff1916600a1790556402540be4006005819055336000818152600260209081526040808320859055805194855251929391927fddf252ad1be2c89b69c2b068fc378daa952ba7f163c4a11628f55a4df523b3ef9281900390910190a36200016e6009640100000000620016ac6200022b82021704565b62000188600964010000000062001ab36200064a82021704565b6040805160e08101825233815260208101849052908101620001b764010000000062001be56200078382021704565b8152602001620001d03364010000000062000789810204565b81526001602082015242604082018190526060909101529050620001fe3382640100000000620007a4810204565b505062000bd4565b600160a060020a0316600090815260209190915260409020805460ff19166001179055565b604080518082018252600981527f415641494c41424c4500000000000000000000000000000000000000000000006020808301918252600260009081526001860190915292909220905162000281929062000b32565b50604080518082018252600a81527f4f4e5f5448455f5741590000000000000000000000000000000000000000000060208083019182526004600090815260018601909152929092209051620002d8929062000b32565b50604080518082018252600981527f434f4d504c455445440000000000000000000000000000000000000000000000602080830191825260086000908152600186019091529290922090516200032f929062000b32565b50604080518082018252600981527f44454c49564552454400000000000000000000000000000000000000000000006020808301918252600660009081526001860190915292909220905162000386929062000b32565b50604080518082018252600781527f50454e44494e47000000000000000000000000000000000000000000000000006020808301918252600a600090815260018601909152929092209051620003dd929062000b32565b50604080518082018252600781527f53554343455353000000000000000000000000000000000000000000000000006020808301918252600b60009081526001860190915292909220905162000434929062000b32565b50604080518082018252600481527f4445414400000000000000000000000000000000000000000000000000000000602080830191825260008080526001860190915292909220905162000489929062000b32565b50604080518082018252600581527f414c495645000000000000000000000000000000000000000000000000000000602080830191825260016000818152908601909152929092209051620004df929062000b32565b50604080518082018252600b81527f544f5f42455f41444445440000000000000000000000000000000000000000006020808301918252600360009081526001860190915292909220905162000536929062000b32565b50604080518082018252600b81527f494e5f50524f4752455353000000000000000000000000000000000000000000602080830191825260076000908152600186019091529290922090516200058d929062000b32565b50604080518082018252600981527f5049434b45445f5550000000000000000000000000000000000000000000000060208083019182526005600090815260018601909152929092209051620005e4929062000b32565b506040805180820190915260098082527f43414e43454c4c45440000000000000000000000000000000000000000000000602083015260018301906000905b815260200190815260200160002090805190602001906200064692919062000b32565b5050565b604080518082018252600581527f41444d494e00000000000000000000000000000000000000000000000000000060208083019182526000808052908590529290922090516200069b929062000b32565b50604080518082018252600881527f50524f445543455200000000000000000000000000000000000000000000000060208083019182526001600090815290859052929092209051620006ef929062000b32565b50604080518082018252600881527f434f4e53554d45520000000000000000000000000000000000000000000000006020808301918252600260009081529085905292909220905162000743929062000b32565b5060408051808201909152600881527f535550504c4945520000000000000000000000000000000000000000000000006020820152816000600362000623565b60005b90565b600160a060020a031660009081526002602052604090205490565b600160a060020a0382166000908152600c602052604090206004015460ff16156200083057604080517f08c379a000000000000000000000000000000000000000000000000000000000815260206004820152601260248201527f5573657220616c72656164792065786973740000000000000000000000000000604482015290519081900360640190fd5b600b805460018181019092557f0175b7a638427703f0dbe7bb9bbf987a2551717b34e79f33b5b1008d1fa01db9018054600160a060020a03808616600160a060020a031992831681179093556000928352600c602090815260409093208551815492169190921617815583820151805185949293620008b493850192019062000b32565b50604082810151600283015560608301516003830155608083015160048301805460ff191691151591909117905560a0830151600583015560c090920151600690910155602082015190820151600160a060020a038416917fc847e6f60ca9d046e82cc9869608ea59d7b79d63d9ad3f3fdc9fa994a3815963916200094a9060099064010000000062000a458102620012881704565b846060015142604051808060200180602001858152602001848152602001838103835287818151815260200191508051906020019080838360005b838110156200099f57818101518382015260200162000985565b50505050905090810190601f168015620009cd5780820380516001836020036101000a031916815260200191505b50838103825286518152865160209182019188019080838360005b8381101562000a02578181015183820152602001620009e8565b50505050905090810190601f16801562000a305780820380516001836020036101000a031916815260200191505b50965050505050505060405180910390a25050565b6000818152602083815260409182902080548351601f600260001961010060018616150201909316929092049182018490048402810184019094528084526060939283018282801562000adc5780601f1062000ab05761010080835404028352916020019162000adc565b820191906000526020600020905b81548152906001019060200180831162000abe57829003601f168201915b5050505050905092915050565b60e0604051908101604052806000600160a060020a0316815260200160608152602001600081526020016000815260200160001515815260200160008152602001600081525090565b828054600181600116156101000203166002900490600052602060002090601f016020900481019282601f1062000b7557805160ff191683800117855562000ba5565b8280016001018555821562000ba5579182015b8281111562000ba557825182559160200191906001019062000b88565b5062000bb392915062000bb7565b5090565b6200078691905b8082111562000bb3576000815560010162000bbe565b611c398062000be46000396000f3006080604052600436106101265763ffffffff7c0100000000000000000000000000000000000000000000000000000000600035041662ce8e3e811461012b578063095ea7b3146101905780630b1ca49a146101c85780631c933a3e146101eb578063227cca091461021857806323b872dd14610245578063274f97c61461026f578063365b98b21461029c57806341c0e1b5146102d0578063471dc28d146102e55780635d99f0cb1461030657806369c212f61461032757806370a082311461042d5780638da5cb5b14610460578063a0712d6814610475578063a64b6e5f1461048d578063a9059cbb146104b7578063af421564146104db578063ca6d56dc146104ff578063d6abe11014610520578063dd62ed3e14610627578063f2fde38b1461064e575b600080fd5b34801561013757600080fd5b5061014061066f565b60408051602080825283518183015283519192839290830191858101910280838360005b8381101561017c578181015183820152602001610164565b505050509050019250505060405180910390f35b34801561019c57600080fd5b506101b4600160a060020a03600435166024356106d2565b604080519115158252519081900360200190f35b3480156101d457600080fd5b506101e9600160a060020a0360043516610738565b005b3480156101f757600080fd5b506101e960048035600160a060020a03169060248035908101910135610797565b34801561022457600080fd5b506101e960048035600160a060020a031690602480359081019101356107df565b34801561025157600080fd5b506101b4600160a060020a036004358116906024351660443561081d565b34801561027b57600080fd5b506101e960048035600160a060020a03169060248035908101910135610982565b3480156102a857600080fd5b506102b46004356109c0565b60408051600160a060020a039092168252519081900360200190f35b3480156102dc57600080fd5b506101e96109e8565b3480156102f157600080fd5b506101b4600160a060020a0360043516610a0d565b34801561031257600080fd5b506101b4600160a060020a0360043516610a26565b34801561033357600080fd5b50610348600160a060020a0360043516610a63565b604051808060200180602001848152602001838103835286818151815260200191508051906020019080838360005b8381101561038f578181015183820152602001610377565b50505050905090810190601f1680156103bc5780820380516001836020036101000a031916815260200191505b50838103825285518152855160209182019187019080838360005b838110156103ef5781810151838201526020016103d7565b50505050905090810190601f16801561041c5780820380516001836020036101000a031916815260200191505b509550505050505060405180910390f35b34801561043957600080fd5b5061044e600160a060020a0360043516610c0c565b60408051918252519081900360200190f35b34801561046c57600080fd5b506102b4610c27565b34801561048157600080fd5b506101e9600435610c36565b34801561049957600080fd5b506101e9600160a060020a0360043581169060243516604435610ccb565b3480156104c357600080fd5b506101b4600160a060020a0360043516602435610db2565b3480156104e757600080fd5b506101e9600160a060020a0360043516602435610ecb565b34801561050b57600080fd5b506101e9600160a060020a0360043516610f3b565b34801561052c57600080fd5b50610535610f9a565b6040518080602001806020018560ff1660ff168152602001848152602001838103835287818151815260200191508051906020019080838360005b83811015610588578181015183820152602001610570565b50505050905090810190601f1680156105b55780820380516001836020036101000a031916815260200191505b50838103825286518152865160209182019188019080838360005b838110156105e85781810151838201526020016105d0565b50505050905090810190601f1680156106155780820380516001836020036101000a031916815260200191505b50965050505050505060405180910390f35b34801561063357600080fd5b5061044e600160a060020a03600435811690602435166110e0565b34801561065a57600080fd5b506101e9600160a060020a036004351661110b565b6060600b8054806020026020016040519081016040528092919081815260200182805480156106c757602002820191906000526020600020905b8154600160a060020a031681526001909101906020018083116106a9575b505050505090505b90565b336000818152600360209081526040808320600160a060020a038716808552908352818420869055815186815291519394909390927f8c5be1e5ebec7d5bd14f71427d1e84f3dd0314c0f7b2291e5b200ac8c7c3b925928290030190a350600192915050565b600054600160a060020a0316331461074f57600080fd5b61076060018263ffffffff61119216565b604051600160a060020a038216907f6e76fb4c77256006d9c38ec7d82b45a8c8f3c27b1d6766fffc42dfb8de68449290600090a250565b6107da8383838080601f016020809104026020016040519081016040528093929190818152602001838380828437506107d594506111b49350505050565b6111be565b505050565b6107da8383838080601f016020809104026020016040519081016040528093929190818152602001838380828437506107d5945061122f9350505050565b600160a060020a03831660009081526002602052604081205482111561084257600080fd5b600160a060020a038416600090815260036020908152604080832033845290915290205482111561087257600080fd5b600160a060020a038316151561088757600080fd5b600160a060020a0384166000908152600260205260409020546108b0908363ffffffff61123816565b600160a060020a0380861660009081526002602052604080822093909355908516815220546108e5908363ffffffff61124a16565b600160a060020a038085166000908152600260209081526040808320949094559187168152600382528281203382529091522054610929908363ffffffff61123816565b600160a060020a0380861660008181526003602090815260408083203384528252918290209490945580518681529051928716939192600080516020611bee833981519152929181900390910190a35060019392505050565b6107da8383838080601f016020809104026020016040519081016040528093929190818152602001838380828437506107d594506112609350505050565b600b8054829081106109ce57fe5b600091825260209091200154600160a060020a0316905081565b600054600160a060020a031633146109ff57600080fd5b600054600160a060020a0316ff5b6000610a2060018363ffffffff61126916565b92915050565b600081610a3281610a0d565b8015610a425750610a4233610a0d565b1515610a4d57600080fd5b5050600054600160a060020a0390811691161490565b6060806000610a706115cb565b84610a7a81610a0d565b1515610ad0576040805160e560020a62461bcd02815260206004820152601360248201527f5573657220646f6573206e6f7420657869737400000000000000000000000000604482015290519081900360640190fd5b600160a060020a038681166000908152600c6020908152604091829020825160e08101845281549094168452600180820180548551600261010094831615949094026000190190911692909204601f8101859004850283018501909552848252919385840193919291830182828015610b8a5780601f10610b5f57610100808354040283529160200191610b8a565b820191906000526020600020905b815481529060010190602001808311610b6d57829003601f168201915b50505091835250506002820154602082015260038201546040820152600482015460ff16151560608201526005820154608082015260069091015460a0909101529150610bd686610c0c565b606083015260208201516040830151610bf79060099063ffffffff61128816565b60608401519196509450925050509193909250565b600160a060020a031660009081526002602052604090205490565b600054600160a060020a031681565b600054600160a060020a03163314610c4d57600080fd5b331515610c5957600080fd5b600554610c6c908263ffffffff61124a16565b60055533600090815260026020526040902054610c8f908263ffffffff61124a16565b336000818152600260209081526040808320949094558351858152935192939192600080516020611bee8339815191529281900390910190a350565b82610cd581610a0d565b8015610ce55750610ce533610a0d565b1515610cf057600080fd5b838280610cfc83610c0c565b1015610d0757600080fd5b600160a060020a038616600090815260026020526040902054610d30908563ffffffff61123816565b600160a060020a038088166000908152600260205260408082209390935590871681522054610d65908563ffffffff61124a16565b600160a060020a0380871660008181526002602090815260409182902094909455805188815290519193928a1692600080516020611bee83398151915292918290030190a3505050505050565b33600090815260026020526040812054821115610df3576040805160e560020a62461bcd028152602060048201526000602482015290519081900360640190fd5b600160a060020a0383161515610e2d576040805160e560020a62461bcd028152602060048201526000602482015290519081900360640190fd5b33600090815260026020526040902054610e4d908363ffffffff61123816565b3360009081526002602052604080822092909255600160a060020a03851681522054610e7f908363ffffffff61124a16565b600160a060020a038416600081815260026020908152604091829020939093558051858152905191923392600080516020611bee8339815191529281900390910190a350600192915050565b81610ed581610a0d565b1515610f2b576040805160e560020a62461bcd02815260206004820152601360248201527f5573657220646f6573206e6f7420657869737400000000000000000000000000604482015290519081900360640190fd5b610f358383610db2565b50505050565b600054600160a060020a03163314610f5257600080fd5b610f6360018263ffffffff61132816565b604051600160a060020a038216907fb251eb052afc73ffd02ffe85ad79990a8b3fed60d76dbc2fa2fdd7123dffd91490600090a250565b60085460055460068054604080516020601f6002600019600187161561010002019095169490940493840181900481028201810190925282815260609586956000958695909460079460ff9094169391869183018282801561103d5780601f106110125761010080835404028352916020019161103d565b820191906000526020600020905b81548152906001019060200180831161102057829003601f168201915b5050865460408051602060026001851615610100026000190190941693909304601f8101849004840282018401909252818152959950889450925084019050828280156110cb5780601f106110a0576101008083540402835291602001916110cb565b820191906000526020600020905b8154815290600101906020018083116110ae57829003601f168201915b50505050509250935093509350935090919293565b600160a060020a03918216600090815260036020908152604080832093909416825291909152205490565b600054600160a060020a0316331461112257600080fd5b600160a060020a038116151561113757600080fd5b6000805473ffffffffffffffffffffffffffffffffffffffff1916600160a060020a0383811691821780845560405192939116917f8be0079c531659141344cd1fd0a4f28419497f9722a3daafe3b4186f6b6457e09190a350565b600160a060020a0316600090815260209190915260409020805460ff19169055565b600060035b905090565b6111c66115cb565b6111d2846103e8610db2565b506111dc84610f3b565b60e06040519081016040528085600160a060020a0316815260200184815260200183815260200161120c86610c0c565b81526001602082015242604082018190526060909101529050610f35848261134d565b600060026111b9565b60008282111561124457fe5b50900390565b60008282018381101561125957fe5b9392505050565b600060016111b9565b600160a060020a03166000908152602091909152604090205460ff1690565b6000818152602083815260409182902080548351601f600260001961010060018616150201909316929092049182018490048402810184019094528084526060939283018282801561131b5780601f106112f05761010080835404028352916020019161131b565b820191906000526020600020905b8154815290600101906020018083116112fe57829003601f168201915b5050505050905092915050565b600160a060020a0316600090815260209190915260409020805460ff19166001179055565b600160a060020a0382166000908152600c602052604090206004015460ff16156113c1576040805160e560020a62461bcd02815260206004820152601260248201527f5573657220616c72656164792065786973740000000000000000000000000000604482015290519081900360640190fd5b600b805460018181019092557f0175b7a638427703f0dbe7bb9bbf987a2551717b34e79f33b5b1008d1fa01db9018054600160a060020a0380861673ffffffffffffffffffffffffffffffffffffffff1992831681179093556000928352600c602090815260409093208551815492169190921617815583820151805185949293611450938501920190611614565b50604082810151600283015560608301516003830155608083015160048301805460ff191691151591909117905560a0830151600583015560c090920151600690910155602082015190820151600160a060020a038416917fc847e6f60ca9d046e82cc9869608ea59d7b79d63d9ad3f3fdc9fa994a3815963916114d690600990611288565b846060015142604051808060200180602001858152602001848152602001838103835287818151815260200191508051906020019080838360005b83811015611529578181015183820152602001611511565b50505050905090810190601f1680156115565780820380516001836020036101000a031916815260200191505b50838103825286518152865160209182019188019080838360005b83811015611589578181015183820152602001611571565b50505050905090810190601f1680156115b65780820380516001836020036101000a031916815260200191505b50965050505050505060405180910390a25050565b60e0604051908101604052806000600160a060020a0316815260200160608152602001600081526020016000815260200160001515815260200160008152602001600081525090565b828054600181600116156101000203166002900490600052602060002090601f016020900481019282601f1061165557805160ff1916838001178555611682565b82800160010185558215611682579182015b82811115611682578251825591602001919060010190611667565b5061168e929150611692565b5090565b6106cf91905b8082111561168e5760008155600101611698565b604080518082018252600981527f415641494c41424c450000000000000000000000000000000000000000000000602080830191825260026000908152600186019091529290922090516117009290611614565b50604080518082018252600a81527f4f4e5f5448455f57415900000000000000000000000000000000000000000000602080830191825260046000908152600186019091529290922090516117559290611614565b50604080518082018252600981527f434f4d504c455445440000000000000000000000000000000000000000000000602080830191825260086000908152600186019091529290922090516117aa9290611614565b50604080518082018252600981527f44454c4956455245440000000000000000000000000000000000000000000000602080830191825260066000908152600186019091529290922090516117ff9290611614565b50604080518082018252600781527f50454e44494e47000000000000000000000000000000000000000000000000006020808301918252600a6000908152600186019091529290922090516118549290611614565b50604080518082018252600781527f53554343455353000000000000000000000000000000000000000000000000006020808301918252600b6000908152600186019091529290922090516118a99290611614565b50604080518082018252600481527f444541440000000000000000000000000000000000000000000000000000000060208083019182526000808052600186019091529290922090516118fc9290611614565b50604080518082018252600581527f414c4956450000000000000000000000000000000000000000000000000000006020808301918252600160008181529086019091529290922090516119509290611614565b50604080518082018252600b81527f544f5f42455f4144444544000000000000000000000000000000000000000000602080830191825260036000908152600186019091529290922090516119a59290611614565b50604080518082018252600b81527f494e5f50524f4752455353000000000000000000000000000000000000000000602080830191825260076000908152600186019091529290922090516119fa9290611614565b50604080518082018252600981527f5049434b45445f5550000000000000000000000000000000000000000000000060208083019182526005600090815260018601909152929092209051611a4f9290611614565b506040805180820190915260098082527f43414e43454c4c45440000000000000000000000000000000000000000000000602083015260018301906000905b81526020019081526020016000209080519060200190611aaf929190611614565b5050565b604080518082018252600581527f41444d494e0000000000000000000000000000000000000000000000000000006020808301918252600080805290859052929092209051611b029290611614565b50604080518082018252600881527f50524f445543455200000000000000000000000000000000000000000000000060208083019182526001600090815290859052929092209051611b549290611614565b50604080518082018252600881527f434f4e53554d455200000000000000000000000000000000000000000000000060208083019182526002600090815290859052929092209051611ba69290611614565b5060408051808201909152600881527f535550504c49455200000000000000000000000000000000000000000000000060208201528160006003611a8e565b6000806111b95600ddf252ad1be2c89b69c2b068fc378daa952ba7f163c4a11628f55a4df523b3efa165627a7a72305820bd7318d0cf4d2d29ac953cb356557cc1d3ea5e77038d7362bc3a8bb46cfd92490029",
  "source": "pragma solidity ^0.4.24;\n\n\nimport \"./FCTToken.sol\";\nimport \"./Enums.sol\";\n\ncontract AccessControl is FCTToken {\n    using Enums for Enums.Enum;\n    Enums.Enum internal enums;\n    \n      // structures \n      struct User {\n          address _address;\n          string _username;\n          uint _type; //Type\n          uint256 _balance;//StandardToken balance\n          bool _isAlive;\n          uint256 _updatedAt;\n          uint256 _createdAt;\n          //TODO : added by a member\n     }\n     //TODO functionality for updating user\n     \n     //mapping and variables\n      address[] public users;\n      mapping (address => User) internal userIdMap;\n      \n      //events\n      event LogNewUserEvent  (address indexed _userAddress, string _username , string _type, uint _balance,uint256 _createdAt);\n    //   event Transaction(address _from, address _to, bytes32 _assetIdFrom ,bytes32 _assetIdTo ,uint _quantity, uint _amount,uint256 _updatedAt);\n     \n      constructor(string _name) public {\n           enums.addToEnumMapping();\n           enums.createEnumMapping();\n           User memory user = User(msg.sender,_name,Enums.getAdminOwnerType(),balanceOf(msg.sender),true,now,now);\n           storeUser(msg.sender,user);\n       }\n      \n      //modifiers\n      modifier isExisting(address _address) {\n          require(memberAllowed(_address), \"User does not exist\");\n          _;\n      }\n\n      modifier isSupplier(address _address) {\n          require(memberAllowed(_address), \"User does not exist\");\n          require(userIdMap[_address]._type == Enums.getSupplierOwnerType(), \"Only suppliers are allowed to add\");\n          _;\n      }\n      \n      modifier allowUpdateAsset(address _address) {\n          require(userIdMap[_address]._type == Enums.getProducerOwnerType(),\"Updating Asset not allowed for your role\");\n          _;\n      }\n\n      function addProducer(address _address,string _name) external {\n          createNewUser(_address,_name,Enums.getProducerOwnerType());\n      }\n\n      function addConsumer(address _address,string _name) external {\n          createNewUser(_address,_name,Enums.getConsumerOwnerType());\n      }\n\n      function addSupplier(address _address,string _name) external {\n          createNewUser(_address,_name,Enums.getSupplierOwnerType());\n      }\n      \n      function createNewUser(address _address,string _name,uint _type) internal {\n           transfer(_address,1000);//give 1000 tokens on signup\n           addMember(_address);\n           User memory user = User(_address,_name,_type,balanceOf(_address),true,now,now);\n           storeUser(_address,user);\n      }\n      \n      function storeUser(address _address, User _user) internal {\n           require(!userIdMap[_address]._isAlive,\"User already exist\");\n           users.push(_address);\n           userIdMap[_address] = _user;\n           emit LogNewUserEvent(_address,_user._username,enums.getStringOwnerType(_user._type),_user._balance,now);\n      }\n      \n      function getUserByAddress(address _address) external view isExisting(_address) returns(string,string,uint256)\n      {\n          User memory user = userIdMap[_address];\n          user._balance = balanceOf(_address);\n          return (user._username,enums.getStringOwnerType(user._type),user._balance);\n      }\n      \n    function getUsers() public view \n        returns(address[])\n        {\n      return users;\n        }\n     \n     function requestTokens(address _address,uint256 _value) public isExisting(_address)  {\n         transfer(_address,_value);\n     }\n    \n}",
  "sourcePath": "/home/zeus/Desktop/home/Ethereum/Seafoodcasestudy/Ethereum-nodejs/contracts/AccessControl.sol",
  "compiler": {
    "name": "solc",
    "version": "0.4.26+commit.4563c3fc.Emscripten.clang"
  },
  "schemaVersion": "3.0.18",
  "updatedAt": "2020-04-12T13:20:35.153Z",
  "devdoc": {
    "methods": {}
  },
  "userdoc": {
    "methods": {}
  }
}