{
  "contractName": "AssetTransfer",
  "abi": [
    {
      "constant": true,
      "inputs": [],
      "name": "getUsers",
      "outputs": [
        {
          "name": "",
          "type": "address[]"
        }
      ],
      "payable": false,
      "stateMutability": "view",
      "type": "function"
    },
    {
      "constant": false,
      "inputs": [
        {
          "name": "_spender",
          "type": "address"
        },
        {
          "name": "_value",
          "type": "uint256"
        }
      ],
      "name": "approve",
      "outputs": [
        {
          "name": "",
          "type": "bool"
        }
      ],
      "payable": false,
      "stateMutability": "nonpayable",
      "type": "function"
    },
    {
      "constant": false,
      "inputs": [
        {
          "name": "_address",
          "type": "address"
        }
      ],
      "name": "removeMember",
      "outputs": [],
      "payable": false,
      "stateMutability": "nonpayable",
      "type": "function"
    },
    {
      "constant": false,
      "inputs": [
        {
          "name": "_address",
          "type": "address"
        },
        {
          "name": "_name",
          "type": "string"
        }
      ],
      "name": "addSupplier",
      "outputs": [],
      "payable": false,
      "stateMutability": "nonpayable",
      "type": "function"
    },
    {
      "constant": false,
      "inputs": [
        {
          "name": "_address",
          "type": "address"
        },
        {
          "name": "_name",
          "type": "string"
        }
      ],
      "name": "addConsumer",
      "outputs": [],
      "payable": false,
      "stateMutability": "nonpayable",
      "type": "function"
    },
    {
      "constant": false,
      "inputs": [
        {
          "name": "_from",
          "type": "address"
        },
        {
          "name": "_to",
          "type": "address"
        },
        {
          "name": "_value",
          "type": "uint256"
        }
      ],
      "name": "transferFrom",
      "outputs": [
        {
          "name": "",
          "type": "bool"
        }
      ],
      "payable": false,
      "stateMutability": "nonpayable",
      "type": "function"
    },
    {
      "constant": false,
      "inputs": [
        {
          "name": "_address",
          "type": "address"
        },
        {
          "name": "_name",
          "type": "string"
        }
      ],
      "name": "addProducer",
      "outputs": [],
      "payable": false,
      "stateMutability": "nonpayable",
      "type": "function"
    },
    {
      "constant": true,
      "inputs": [
        {
          "name": "",
          "type": "uint256"
        }
      ],
      "name": "users",
      "outputs": [
        {
          "name": "",
          "type": "address"
        }
      ],
      "payable": false,
      "stateMutability": "view",
      "type": "function"
    },
    {
      "constant": true,
      "inputs": [
        {
          "name": "_id",
          "type": "bytes32"
        }
      ],
      "name": "getAssetById",
      "outputs": [
        {
          "name": "",
          "type": "address"
        },
        {
          "name": "",
          "type": "bytes32"
        },
        {
          "name": "",
          "type": "string"
        },
        {
          "name": "",
          "type": "uint256"
        },
        {
          "name": "",
          "type": "uint256"
        },
        {
          "name": "",
          "type": "bytes32"
        },
        {
          "name": "",
          "type": "string"
        },
        {
          "name": "",
          "type": "string"
        },
        {
          "name": "",
          "type": "uint256"
        },
        {
          "name": "",
          "type": "uint256"
        }
      ],
      "payable": false,
      "stateMutability": "view",
      "type": "function"
    },
    {
      "constant": false,
      "inputs": [],
      "name": "kill",
      "outputs": [],
      "payable": false,
      "stateMutability": "nonpayable",
      "type": "function"
    },
    {
      "constant": true,
      "inputs": [
        {
          "name": "_address",
          "type": "address"
        }
      ],
      "name": "memberAllowed",
      "outputs": [
        {
          "name": "",
          "type": "bool"
        }
      ],
      "payable": false,
      "stateMutability": "view",
      "type": "function"
    },
    {
      "constant": true,
      "inputs": [
        {
          "name": "_address",
          "type": "address"
        }
      ],
      "name": "ownerAllowed",
      "outputs": [
        {
          "name": "",
          "type": "bool"
        }
      ],
      "payable": false,
      "stateMutability": "view",
      "type": "function"
    },
    {
      "constant": true,
      "inputs": [
        {
          "name": "_address",
          "type": "address"
        }
      ],
      "name": "getUserByAddress",
      "outputs": [
        {
          "name": "",
          "type": "string"
        },
        {
          "name": "",
          "type": "string"
        },
        {
          "name": "",
          "type": "uint256"
        }
      ],
      "payable": false,
      "stateMutability": "view",
      "type": "function"
    },
    {
      "constant": true,
      "inputs": [
        {
          "name": "_owner",
          "type": "address"
        }
      ],
      "name": "balanceOf",
      "outputs": [
        {
          "name": "",
          "type": "uint256"
        }
      ],
      "payable": false,
      "stateMutability": "view",
      "type": "function"
    },
    {
      "constant": true,
      "inputs": [
        {
          "name": "_assetId",
          "type": "bytes32"
        }
      ],
      "name": "getAssetOwners",
      "outputs": [
        {
          "name": "",
          "type": "address[]"
        }
      ],
      "payable": false,
      "stateMutability": "view",
      "type": "function"
    },
    {
      "constant": false,
      "inputs": [
        {
          "name": "_address",
          "type": "address"
        },
        {
          "name": "_name",
          "type": "string"
        },
        {
          "name": "_value",
          "type": "uint256"
        },
        {
          "name": "_quantity",
          "type": "uint256"
        }
      ],
      "name": "createAsset",
      "outputs": [],
      "payable": false,
      "stateMutability": "nonpayable",
      "type": "function"
    },
    {
      "constant": true,
      "inputs": [],
      "name": "owner",
      "outputs": [
        {
          "name": "",
          "type": "address"
        }
      ],
      "payable": false,
      "stateMutability": "view",
      "type": "function"
    },
    {
      "constant": false,
      "inputs": [
        {
          "name": "_amount",
          "type": "uint256"
        }
      ],
      "name": "mint",
      "outputs": [],
      "payable": false,
      "stateMutability": "nonpayable",
      "type": "function"
    },
    {
      "constant": false,
      "inputs": [
        {
          "name": "_from",
          "type": "address"
        },
        {
          "name": "_to",
          "type": "address"
        },
        {
          "name": "_value",
          "type": "uint256"
        }
      ],
      "name": "transferTokens",
      "outputs": [],
      "payable": false,
      "stateMutability": "nonpayable",
      "type": "function"
    },
    {
      "constant": false,
      "inputs": [
        {
          "name": "_to",
          "type": "address"
        },
        {
          "name": "_value",
          "type": "uint256"
        }
      ],
      "name": "transfer",
      "outputs": [
        {
          "name": "",
          "type": "bool"
        }
      ],
      "payable": false,
      "stateMutability": "nonpayable",
      "type": "function"
    },
    {
      "constant": false,
      "inputs": [
        {
          "name": "_address",
          "type": "address"
        },
        {
          "name": "_value",
          "type": "uint256"
        }
      ],
      "name": "requestTokens",
      "outputs": [],
      "payable": false,
      "stateMutability": "nonpayable",
      "type": "function"
    },
    {
      "constant": true,
      "inputs": [
        {
          "name": "_address",
          "type": "address"
        }
      ],
      "name": "getAssetIdsByAddress",
      "outputs": [
        {
          "name": "",
          "type": "bytes32[]"
        }
      ],
      "payable": false,
      "stateMutability": "view",
      "type": "function"
    },
    {
      "constant": false,
      "inputs": [
        {
          "name": "_address",
          "type": "address"
        },
        {
          "name": "_id",
          "type": "bytes32"
        },
        {
          "name": "_value",
          "type": "uint256"
        },
        {
          "name": "_quantity",
          "type": "uint256"
        }
      ],
      "name": "editAsset",
      "outputs": [],
      "payable": false,
      "stateMutability": "nonpayable",
      "type": "function"
    },
    {
      "constant": false,
      "inputs": [
        {
          "name": "_address",
          "type": "address"
        }
      ],
      "name": "addMember",
      "outputs": [],
      "payable": false,
      "stateMutability": "nonpayable",
      "type": "function"
    },
    {
      "constant": true,
      "inputs": [],
      "name": "tokenDetails",
      "outputs": [
        {
          "name": "",
          "type": "string"
        },
        {
          "name": "",
          "type": "string"
        },
        {
          "name": "",
          "type": "uint8"
        },
        {
          "name": "",
          "type": "uint256"
        }
      ],
      "payable": false,
      "stateMutability": "view",
      "type": "function"
    },
    {
      "constant": true,
      "inputs": [
        {
          "name": "_owner",
          "type": "address"
        },
        {
          "name": "_spender",
          "type": "address"
        }
      ],
      "name": "allowance",
      "outputs": [
        {
          "name": "",
          "type": "uint256"
        }
      ],
      "payable": false,
      "stateMutability": "view",
      "type": "function"
    },
    {
      "constant": false,
      "inputs": [
        {
          "name": "newOwner",
          "type": "address"
        }
      ],
      "name": "transferOwnership",
      "outputs": [],
      "payable": false,
      "stateMutability": "nonpayable",
      "type": "function"
    },
    {
      "inputs": [
        {
          "name": "_name",
          "type": "string"
        },
        {
          "name": "_telemetryAddress",
          "type": "address"
        }
      ],
      "payable": false,
      "stateMutability": "nonpayable",
      "type": "constructor"
    },
    {
      "anonymous": false,
      "inputs": [
        {
          "indexed": true,
          "name": "_address",
          "type": "address"
        },
        {
          "indexed": false,
          "name": "_id",
          "type": "bytes32"
        },
        {
          "indexed": false,
          "name": "_name",
          "type": "string"
        },
        {
          "indexed": false,
          "name": "_value",
          "type": "uint256"
        },
        {
          "indexed": false,
          "name": "_quantity",
          "type": "uint256"
        },
        {
          "indexed": false,
          "name": "_createdAt",
          "type": "uint256"
        }
      ],
      "name": "LogNewAssetEvent",
      "type": "event"
    },
    {
      "anonymous": false,
      "inputs": [
        {
          "indexed": true,
          "name": "_userAddress",
          "type": "address"
        },
        {
          "indexed": false,
          "name": "_id",
          "type": "bytes32"
        },
        {
          "indexed": false,
          "name": "_name",
          "type": "string"
        },
        {
          "indexed": false,
          "name": "_value",
          "type": "uint256"
        },
        {
          "indexed": false,
          "name": "_quantity",
          "type": "uint256"
        },
        {
          "indexed": false,
          "name": "_updatedAt",
          "type": "uint256"
        }
      ],
      "name": "LogUpdateAssetEvent",
      "type": "event"
    },
    {
      "anonymous": false,
      "inputs": [
        {
          "indexed": true,
          "name": "_to",
          "type": "address"
        },
        {
          "indexed": true,
          "name": "_from",
          "type": "address"
        },
        {
          "indexed": false,
          "name": "_id",
          "type": "bytes32"
        },
        {
          "indexed": false,
          "name": "_name",
          "type": "string"
        },
        {
          "indexed": false,
          "name": "_value",
          "type": "uint256"
        },
        {
          "indexed": false,
          "name": "_quantity",
          "type": "uint256"
        },
        {
          "indexed": false,
          "name": "_timestamp",
          "type": "uint256"
        }
      ],
      "name": "LogTransferAssetEvent",
      "type": "event"
    },
    {
      "anonymous": false,
      "inputs": [
        {
          "indexed": false,
          "name": "_supplier",
          "type": "address"
        },
        {
          "indexed": false,
          "name": "_transactionId",
          "type": "bytes32"
        },
        {
          "indexed": false,
          "name": "_status",
          "type": "string"
        },
        {
          "indexed": false,
          "name": "_timestamp",
          "type": "uint256"
        }
      ],
      "name": "LogSupplierSensorAlert",
      "type": "event"
    },
    {
      "anonymous": false,
      "inputs": [
        {
          "indexed": false,
          "name": "_transactionId",
          "type": "bytes32"
        },
        {
          "indexed": false,
          "name": "_status",
          "type": "string"
        },
        {
          "indexed": false,
          "name": "_timestamp",
          "type": "uint256"
        }
      ],
      "name": "LogTransactionUpdateEvent",
      "type": "event"
    },
    {
      "anonymous": false,
      "inputs": [
        {
          "indexed": true,
          "name": "_userAddress",
          "type": "address"
        },
        {
          "indexed": false,
          "name": "_username",
          "type": "string"
        },
        {
          "indexed": false,
          "name": "_type",
          "type": "string"
        },
        {
          "indexed": false,
          "name": "_balance",
          "type": "uint256"
        },
        {
          "indexed": false,
          "name": "_createdAt",
          "type": "uint256"
        }
      ],
      "name": "LogNewUserEvent",
      "type": "event"
    },
    {
      "anonymous": false,
      "inputs": [
        {
          "indexed": false,
          "name": "_address",
          "type": "address"
        },
        {
          "indexed": false,
          "name": "_value",
          "type": "uint256"
        }
      ],
      "name": "LogLockedFundsEvent",
      "type": "event"
    },
    {
      "anonymous": false,
      "inputs": [
        {
          "indexed": false,
          "name": "_address",
          "type": "address"
        },
        {
          "indexed": false,
          "name": "_value",
          "type": "uint256"
        }
      ],
      "name": "LogReleasedFundsEvent",
      "type": "event"
    },
    {
      "anonymous": false,
      "inputs": [
        {
          "indexed": true,
          "name": "from",
          "type": "address"
        },
        {
          "indexed": true,
          "name": "to",
          "type": "address"
        },
        {
          "indexed": false,
          "name": "value",
          "type": "uint256"
        }
      ],
      "name": "Transfer",
      "type": "event"
    },
    {
      "anonymous": false,
      "inputs": [
        {
          "indexed": true,
          "name": "owner",
          "type": "address"
        },
        {
          "indexed": true,
          "name": "spender",
          "type": "address"
        },
        {
          "indexed": false,
          "name": "value",
          "type": "uint256"
        }
      ],
      "name": "Approval",
      "type": "event"
    },
    {
      "anonymous": false,
      "inputs": [
        {
          "indexed": true,
          "name": "previousOwner",
          "type": "address"
        },
        {
          "indexed": true,
          "name": "newOwner",
          "type": "address"
        }
      ],
      "name": "OwnershipTransferred",
      "type": "event"
    },
    {
      "anonymous": false,
      "inputs": [
        {
          "indexed": true,
          "name": "account",
          "type": "address"
        }
      ],
      "name": "MemberAdded",
      "type": "event"
    },
    {
      "anonymous": false,
      "inputs": [
        {
          "indexed": true,
          "name": "account",
          "type": "address"
        }
      ],
      "name": "MemberRemoved",
      "type": "event"
    },
    {
      "constant": false,
      "inputs": [
        {
          "name": "_supplier",
          "type": "address"
        },
        {
          "name": "_transactionId",
          "type": "bytes32"
        },
        {
          "name": "_sensorId",
          "type": "bytes32"
        }
      ],
      "name": "updateTransactionSensorId",
      "outputs": [],
      "payable": false,
      "stateMutability": "nonpayable",
      "type": "function"
    },
    {
      "constant": false,
      "inputs": [
        {
          "name": "_supplier",
          "type": "address"
        },
        {
          "name": "_transactionId",
          "type": "bytes32"
        }
      ],
      "name": "updateTransactionPickUp",
      "outputs": [],
      "payable": false,
      "stateMutability": "nonpayable",
      "type": "function"
    },
    {
      "constant": false,
      "inputs": [
        {
          "name": "_supplier",
          "type": "address"
        },
        {
          "name": "_transactionId",
          "type": "bytes32"
        }
      ],
      "name": "updateTransactionCompleted",
      "outputs": [],
      "payable": false,
      "stateMutability": "nonpayable",
      "type": "function"
    },
    {
      "constant": false,
      "inputs": [
        {
          "name": "_from",
          "type": "address"
        },
        {
          "name": "_to",
          "type": "address"
        },
        {
          "name": "_supplier",
          "type": "address"
        },
        {
          "name": "_id",
          "type": "bytes32"
        },
        {
          "name": "_quantity",
          "type": "uint256"
        },
        {
          "name": "_value",
          "type": "uint256"
        }
      ],
      "name": "transferAsset",
      "outputs": [
        {
          "name": "",
          "type": "bool"
        }
      ],
      "payable": false,
      "stateMutability": "nonpayable",
      "type": "function"
    },
    {
      "constant": false,
      "inputs": [
        {
          "name": "_address",
          "type": "address"
        },
        {
          "name": "_transactionId",
          "type": "bytes32"
        }
      ],
      "name": "cancelTransaction",
      "outputs": [],
      "payable": false,
      "stateMutability": "nonpayable",
      "type": "function"
    },
    {
      "constant": true,
      "inputs": [
        {
          "name": "_address",
          "type": "address"
        }
      ],
      "name": "getTransactionIdsByAddress",
      "outputs": [
        {
          "name": "",
          "type": "bytes32[]"
        }
      ],
      "payable": false,
      "stateMutability": "view",
      "type": "function"
    },
    {
      "constant": true,
      "inputs": [
        {
          "name": "_transactionId",
          "type": "bytes32"
        }
      ],
      "name": "getTransactionById",
      "outputs": [
        {
          "name": "",
          "type": "bytes32"
        },
        {
          "name": "",
          "type": "string"
        },
        {
          "name": "",
          "type": "address"
        },
        {
          "name": "",
          "type": "address"
        },
        {
          "name": "",
          "type": "address"
        },
        {
          "name": "",
          "type": "bytes32"
        },
        {
          "name": "",
          "type": "bytes32"
        },
        {
          "name": "",
          "type": "string"
        },
        {
          "name": "",
          "type": "uint256"
        },
        {
          "name": "",
          "type": "uint256"
        }
      ],
      "payable": false,
      "stateMutability": "view",
      "type": "function"
    }
  ],
  "bytecode": "0x60806040523480156200001157600080fd5b506040516200540938038062005409833981016040528051602082015191019081806200003d62000b16565b60008054600160a060020a031916339081179091556200006e9060019064010000000062003dcc6200023382021704565b6040805180820190915260098082527f46435420546f6b656e00000000000000000000000000000000000000000000006020909201918252620000b49160069162000b5f565b506040805180820190915260038082527f46435400000000000000000000000000000000000000000000000000000000006020909201918252620000fb9160079162000b5f565b506008805460ff1916600a1790556402540be4006005819055336000818152600260209081526040808320859055805194855251929391927fddf252ad1be2c89b69c2b068fc378daa952ba7f163c4a11628f55a4df523b3ef9281900390910190a36200017760096401000000006200420b6200025882021704565b620001916009640100000000620046126200067782021704565b6040805160e08101825233815260208101849052908101620001c064010000000062004744620007b082021704565b8152602001620001d933640100000000620007b6810204565b81526001602082015242604082018190526060909101529050620002073382640100000000620007d1810204565b505060138054600160a060020a031916600160a060020a0393909316929092179091555062000c019050565b600160a060020a0316600090815260209190915260409020805460ff19166001179055565b604080518082018252600981527f415641494c41424c45000000000000000000000000000000000000000000000060208083019182526002600090815260018601909152929092209051620002ae929062000b5f565b50604080518082018252600a81527f4f4e5f5448455f574159000000000000000000000000000000000000000000006020808301918252600460009081526001860190915292909220905162000305929062000b5f565b50604080518082018252600981527f434f4d504c455445440000000000000000000000000000000000000000000000602080830191825260086000908152600186019091529290922090516200035c929062000b5f565b50604080518082018252600981527f44454c495645524544000000000000000000000000000000000000000000000060208083019182526006600090815260018601909152929092209051620003b3929062000b5f565b50604080518082018252600781527f50454e44494e47000000000000000000000000000000000000000000000000006020808301918252600a6000908152600186019091529290922090516200040a929062000b5f565b50604080518082018252600781527f53554343455353000000000000000000000000000000000000000000000000006020808301918252600b60009081526001860190915292909220905162000461929062000b5f565b50604080518082018252600481527f44454144000000000000000000000000000000000000000000000000000000006020808301918252600080805260018601909152929092209051620004b6929062000b5f565b50604080518082018252600581527f414c4956450000000000000000000000000000000000000000000000000000006020808301918252600160008181529086019091529290922090516200050c929062000b5f565b50604080518082018252600b81527f544f5f42455f41444445440000000000000000000000000000000000000000006020808301918252600360009081526001860190915292909220905162000563929062000b5f565b50604080518082018252600b81527f494e5f50524f475245535300000000000000000000000000000000000000000060208083019182526007600090815260018601909152929092209051620005ba929062000b5f565b50604080518082018252600981527f5049434b45445f555000000000000000000000000000000000000000000000006020808301918252600560009081526001860190915292909220905162000611929062000b5f565b506040805180820190915260098082527f43414e43454c4c45440000000000000000000000000000000000000000000000602083015260018301906000905b815260200190815260200160002090805190602001906200067392919062000b5f565b5050565b604080518082018252600581527f41444d494e0000000000000000000000000000000000000000000000000000006020808301918252600080805290859052929092209051620006c8929062000b5f565b50604080518082018252600881527f50524f4455434552000000000000000000000000000000000000000000000000602080830191825260016000908152908590529290922090516200071c929062000b5f565b50604080518082018252600881527f434f4e53554d45520000000000000000000000000000000000000000000000006020808301918252600260009081529085905292909220905162000770929062000b5f565b5060408051808201909152600881527f535550504c4945520000000000000000000000000000000000000000000000006020820152816000600362000650565b60005b90565b600160a060020a031660009081526002602052604090205490565b600160a060020a0382166000908152600c602052604090206004015460ff16156200085d57604080517f08c379a000000000000000000000000000000000000000000000000000000000815260206004820152601260248201527f5573657220616c72656164792065786973740000000000000000000000000000604482015290519081900360640190fd5b600b805460018181019092557f0175b7a638427703f0dbe7bb9bbf987a2551717b34e79f33b5b1008d1fa01db9018054600160a060020a03808616600160a060020a031992831681179093556000928352600c602090815260409093208551815492169190921617815583820151805185949293620008e193850192019062000b5f565b50604082810151600283015560608301516003830155608083015160048301805460ff191691151591909117905560a0830151600583015560c090920151600690910155602082015190820151600160a060020a038416917fc847e6f60ca9d046e82cc9869608ea59d7b79d63d9ad3f3fdc9fa994a381596391620009779060099064010000000062000a7281026200325b1704565b846060015142604051808060200180602001858152602001848152602001838103835287818151815260200191508051906020019080838360005b83811015620009cc578181015183820152602001620009b2565b50505050905090810190601f168015620009fa5780820380516001836020036101000a031916815260200191505b50838103825286518152865160209182019188019080838360005b8381101562000a2f57818101518382015260200162000a15565b50505050905090810190601f16801562000a5d5780820380516001836020036101000a031916815260200191505b50965050505050505060405180910390a25050565b6000818152602083815260409182902080548351601f600260001961010060018616150201909316929092049182018490048402810184019094528084526060939283018282801562000b095780601f1062000add5761010080835404028352916020019162000b09565b820191906000526020600020905b81548152906001019060200180831162000aeb57829003601f168201915b5050505050905092915050565b60e0604051908101604052806000600160a060020a0316815260200160608152602001600081526020016000815260200160001515815260200160008152602001600081525090565b828054600181600116156101000203166002900490600052602060002090601f016020900481019282601f1062000ba257805160ff191683800117855562000bd2565b8280016001018555821562000bd2579182015b8281111562000bd257825182559160200191906001019062000bb5565b5062000be092915062000be4565b5090565b620007b391905b8082111562000be0576000815560010162000beb565b6147f88062000c116000396000f3006080604052600436106101915763ffffffff60e060020a600035041662ce8e3e8114610196578063095ea7b3146101fb5780630b1ca49a146102335780631c933a3e14610256578063227cca091461028357806323b872dd146102b0578063274f97c6146102da578063365b98b214610307578063418325671461033b57806341c0e1b5146104de578063471dc28d146104f35780635d99f0cb1461051457806369c212f61461053557806370a082311461063b5780637191380b1461066e57806371c3e7561461069257806381aa7bc1146106aa5780638da5cb5b146106dd5780639306317f146106f2578063a0712d6814610713578063a64b6e5f1461072b578063a890b7b414610755578063a9059cbb1461089c578063af421564146108c0578063b5dfd735146108e4578063b87eb14f14610905578063b930eb941461093b578063c2693c2514610962578063c58a5b0e14610986578063ca6d56dc146109b0578063d6abe110146109d1578063dd62ed3e14610ad8578063f2fde38b14610aff578063f334b3cc14610b20575b600080fd5b3480156101a257600080fd5b506101ab610b44565b60408051602080825283518183015283519192839290830191858101910280838360005b838110156101e75781810151838201526020016101cf565b505050509050019250505060405180910390f35b34801561020757600080fd5b5061021f600160a060020a0360043516602435610ba7565b604080519115158252519081900360200190f35b34801561023f57600080fd5b50610254600160a060020a0360043516610c0d565b005b34801561026257600080fd5b5061025460048035600160a060020a03169060248035908101910135610c6c565b34801561028f57600080fd5b5061025460048035600160a060020a03169060248035908101910135610cb4565b3480156102bc57600080fd5b5061021f600160a060020a0360043581169060243516604435610cf2565b3480156102e657600080fd5b5061025460048035600160a060020a03169060248035908101910135610e57565b34801561031357600080fd5b5061031f600435610e95565b60408051600160a060020a039092168252519081900360200190f35b34801561034757600080fd5b50610353600435610ebd565b60408051600160a060020a038c16815260208082018c9052606082018a90526080820189905260a08201889052610100820185905261012082018490526101409282018381528b51938301939093528a5191929160c084019160e08501916101608601918e019080838360005b838110156103d85781810151838201526020016103c0565b50505050905090810190601f1680156104055780820380516001836020036101000a031916815260200191505b5084810383528851815288516020918201918a019080838360005b83811015610438578181015183820152602001610420565b50505050905090810190601f1680156104655780820380516001836020036101000a031916815260200191505b50848103825287518152875160209182019189019080838360005b83811015610498578181015183820152602001610480565b50505050905090810190601f1680156104c55780820380516001836020036101000a031916815260200191505b509d505050505050505050505050505060405180910390f35b3480156104ea57600080fd5b50610254611175565b3480156104ff57600080fd5b5061021f600160a060020a036004351661119a565b34801561052057600080fd5b5061021f600160a060020a03600435166111b3565b34801561054157600080fd5b50610556600160a060020a03600435166111f0565b604051808060200180602001848152602001838103835286818151815260200191508051906020019080838360005b8381101561059d578181015183820152602001610585565b50505050905090810190601f1680156105ca5780820380516001836020036101000a031916815260200191505b50838103825285518152855160209182019187019080838360005b838110156105fd5781810151838201526020016105e5565b50505050905090810190601f16801561062a5780820380516001836020036101000a031916815260200191505b509550505050505060405180910390f35b34801561064757600080fd5b5061065c600160a060020a0360043516611387565b60408051918252519081900360200190f35b34801561067a57600080fd5b50610254600160a060020a03600435166024356113a2565b34801561069e57600080fd5b506101ab6004356116a6565b3480156106b657600080fd5b5061025460048035600160a060020a0316906024803590810191013560443560643561176f565b3480156106e957600080fd5b5061031f611aba565b3480156106fe57600080fd5b506101ab600160a060020a0360043516611ac9565b34801561071f57600080fd5b50610254600435611b84565b34801561073757600080fd5b50610254600160a060020a0360043581169060243516604435611c19565b34801561076157600080fd5b5061076d600435611d00565b604080518b8152600160a060020a03808b16928201929092528882166060820152908716608082015260a0810186905260c081018590526101008101839052610120810182905261014060208083018281528c51928401929092528b5160e0840191610160850191908e019080838360005b838110156107f75781810151838201526020016107df565b50505050905090810190601f1680156108245780820380516001836020036101000a031916815260200191505b50838103825286518152865160209182019188019080838360005b8381101561085757818101518382015260200161083f565b50505050905090810190601f1680156108845780820380516001836020036101000a031916815260200191505b509c5050505050505050505050505060405180910390f35b3480156108a857600080fd5b5061021f600160a060020a0360043516602435611efe565b3480156108cc57600080fd5b50610254600160a060020a0360043516602435612017565b3480156108f057600080fd5b506101ab600160a060020a0360043516612075565b34801561091157600080fd5b5061021f600160a060020a036004358116906024358116906044351660643560843560a43561212f565b34801561094757600080fd5b50610254600160a060020a0360043516602435604435612620565b34801561096e57600080fd5b50610254600160a060020a03600435166024356128c7565b34801561099257600080fd5b50610254600160a060020a0360043516602435604435606435612aff565b3480156109bc57600080fd5b50610254600160a060020a0360043516612c1f565b3480156109dd57600080fd5b506109e6612c7e565b6040518080602001806020018560ff1660ff168152602001848152602001838103835287818151815260200191508051906020019080838360005b83811015610a39578181015183820152602001610a21565b50505050905090810190601f168015610a665780820380516001836020036101000a031916815260200191505b50838103825286518152865160209182019188019080838360005b83811015610a99578181015183820152602001610a81565b50505050905090810190601f168015610ac65780820380516001836020036101000a031916815260200191505b50965050505050505060405180910390f35b348015610ae457600080fd5b5061065c600160a060020a0360043581169060243516612dc4565b348015610b0b57600080fd5b50610254600160a060020a0360043516612def565b348015610b2c57600080fd5b50610254600160a060020a0360043516602435612e76565b6060600b805480602002602001604051908101604052809291908181526020018280548015610b9c57602002820191906000526020600020905b8154600160a060020a03168152600190910190602001808311610b7e575b505050505090505b90565b336000818152600360209081526040808320600160a060020a038716808552908352818420869055815186815291519394909390927f8c5be1e5ebec7d5bd14f71427d1e84f3dd0314c0f7b2291e5b200ac8c7c3b925928290030190a350600192915050565b600054600160a060020a03163314610c2457600080fd5b610c3560018263ffffffff61309016565b604051600160a060020a038216907f6e76fb4c77256006d9c38ec7d82b45a8c8f3c27b1d6766fffc42dfb8de68449290600090a250565b610caf8383838080601f01602080910402602001604051908101604052809392919081815260200183838082843750610caa94506130b29350505050565b6130bc565b505050565b610caf8383838080601f01602080910402602001604051908101604052809392919081815260200183838082843750610caa945061312d9350505050565b600160a060020a038316600090815260026020526040812054821115610d1757600080fd5b600160a060020a0384166000908152600360209081526040808320338452909152902054821115610d4757600080fd5b600160a060020a0383161515610d5c57600080fd5b600160a060020a038416600090815260026020526040902054610d85908363ffffffff61313616565b600160a060020a038086166000908152600260205260408082209390935590851681522054610dba908363ffffffff61314816565b600160a060020a038085166000908152600260209081526040808320949094559187168152600382528281203382529091522054610dfe908363ffffffff61313616565b600160a060020a03808616600081815260036020908152604080832033845282529182902094909455805186815290519287169391926000805160206147ad833981519152929181900390910190a35060019392505050565b610caf8383838080601f01602080910402602001604051908101604052809392919081815260200183838082843750610caa94506131629350505050565b600b805482908110610ea357fe5b600091825260209091200154600160a060020a0316905081565b60008060606000806000606080600080610ed5614081565b8b610ee181600061316b565b158015610eed57508015155b1515610f31576040805160e560020a62461bcd028152602060048201526016602482015260008051602061478d833981519152604482015290519081900360640190fd5b60008d8152600e60209081526040918290208251610100818101855282548252600180840154600160a060020a031683860152600280850180548851601f9482161590950260001901169190910491820186900486028301860187528183529295939493860193919291830182828015610fec5780601f10610fc157610100808354040283529160200191610fec565b820191906000526020600020905b815481529060010190602001808311610fcf57829003601f168201915b505050505081526020016003820154815260200160048201548152602001600582015460001916600019168152602001600682015481526020016007820154815250509150816020015182600001518360400151846060015185608001518660a00151600c60008960200151600160a060020a0316600160a060020a031681526020019081526020016000206001016110bb600c60008b60200151600160a060020a0316600160a060020a0316815260200190815260200160002060020154600961325b90919063ffffffff16565b60c08a015160e08b01518354604080516020601f6002600019610100600188161502019095169490940493840181900481028201810190925282815291869183018282801561114b5780601f106111205761010080835404028352916020019161114b565b820191906000526020600020905b81548152906001019060200180831161112e57829003601f168201915b505050505093509b509b509b509b509b509b509b509b509b509b5050509193959799509193959799565b600054600160a060020a0316331461118c57600080fd5b600054600160a060020a0316ff5b60006111ad60018363ffffffff6132fb16565b92915050565b6000816111bf8161119a565b80156111cf57506111cf3361119a565b15156111da57600080fd5b5050600054600160a060020a0390811691161490565b60608060006111fd6140d6565b846112078161119a565b151561124b576040805160e560020a62461bcd028152602060048201526013602482015260008051602061476d833981519152604482015290519081900360640190fd5b600160a060020a038681166000908152600c6020908152604091829020825160e08101845281549094168452600180820180548551600261010094831615949094026000190190911692909204601f81018590048502830185019095528482529193858401939192918301828280156113055780601f106112da57610100808354040283529160200191611305565b820191906000526020600020905b8154815290600101906020018083116112e857829003601f168201915b50505091835250506002820154602082015260038201546040820152600482015460ff16151560608201526005820154608082015260069091015460a090910152915061135186611387565b6060830152602082015160408301516113729060099063ffffffff61325b16565b60608401519196509450925050509193909250565b600160a060020a031660009081526002602052604090205490565b6000826113ae8161119a565b15156113f2576040805160e560020a62461bcd028152602060048201526013602482015260008051602061476d833981519152604482015290519081900360640190fd5b6113fa6130b2565b600160a060020a0382166000908152600c602052604090206002015414611491576040805160e560020a62461bcd02815260206004820152602160248201527f4f6e6c7920737570706c696572732061726520616c6c6f77656420746f20616460448201527f6400000000000000000000000000000000000000000000000000000000000000606482015290519081900360840190fd5b600083815260126020526040902091506114b2836114ad61331a565b613323565b6013546006830154600160a060020a039091169063133e2a8c9086906114d661312d565b6040805160e060020a63ffffffff8716028152600160a060020a0390941660048501526024840192909252604483015251606480830192600092919082900301818387803b15801561152757600080fd5b505af115801561153b573d6000803e3d6000fd5b505050506002820154600783015461155c91600160a060020a0316906133ee565b6003820154600783015461157991600160a060020a0316906133ee565b6003820154600783015461159e91600160a060020a0316906064906005025b04611efe565b506007820154600280840154600160a060020a0316600090815260209190915260409020546115d29163ffffffff61313616565b600283810154600160a060020a0316600090815260209190915260409020558154600483015460008051602061474d833981519152919061161b9060099063ffffffff6134bf16565b6040805183815242918101829052606060208083018281528551928401929092528451608084019186019080838360005b8381101561166457818101518382015260200161164c565b50505050905090810190601f1680156116915780820380516001836020036101000a031916815260200191505b5094505050505060405180910390a150505050565b6060816116b481600061316b565b1580156116c057508015155b1515611704576040805160e560020a62461bcd028152602060048201526016602482015260008051602061478d833981519152604482015290519081900360640190fd5b6000838152600f60209081526040918290208054835181840281018401909452808452909183018282801561176257602002820191906000526020600020905b8154600160a060020a03168152600190910190602001808311611744575b5050505050915050919050565b6000611779614081565b86611782613162565b600160a060020a0382166000908152600c602052604090206002015414611819576040805160e560020a62461bcd02815260206004820152602860248201527f5570646174696e67204173736574206e6f7420616c6c6f77656420666f72207960448201527f6f757220726f6c65000000000000000000000000000000000000000000000000606482015290519081900360840190fd5b876118238161119a565b1515611867576040805160e560020a62461bcd028152602060048201526013602482015260008051602061476d833981519152604482015290519081900360640190fd5b6119478989898080601f01602080910402602001604051908101604052809392919081815260200183838082843750505050600160a060020a038e166000908152600c6020908152604091829020600190810180548451600293821615610100026000190190911692909204601f8101849004840283018401909452838252909450925083018282801561193c5780601f106119115761010080835404028352916020019161193c565b820191906000526020600020905b81548152906001019060200180831161191f57829003601f168201915b50505050504261352b565b935061010060405190810160405280856000191681526020018a600160a060020a0316815260200189898080601f016020809104026020016040519081016040528093929190818152602001838380828437505050928452505050602081018890526040810187905260006060820152426080820181905260a09091015292506119d08361368f565b8260200151600160a060020a03167fffc11ca9ffba641907900e673392b8ef1c382e91faedca550e6919b21d4767ba84600001518560400151866060015187608001514260405180866000191660001916815260200180602001858152602001848152602001838152602001828103825286818151815260200191508051906020019080838360005b83811015611a71578181015183820152602001611a59565b50505050905090810190601f168015611a9e5780820380516001836020036101000a031916815260200191505b50965050505050505060405180910390a2505050505050505050565b600054600160a060020a031681565b606081611ad58161119a565b1515611b19576040805160e560020a62461bcd028152602060048201526013602482015260008051602061476d833981519152604482015290519081900360640190fd5b600160a060020a0383166000908152601160209081526040918290208054835181840281018401909452808452909183018282801561176257602002820191906000526020600020905b81548152600190910190602001808311611b63575050505050915050919050565b600054600160a060020a03163314611b9b57600080fd5b331515611ba757600080fd5b600554611bba908263ffffffff61314816565b60055533600090815260026020526040902054611bdd908263ffffffff61314816565b3360008181526002602090815260408083209490945583518581529351929391926000805160206147ad8339815191529281900390910190a350565b82611c238161119a565b8015611c335750611c333361119a565b1515611c3e57600080fd5b838280611c4a83611387565b1015611c5557600080fd5b600160a060020a038616600090815260026020526040902054611c7e908563ffffffff61313616565b600160a060020a038088166000908152600260205260408082209390935590871681522054611cb3908563ffffffff61314816565b600160a060020a0380871660008181526002602090815260409182902094909455805188815290519193928a16926000805160206147ad83398151915292918290030190a3505050505050565b6000606060008060008060006060600080611d1961411f565b60608c611d2781600061316b565b158015611d3357508015155b1515611d77576040805160e560020a62461bcd028152602060048201526016602482015260008051602061478d833981519152604482015290519081900360640190fd5b60008e815260126020908152604080832081516101408101835281548152600180830154600160a060020a03908116838701526002808501548216848701526003850154909116606084015260048401546080840152600584015460a08401819052600685015460c0850152600785015460e08501526008850154610100808601919091526009909501546101208501528752600e865295849020860180548551601f9382161590950260001901169690960490810185900485028301850190935282825296509291830182828015611e915780601f10611e6657610100808354040283529160200191611e91565b820191906000526020600020905b815481529060010190602001808311611e7457829003601f168201915b505050505091508260000151611eb5846080015160096134bf90919063ffffffff16565b8460200151856040015186606001518760c001518860a00151888a60e001518b61012001519c509c509c509c509c509c509c509c509c509c505050509193959799509193959799565b33600090815260026020526040812054821115611f3f576040805160e560020a62461bcd028152602060048201526000602482015290519081900360640190fd5b600160a060020a0383161515611f79576040805160e560020a62461bcd028152602060048201526000602482015290519081900360640190fd5b33600090815260026020526040902054611f99908363ffffffff61313616565b3360009081526002602052604080822092909255600160a060020a03851681522054611fcb908363ffffffff61314816565b600160a060020a0384166000818152600260209081526040918290209390935580518581529051919233926000805160206147ad8339815191529281900390910190a350600192915050565b816120218161119a565b1515612065576040805160e560020a62461bcd028152602060048201526013602482015260008051602061476d833981519152604482015290519081900360640190fd5b61206f8383611efe565b50505050565b6060816120818161119a565b15156120c5576040805160e560020a62461bcd028152602060048201526013602482015260008051602061476d833981519152604482015290519081900360640190fd5b600160a060020a03831660009081526010602090815260409182902080548351818402810184019094528084529091830182828015611762576020028201919060005260206000209081548152600190910190602001808311611b63575050505050915050919050565b6000808461213e81600061316b565b15801561214a57508015155b151561218e576040805160e560020a62461bcd028152602060048201526016602482015260008051602061478d833981519152604482015290519081900360640190fd5b8886600160a060020a03821615156121f0576040805160e560020a62461bcd02815260206004820152600f60248201527f41646472657373206973207a65726f0000000000000000000000000000000000604482015290519081900360640190fd5b600160a060020a0382166000908152600d6020908152604080832084845290915290205460ff161515612293576040805160e560020a62461bcd02815260206004820152602c60248201527f54686973206173736574206973206e6f7420776974682074686520737065636960448201527f6669656420616464726573730000000000000000000000000000000000000000606482015290519081900360840190fd5b6000818152600e6020526040902060010154600160a060020a03838116911614612307576040805160e560020a62461bcd02815260206004820152601660248201527f596f7520617265206e6f7420617574686f72697a656400000000000000000000604482015290519081900360640190fd5b898688028061231583611387565b101561232057600080fd5b60008a8152600e6020526040902095506123498d6123448a8c63ffffffff6137ba16565b6137e5565b61235d8c6123448a8c63ffffffff6137ba16565b6123828b61234460026123768c8e63ffffffff6137ba16565b9063ffffffff6137ba16565b6123aa8a878f8f8f6123a58c600401548d600301546137ba90919063ffffffff16565b6138a7565b6123c78c8760000154886003015489600401548a60050154613c2a565b604080516101008181018352885482526001808a0154600160a060020a03166020808501919091526002808c0180548751601f9582161590960260001901169190910492830182900482028401820186528284526124b9958c949086019390928301828280156124785780601f1061244d57610100808354040283529160200191612478565b820191906000526020600020905b81548152906001019060200180831161245b57829003601f168201915b50505091835250506003820154602082015260048201546040820152600582015460608201526006820154608082015260079091015460a09091015261368f565b6000600d60008f600160a060020a0316600160a060020a0316815260200190815260200160002060008c6000191660001916815260200190815260200160002060006101000a81548160ff0219169083151502179055508c600160a060020a03168c600160a060020a03167f5c3321ad6e997da8dd3a13d0c8493df54ff562083c06a425bb73ff3b978910448c896002018a600301548b6004015442604051808660001916600019168152602001806020018581526020018481526020018381526020018281038252868181546001816001161561010002031660029004815260200191508054600181600116156101000203166002900480156125fe5780601f106125d3576101008083540402835291602001916125fe565b820191906000526020600020905b8154815290600101906020018083116125e157829003601f168201915b5050965050505050505060405180910390a35050505050509695505050505050565b60008161262e81600061316b565b15801561263a57508015155b151561267e576040805160e560020a62461bcd028152602060048201526016602482015260008051602061478d833981519152604482015290519081900360640190fd5b846126888161119a565b15156126cc576040805160e560020a62461bcd028152602060048201526013602482015260008051602061476d833981519152604482015290519081900360640190fd5b6126d46130b2565b600160a060020a0382166000908152600c60205260409020600201541461276b576040805160e560020a62461bcd02815260206004820152602160248201527f4f6e6c7920737570706c696572732061726520616c6c6f77656420746f20616460448201527f6400000000000000000000000000000000000000000000000000000000000000606482015290519081900360840190fd5b600085815260126020526040902060068101859055925061278a613db1565b60048401819055835460008051602061474d833981519152916127b59060099063ffffffff6134bf16565b6040805183815242918101829052606060208083018281528551928401929092528451608084019186019080838360005b838110156127fe5781810151838201526020016127e6565b50505050905090810190601f16801561282b5780820380516001836020036101000a031916815260200191505b5094505050505060405180910390a1601354604080517f899b061e00000000000000000000000000000000000000000000000000000000815260048101879052602481018890529051600160a060020a039092169163899b061e9160448082019260009290919082900301818387803b1580156128a757600080fd5b505af11580156128bb573d6000803e3d6000fd5b50505050505050505050565b6000816128d2613dba565b600082815260126020526040902060040154146128ee57600080fd5b836128f88161119a565b151561293c576040805160e560020a62461bcd028152602060048201526013602482015260008051602061476d833981519152604482015290519081900360640190fd5b60008481526012602052604090209250612958846114ad613dc3565b6006830154156129f0576013546006840154600160a060020a039091169063133e2a8c90879061298661312d565b6040805160e060020a63ffffffff8716028152600160a060020a0390941660048501526024840192909252604483015251606480830192600092919082900301818387803b1580156129d757600080fd5b505af11580156129eb573d6000803e3d6000fd5b505050505b60018301546007840154612a0d91600160a060020a0316906133ee565b60028301546007840154612a2a91600160a060020a0316906133ee565b60038301546007840154612a4a91600160a060020a0316906002026133ee565b60008051602061474d83398151915284612a73612a65613dc3565b60099063ffffffff6134bf16565b6040805183815242918101829052606060208083018281528551928401929092528451608084019186019080838360005b83811015612abc578181015183820152602001612aa4565b50505050905090810190601f168015612ae95780820380516001836020036101000a031916815260200191505b5094505050505060405180910390a15050505050565b600084612b0a613162565b600160a060020a0382166000908152600c602052604090206002015414612ba1576040805160e560020a62461bcd02815260206004820152602860248201527f5570646174696e67204173736574206e6f7420616c6c6f77656420666f72207960448201527f6f757220726f6c65000000000000000000000000000000000000000000000000606482015290519081900360840190fd5b85612bab8161119a565b1515612bef576040805160e560020a62461bcd028152602060048201526013602482015260008051602061476d833981519152604482015290519081900360640190fd5b6000868152600e602052604090206005810154909350612c16908890889088908890613c2a565b50505050505050565b600054600160a060020a03163314612c3657600080fd5b612c4760018263ffffffff613dcc16565b604051600160a060020a038216907fb251eb052afc73ffd02ffe85ad79990a8b3fed60d76dbc2fa2fdd7123dffd91490600090a250565b60085460055460068054604080516020601f6002600019600187161561010002019095169490940493840181900481028201810190925282815260609586956000958695909460079460ff90941693918691830182828015612d215780601f10612cf657610100808354040283529160200191612d21565b820191906000526020600020905b815481529060010190602001808311612d0457829003601f168201915b5050865460408051602060026001851615610100026000190190941693909304601f810184900484028201840190925281815295995088945092508401905082828015612daf5780601f10612d8457610100808354040283529160200191612daf565b820191906000526020600020905b815481529060010190602001808311612d9257829003601f168201915b50505050509250935093509350935090919293565b600160a060020a03918216600090815260036020908152604080832093909416825291909152205490565b600054600160a060020a03163314612e0657600080fd5b600160a060020a0381161515612e1b57600080fd5b6000805473ffffffffffffffffffffffffffffffffffffffff1916600160a060020a0383811691821780845560405192939116917f8be0079c531659141344cd1fd0a4f28419497f9722a3daafe3b4186f6b6457e09190a350565b600082612e828161119a565b1515612ec6576040805160e560020a62461bcd028152602060048201526013602482015260008051602061476d833981519152604482015290519081900360640190fd5b612ece6130b2565b600160a060020a0382166000908152600c602052604090206002015414612f65576040805160e560020a62461bcd02815260206004820152602160248201527f4f6e6c7920737570706c696572732061726520616c6c6f77656420746f20616460448201527f6400000000000000000000000000000000000000000000000000000000000000606482015290519081900360840190fd5b60008381526012602052604090209150612f81836114ad613df1565b6013546006830154600160a060020a039091169063133e2a8c908690612fa5613df1565b6040805160e060020a63ffffffff8716028152600160a060020a0390941660048501526024840192909252604483015251606480830192600092919082900301818387803b158015612ff657600080fd5b505af115801561300a573d6000803e3d6000fd5b505050506001820154600783015461302b91600160a060020a0316906133ee565b6003820154600783015461304891600160a060020a0316906133ee565b6003820154600783015461306b91600160a060020a031690606490600502611598565b506001820154600783015461308991600160a060020a031690611efe565b5050505050565b600160a060020a0316600090815260209190915260409020805460ff19169055565b600060035b905090565b6130c46140d6565b6130d0846103e8611efe565b506130da84612c1f565b60e06040519081016040528085600160a060020a0316815260200184815260200183815260200161310a86611387565b8152600160208201524260408201819052606090910152905061206f8482613dfa565b600060026130b7565b60008282111561314257fe5b50900390565b60008282018381101561315757fe5b8091505b5092915050565b600060016130b7565b604080516020808201849052825180830382018152918301928390528151600093918291908401908083835b602083106131b65780518252601f199092019160209182019101613197565b51815160209384036101000a6000190180199092169116179052604080519290940182900382208282018a90528451808403830181529285019485905282519096509194508392508401908083835b602083106132245780518252601f199092019160209182019101613205565b5181516020939093036101000a60001901801990911692169190911790526040519201829003909120939093149695505050505050565b6000818152602083815260409182902080548351601f60026000196101006001861615020190931692909204918201849004840281018401909452808452606093928301828280156132ee5780601f106132c3576101008083540402835291602001916132ee565b820191906000526020600020905b8154815290600101906020018083116132d157829003601f168201915b5050505050905092915050565b600160a060020a03166000908152602091909152604090205460ff1690565b600060066130b7565b60008281526012602052604090206004810182905542600980830191909155815460008051602061474d83398151915291613364908563ffffffff6134bf16565b6040805183815242918101829052606060208083018281528551928401929092528451608084019186019080838360005b838110156133ad578181015183820152602001613395565b50505050905090810190601f1680156133da5780820380516001836020036101000a031916815260200191505b5094505050505060405180910390a1505050565b600054600160a060020a0316331461340557600080fd5b600160a060020a03821660009081526004602052604090205461342e908263ffffffff61313616565b600160a060020a038316600090815260046020908152604080832093909355600290522054613463908263ffffffff61314816565b600160a060020a03831660008181526002602090815260409182902093909355805191825291810183905281517fb9247ba31876cf54c8a15e27f63c09c42bb50f55547f22a3d066a29ef69cf5e5929181900390910190a15050565b60008181526001838101602090815260409283902080548451600294821615610100026000190190911693909304601f810183900483028401830190945283835260609390918301828280156132ee5780601f106132c3576101008083540402835291602001916132ee565b6000846135378161119a565b801561354757506135473361119a565b151561355257600080fd5b858585856040516020018085600160a060020a0316600160a060020a03166c0100000000000000000000000002815260140184805190602001908083835b602083106135af5780518252601f199092019160209182019101613590565b51815160209384036101000a600019018019909216911617905286519190930192860191508083835b602083106135f75780518252601f1990920191602091820191016135d8565b51815160209384036101000a6000190180199092169116179052920193845250604080518085038152938201908190528351939650945084935085019190508083835b602083106136595780518252601f19909201916020918201910161363a565b5181516020939093036101000a600019018019909116921691909117905260405192018290039091209998505050505050505050565b60208181018051600160a060020a039081166000908152600d845260408082208651835285528082208054600160ff19909116811790915586518352600e865291819020865181559351918401805473ffffffffffffffffffffffffffffffffffffffff1916929093169190911790915583015180518493613718926002850192910190614173565b50606082015160038201556080820151600482015560a0820151600582015560c0820151600682015560e09091015160079091015580516000908152600f60209081526040808320828501805182546001808201855593875285872001805473ffffffffffffffffffffffffffffffffffffffff1916600160a060020a0392831617905590511684526010835290832093518454918201855593835291200155565b6000808315156137cd576000915061315b565b508282028284828115156137dd57fe5b041461315757fe5b8181806137f183611387565b10156137fc57600080fd5b600054600160a060020a0316331461381357600080fd5b600160a060020a03841660009081526004602090815260408083208690556002909152902054613849908463ffffffff61313616565b600160a060020a03851660008181526002602090815260409182902093909355805191825291810185905281517f41603710ed9580c053e9987a36d5e084ebac2e05f58ae7d0de531e84a9530f3c929181900390910190a150505050565b60006138b161411f565b60028088018054604080516020601f60001961010060018716150201909416959095049283018590048502810185019091528181526139bc9388939192908301828280156139405780601f1061391557610100808354040283529160200191613940565b820191906000526020600020905b81548152906001019060200180831161392357829003601f168201915b50505050600160a060020a0388166000908152600c6020908152604091829020600190810180548451600293821615610100026000190190911692909204601f8101849004840283018401909452838252909350919083018282801561193c5780601f106119115761010080835404028352916020019161193c565b9150610140604051908101604052808360001916815260200187600160a060020a0316815260200186600160a060020a0316815260200185600160a060020a03168152602001613a0a613dba565b8152602081018a90526000604082015260608101859052426080820181905260a09091015260c08101519091501515613b06577fdf5e915da46838276de9a563c8bc23bd8818b819ac66ed4ff5fe71bc5b4517968483613a6b612a65614078565b60408051600160a060020a0385168152602080820185905242606083018190526080938301848152855194840194909452845190939160a08401919086019080838360005b83811015613ac8578181015183820152602001613ab0565b50505050905090810190601f168015613af55780820380516001836020036101000a031916815260200191505b509550505050505060405180910390a15b600082815260126020908152604080832084518155848301516001808301805473ffffffffffffffffffffffffffffffffffffffff19908116600160a060020a03948516179091558785015160028501805483169185169190911790556060880151600385018054909216908416179055608087018051600485015560a088015160058086019190915560c0890151600686015560e0890151600786015561010089015160088601556101208901516009909501949094558a831687526011865284872080548084018255908852868820018990558b831687528487208054808401825590885286882001899055918c1686529285208054938401815585529290932001849055825191890182905551613c209190613323565b5050505050505050565b600085613c368161119a565b1515613c7a576040805160e560020a62461bcd028152602060048201526013602482015260008051602061476d833981519152604482015290519081900360640190fd5b6000868152600e6020908152604091829020600381018890556004810187905560018082018054600160a060020a038d1673ffffffffffffffffffffffffffffffffffffffff19909116811790915560058301889055825485518181529586018b9052606086018a9052426080870181905260a0958701868152600280870180549687161561010002600019019096160496880187905294985091957fafd42942a0c53a78c612a313396fa781b28b96152008176c868133162b7ea5349591948c938c939092919060c083019087908015613d965780601f10613d6b57610100808354040283529160200191613d96565b820191906000526020600020905b815481529060010190602001808311613d7957829003601f168201915b5050965050505050505060405180910390a250505050505050565b600060076130b7565b6000600a6130b7565b600060096130b7565b600160a060020a0316600090815260209190915260409020805460ff19166001179055565b600060056130b7565b600160a060020a0382166000908152600c602052604090206004015460ff1615613e6e576040805160e560020a62461bcd02815260206004820152601260248201527f5573657220616c72656164792065786973740000000000000000000000000000604482015290519081900360640190fd5b600b805460018181019092557f0175b7a638427703f0dbe7bb9bbf987a2551717b34e79f33b5b1008d1fa01db9018054600160a060020a0380861673ffffffffffffffffffffffffffffffffffffffff1992831681179093556000928352600c602090815260409093208551815492169190921617815583820151805185949293613efd938501920190614173565b50604082810151600283015560608301516003830155608083015160048301805460ff191691151591909117905560a0830151600583015560c090920151600690910155602082015190820151600160a060020a038416917fc847e6f60ca9d046e82cc9869608ea59d7b79d63d9ad3f3fdc9fa994a381596391613f839060099061325b565b846060015142604051808060200180602001858152602001848152602001838103835287818151815260200191508051906020019080838360005b83811015613fd6578181015183820152602001613fbe565b50505050905090810190601f1680156140035780820380516001836020036101000a031916815260200191505b50838103825286518152865160209182019188019080838360005b8381101561403657818101518382015260200161401e565b50505050905090810190601f1680156140635780820380516001836020036101000a031916815260200191505b50965050505050505060405180910390a25050565b600060036130b7565b61010060405190810160405280600080191681526020016000600160a060020a031681526020016060815260200160008152602001600081526020016000801916815260200160008152602001600081525090565b60e0604051908101604052806000600160a060020a0316815260200160608152602001600081526020016000815260200160001515815260200160008152602001600081525090565b6040805161014081018252600080825260208201819052918101829052606081018290526080810182905260a0810182905260c0810182905260e08101829052610100810182905261012081019190915290565b828054600181600116156101000203166002900490600052602060002090601f016020900481019282601f106141b457805160ff19168380011785556141e1565b828001600101855582156141e1579182015b828111156141e15782518255916020019190600101906141c6565b506141ed9291506141f1565b5090565b610ba491905b808211156141ed57600081556001016141f7565b604080518082018252600981527f415641494c41424c4500000000000000000000000000000000000000000000006020808301918252600260009081526001860190915292909220905161425f9290614173565b50604080518082018252600a81527f4f4e5f5448455f57415900000000000000000000000000000000000000000000602080830191825260046000908152600186019091529290922090516142b49290614173565b50604080518082018252600981527f434f4d504c455445440000000000000000000000000000000000000000000000602080830191825260086000908152600186019091529290922090516143099290614173565b50604080518082018252600981527f44454c49564552454400000000000000000000000000000000000000000000006020808301918252600660009081526001860190915292909220905161435e9290614173565b50604080518082018252600781527f50454e44494e47000000000000000000000000000000000000000000000000006020808301918252600a6000908152600186019091529290922090516143b39290614173565b50604080518082018252600781527f53554343455353000000000000000000000000000000000000000000000000006020808301918252600b6000908152600186019091529290922090516144089290614173565b50604080518082018252600481527f4445414400000000000000000000000000000000000000000000000000000000602080830191825260008080526001860190915292909220905161445b9290614173565b50604080518082018252600581527f414c4956450000000000000000000000000000000000000000000000000000006020808301918252600160008181529086019091529290922090516144af9290614173565b50604080518082018252600b81527f544f5f42455f4144444544000000000000000000000000000000000000000000602080830191825260036000908152600186019091529290922090516145049290614173565b50604080518082018252600b81527f494e5f50524f4752455353000000000000000000000000000000000000000000602080830191825260076000908152600186019091529290922090516145599290614173565b50604080518082018252600981527f5049434b45445f55500000000000000000000000000000000000000000000000602080830191825260056000908152600186019091529290922090516145ae9290614173565b506040805180820190915260098082527f43414e43454c4c45440000000000000000000000000000000000000000000000602083015260018301906000905b8152602001908152602001600020908051906020019061460e929190614173565b5050565b604080518082018252600581527f41444d494e00000000000000000000000000000000000000000000000000000060208083019182526000808052908590529290922090516146619290614173565b50604080518082018252600881527f50524f4455434552000000000000000000000000000000000000000000000000602080830191825260016000908152908590529290922090516146b39290614173565b50604080518082018252600881527f434f4e53554d4552000000000000000000000000000000000000000000000000602080830191825260026000908152908590529290922090516147059290614173565b5060408051808201909152600881527f535550504c494552000000000000000000000000000000000000000000000000602082015281600060036145ed565b6000806130b75600c51e93c04ee4a4a243e7a159d91bfa4cc84c7695578776a948ea54b760e52a2c5573657220646f6573206e6f742065786973740000000000000000000000000049642073686f756c64206e6f7420626520656d70747900000000000000000000ddf252ad1be2c89b69c2b068fc378daa952ba7f163c4a11628f55a4df523b3efa165627a7a72305820e0db7e4fbde6eed46047688ddc6c75cb079ff2d58122d9dd5c812515590c25890029",
  "source": "pragma solidity ^0.4.24;\n\nimport \"./AssetOwnership.sol\";\nimport \"./TelemetryCore.sol\";\n\ncontract AssetTransfer is AssetOwnership  {\n    \n    TelemetryCore internal telemetryCore;\n\n    constructor(string _name,address _telemetryAddress) AssetOwnership(_name) public {\n    //\n    telemetryCore = TelemetryCore(_telemetryAddress);    \n    }\n\n     function updateTransactionSensorId(address _supplier,bytes32 _transactionId,bytes32 _sensorId) external NotEmpty(_sensorId) isSupplier(_supplier) {\n        Transaction storage transaction = transactions[_transactionId];\n        //update sensor id\n        transaction._sensorId = _sensorId;\n        transaction._status = Enums.getInProgressStatus();\n        // updateTransactionInt(_transactionId,Enums.getInProgressStatus());\n        // if(transaction._sensorId == bytes32(0)) // TODO : Check this\n        emit  LogTransactionUpdateEvent(transaction._id,enums.getStringStatusType(transaction._status),now);\n        telemetryCore.updateSensorTransactionId(_sensorId,_transactionId);\n        // emit LogTransactionUpdateEvent (transaction._id , enums.getStringStatusType(transaction._status), now);\n    }\n\n    function updateTransactionPickUp(address _supplier,bytes32 _transactionId) external  isSupplier(_supplier) {\n        Transaction storage transaction = transactions[_transactionId];\n        updateTransactionInt(_transactionId,Enums.getPickedupStatus());\n        telemetryCore.updateSensor(_supplier,transaction._sensorId,Enums.getPickedupStatus());\n        releaseFunds(transaction._from,transaction._amount);\n        releaseFunds(transaction._supplier,transaction._amount);\n        transfer(transaction._supplier, (5*transaction._amount)/100);\n        transfer(transaction._from, transaction._amount);\n        // emit LogTransactionUpdateEvent (transaction._id , enums.getStringStatusType(transaction._status), now);\n    }\n\n    function updateTransactionCompleted(address _supplier,bytes32 _transactionId) external  isSupplier(_supplier) {\n        Transaction storage transaction = transactions[_transactionId];\n        updateTransactionInt(_transactionId,Enums.getDeliveredStatus());\n        telemetryCore.updateSensor(_supplier,transaction._sensorId,Enums.getAvailableStatus());\n        releaseFunds(transaction._to,transaction._amount);\n        releaseFunds(transaction._supplier,transaction._amount);\n        transfer(transaction._supplier, (5*transaction._amount)/100);\n        //TODO: check for balances\n        balances_[transaction._to] = balances_[transaction._to].sub(transaction._amount);\n        emit LogTransactionUpdateEvent (transaction._id ,enums.getStringStatusType(transaction._status), now);\n    }\n    \n    //TODO : supplier sensors check\n    //DONE : check value passed\n    function transferAsset(address _from,address _to,address _supplier,bytes32 _id,uint _quantity ,uint256 _value) external NotEmpty(_id) ownerOf(_from,_id) checkBalance(_to,_quantity*_value) returns(bool)\n    {\n            Asset storage asset = assets[_id];\n           //lock funds\n            lockFunds(_from,_value.mul(_quantity));\n            lockFunds(_to,_value.mul(_quantity));\n            lockFunds(_supplier,_value.mul(_quantity).mul(2));\n            updateTransaction(_id,asset,_from,_to,_supplier,asset._value.mul(asset._quantity));\n            // TODO update tracking id\n            updateAsset(_to,asset._id,asset._value,asset._quantity,asset._trackId);\n            addAssetToMap(asset);\n            userAssetIds[_from][_id] =false;\n            // emit LogDeleteAssetEvent(_from,getUserName(_from),assets[_id]._name,now);\n            emit LogTransferAssetEvent(_to,_from,_id,asset._name,asset._value,asset._quantity,now);\n    }   \n\n    function cancelTransaction(address _address,bytes32 _transactionId) external isTransactionPending(_transactionId) isExisting(_address) {\n            //revert evrything\n            Transaction storage transaction = transactions[_transactionId];\n            updateTransactionInt(_transactionId,Enums.getCancelledStatus());\n            if(transaction._sensorId != bytes32(0))\n                telemetryCore.updateSensor(_address,transaction._sensorId,Enums.getAvailableStatus());\n            // else {}\n            releaseFunds(transaction._from,transaction._amount);\n            releaseFunds(transaction._to,transaction._amount);\n            releaseFunds(transaction._supplier,transaction._amount*2);//\n            emit LogTransactionUpdateEvent (_transactionId , enums.getStringStatusType(Enums.getCancelledStatus()), now);\n    }\n\n    function updateTransaction(bytes32 _id,Asset storage _asset, address _from,address _to,address _supplier,uint _amount) internal {\n            bytes32 _Tid = createId(_supplier,_asset._name,userIdMap[_supplier]._username,now);//username should be changed to _from\n            // No sensor  added while transaction is created\n            Transaction memory transaction =  Transaction(_Tid,_from,_to,_supplier,Enums.getPendingStatus(),_id,bytes32(0),_amount,now,now);\n            //sensor  must be attached by supplier\n            if(transaction._sensorId == 0){\n            emit LogSupplierSensorAlert(_supplier,_Tid,enums.getStringStatusType(Enums.getToBeAddedStatus()),now);\n            } \n            // else{}; TODO\n\n            transactions[_Tid] = transaction;\n            //update transaction id for each user\n            userTransactions[_supplier].push(_Tid);\n            userTransactions[_to].push(_Tid);\n            userTransactions[_from].push(_Tid);\n            _asset._trackId = transaction._id;\n            updateTransactionInt(transaction._id,transaction._status);\n    }\n    \n    function updateTransactionInt(bytes32 _transactionId,uint _status) internal  {\n            Transaction storage transaction = transactions[_transactionId];\n            transaction._status = _status;\n            transaction._updatedAt = now;\n            emit  LogTransactionUpdateEvent(transaction._id,enums.getStringStatusType(transaction._status),now);\n    }\n\n    //TODO : supplier sensors check\n     function getTransactionIdsByAddress(address _address) view external  isExisting(_address) returns(bytes32[]) {\n        return userTransactions[_address];\n    }\n\n    function getTransactionById(bytes32 _transactionId) view public NotEmpty(_transactionId) returns(\n        bytes32,\n        string,\n        address,\n        address,\n        address,\n        bytes32,\n        bytes32,\n        string,\n        uint,\n        uint256\n    ) {\n        Transaction memory transaction = transactions[_transactionId];\n        string memory _name = assets[transaction._assetId]._name;\n        return (\n            transaction._id,\n            enums.getStringStatusType(transaction._status),\n            transaction._from,\n            transaction._to,\n            transaction._supplier,\n            transaction._sensorId,\n            transaction._assetId,\n            _name,\n            transaction._amount,\n            transaction._updatedAt\n        );\n    }\n\n }",
  "sourcePath": "/home/zeus/Desktop/home/Ethereum/Seafoodcasestudy/Ethereum-nodejs/contracts/AssetTransfer.sol",
  "compiler": {
    "name": "solc",
    "version": "0.4.26+commit.4563c3fc.Emscripten.clang"
  },
  "schemaVersion": "3.0.18",
  "updatedAt": "2020-04-13T12:44:14.248Z",
  "networkType": "ethereum",
  "devdoc": {
    "methods": {}
  },
  "userdoc": {
    "methods": {}
  }
}