{
  "contractName": "FCTToken",
  "abi": [
    {
      "constant": false,
      "inputs": [
        {
          "name": "_address",
          "type": "address"
        }
      ],
      "name": "removeMember",
      "outputs": [],
      "payable": false,
      "stateMutability": "nonpayable",
      "type": "function"
    },
    {
      "constant": false,
      "inputs": [],
      "name": "kill",
      "outputs": [],
      "payable": false,
      "stateMutability": "nonpayable",
      "type": "function"
    },
    {
      "constant": true,
      "inputs": [
        {
          "name": "_address",
          "type": "address"
        }
      ],
      "name": "memberAllowed",
      "outputs": [
        {
          "name": "",
          "type": "bool"
        }
      ],
      "payable": false,
      "stateMutability": "view",
      "type": "function"
    },
    {
      "constant": true,
      "inputs": [
        {
          "name": "_address",
          "type": "address"
        }
      ],
      "name": "ownerAllowed",
      "outputs": [
        {
          "name": "",
          "type": "bool"
        }
      ],
      "payable": false,
      "stateMutability": "view",
      "type": "function"
    },
    {
      "constant": true,
      "inputs": [],
      "name": "owner",
      "outputs": [
        {
          "name": "",
          "type": "address"
        }
      ],
      "payable": false,
      "stateMutability": "view",
      "type": "function"
    },
    {
      "constant": false,
      "inputs": [
        {
          "name": "_address",
          "type": "address"
        }
      ],
      "name": "addMember",
      "outputs": [],
      "payable": false,
      "stateMutability": "nonpayable",
      "type": "function"
    },
    {
      "constant": false,
      "inputs": [
        {
          "name": "newOwner",
          "type": "address"
        }
      ],
      "name": "transferOwnership",
      "outputs": [],
      "payable": false,
      "stateMutability": "nonpayable",
      "type": "function"
    },
    {
      "inputs": [],
      "payable": false,
      "stateMutability": "nonpayable",
      "type": "constructor"
    },
    {
      "anonymous": false,
      "inputs": [
        {
          "indexed": false,
          "name": "_address",
          "type": "address"
        },
        {
          "indexed": false,
          "name": "_value",
          "type": "uint256"
        }
      ],
      "name": "LogLockedFundsEvent",
      "type": "event"
    },
    {
      "anonymous": false,
      "inputs": [
        {
          "indexed": false,
          "name": "_address",
          "type": "address"
        },
        {
          "indexed": false,
          "name": "_value",
          "type": "uint256"
        }
      ],
      "name": "LogReleasedFundsEvent",
      "type": "event"
    },
    {
      "anonymous": false,
      "inputs": [
        {
          "indexed": true,
          "name": "from",
          "type": "address"
        },
        {
          "indexed": true,
          "name": "to",
          "type": "address"
        },
        {
          "indexed": false,
          "name": "value",
          "type": "uint256"
        }
      ],
      "name": "Transfer",
      "type": "event"
    },
    {
      "anonymous": false,
      "inputs": [
        {
          "indexed": true,
          "name": "owner",
          "type": "address"
        },
        {
          "indexed": true,
          "name": "spender",
          "type": "address"
        },
        {
          "indexed": false,
          "name": "value",
          "type": "uint256"
        }
      ],
      "name": "Approval",
      "type": "event"
    },
    {
      "anonymous": false,
      "inputs": [
        {
          "indexed": true,
          "name": "previousOwner",
          "type": "address"
        },
        {
          "indexed": true,
          "name": "newOwner",
          "type": "address"
        }
      ],
      "name": "OwnershipTransferred",
      "type": "event"
    },
    {
      "anonymous": false,
      "inputs": [
        {
          "indexed": true,
          "name": "account",
          "type": "address"
        }
      ],
      "name": "MemberAdded",
      "type": "event"
    },
    {
      "anonymous": false,
      "inputs": [
        {
          "indexed": true,
          "name": "account",
          "type": "address"
        }
      ],
      "name": "MemberRemoved",
      "type": "event"
    },
    {
      "constant": true,
      "inputs": [],
      "name": "tokenDetails",
      "outputs": [
        {
          "name": "",
          "type": "string"
        },
        {
          "name": "",
          "type": "string"
        },
        {
          "name": "",
          "type": "uint8"
        },
        {
          "name": "",
          "type": "uint256"
        }
      ],
      "payable": false,
      "stateMutability": "view",
      "type": "function"
    },
    {
      "constant": true,
      "inputs": [
        {
          "name": "_owner",
          "type": "address"
        }
      ],
      "name": "balanceOf",
      "outputs": [
        {
          "name": "",
          "type": "uint256"
        }
      ],
      "payable": false,
      "stateMutability": "view",
      "type": "function"
    },
    {
      "constant": true,
      "inputs": [
        {
          "name": "_owner",
          "type": "address"
        },
        {
          "name": "_spender",
          "type": "address"
        }
      ],
      "name": "allowance",
      "outputs": [
        {
          "name": "",
          "type": "uint256"
        }
      ],
      "payable": false,
      "stateMutability": "view",
      "type": "function"
    },
    {
      "constant": false,
      "inputs": [
        {
          "name": "_to",
          "type": "address"
        },
        {
          "name": "_value",
          "type": "uint256"
        }
      ],
      "name": "transfer",
      "outputs": [
        {
          "name": "",
          "type": "bool"
        }
      ],
      "payable": false,
      "stateMutability": "nonpayable",
      "type": "function"
    },
    {
      "constant": false,
      "inputs": [
        {
          "name": "_from",
          "type": "address"
        },
        {
          "name": "_to",
          "type": "address"
        },
        {
          "name": "_value",
          "type": "uint256"
        }
      ],
      "name": "transferTokens",
      "outputs": [],
      "payable": false,
      "stateMutability": "nonpayable",
      "type": "function"
    },
    {
      "constant": false,
      "inputs": [
        {
          "name": "_spender",
          "type": "address"
        },
        {
          "name": "_value",
          "type": "uint256"
        }
      ],
      "name": "approve",
      "outputs": [
        {
          "name": "",
          "type": "bool"
        }
      ],
      "payable": false,
      "stateMutability": "nonpayable",
      "type": "function"
    },
    {
      "constant": false,
      "inputs": [
        {
          "name": "_from",
          "type": "address"
        },
        {
          "name": "_to",
          "type": "address"
        },
        {
          "name": "_value",
          "type": "uint256"
        }
      ],
      "name": "transferFrom",
      "outputs": [
        {
          "name": "",
          "type": "bool"
        }
      ],
      "payable": false,
      "stateMutability": "nonpayable",
      "type": "function"
    },
    {
      "constant": false,
      "inputs": [
        {
          "name": "_amount",
          "type": "uint256"
        }
      ],
      "name": "mint",
      "outputs": [],
      "payable": false,
      "stateMutability": "nonpayable",
      "type": "function"
    }
  ],
  "bytecode": "0x608060405234801561001057600080fd5b5060008054600160a060020a0319163390811790915561003f90600190640100000000610c4761012f82021704565b6040805180820190915260098082527f46435420546f6b656e0000000000000000000000000000000000000000000000602090920191825261008391600691610154565b506040805180820190915260038082527f464354000000000000000000000000000000000000000000000000000000000060209092019182526100c891600791610154565b506008805460ff1916600a1790556402540be4006005819055336000818152600260209081526040808320859055805194855251929391927fddf252ad1be2c89b69c2b068fc378daa952ba7f163c4a11628f55a4df523b3ef9281900390910190a36101ef565b600160a060020a0316600090815260209190915260409020805460ff19166001179055565b828054600181600116156101000203166002900490600052602060002090601f016020900481019282601f1061019557805160ff19168380011785556101c2565b828001600101855582156101c2579182015b828111156101c25782518255916020019190600101906101a7565b506101ce9291506101d2565b5090565b6101ec91905b808211156101ce57600081556001016101d8565b90565b610cb880620001ff6000396000f3006080604052600436106100da5763ffffffff7c0100000000000000000000000000000000000000000000000000000000600035041663095ea7b381146100df5780630b1ca49a1461011757806323b872dd1461013a57806341c0e1b514610164578063471dc28d146101795780635d99f0cb1461019a57806370a08231146101bb5780638da5cb5b146101ee578063a0712d681461021f578063a64b6e5f14610237578063a9059cbb14610261578063ca6d56dc14610285578063d6abe110146102a6578063dd62ed3e146103ad578063f2fde38b146103d4575b600080fd5b3480156100eb57600080fd5b50610103600160a060020a03600435166024356103f5565b604080519115158252519081900360200190f35b34801561012357600080fd5b50610138600160a060020a036004351661045b565b005b34801561014657600080fd5b50610103600160a060020a03600435811690602435166044356104ba565b34801561017057600080fd5b5061013861061f565b34801561018557600080fd5b50610103600160a060020a0360043516610644565b3480156101a657600080fd5b50610103600160a060020a036004351661065d565b3480156101c757600080fd5b506101dc600160a060020a036004351661069a565b60408051918252519081900360200190f35b3480156101fa57600080fd5b506102036106b5565b60408051600160a060020a039092168252519081900360200190f35b34801561022b57600080fd5b506101386004356106c4565b34801561024357600080fd5b50610138600160a060020a0360043581169060243516604435610759565b34801561026d57600080fd5b50610103600160a060020a0360043516602435610840565b34801561029157600080fd5b50610138600160a060020a0360043516610987565b3480156102b257600080fd5b506102bb6109e6565b6040518080602001806020018560ff1660ff168152602001848152602001838103835287818151815260200191508051906020019080838360005b8381101561030e5781810151838201526020016102f6565b50505050905090810190601f16801561033b5780820380516001836020036101000a031916815260200191505b50838103825286518152865160209182019188019080838360005b8381101561036e578181015183820152602001610356565b50505050905090810190601f16801561039b5780820380516001836020036101000a031916815260200191505b50965050505050505060405180910390f35b3480156103b957600080fd5b506101dc600160a060020a0360043581169060243516610b2c565b3480156103e057600080fd5b50610138600160a060020a0360043516610b57565b336000818152600360209081526040808320600160a060020a038716808552908352818420869055815186815291519394909390927f8c5be1e5ebec7d5bd14f71427d1e84f3dd0314c0f7b2291e5b200ac8c7c3b925928290030190a350600192915050565b600054600160a060020a0316331461047257600080fd5b61048360018263ffffffff610bde16565b604051600160a060020a038216907f6e76fb4c77256006d9c38ec7d82b45a8c8f3c27b1d6766fffc42dfb8de68449290600090a250565b600160a060020a0383166000908152600260205260408120548211156104df57600080fd5b600160a060020a038416600090815260036020908152604080832033845290915290205482111561050f57600080fd5b600160a060020a038316151561052457600080fd5b600160a060020a03841660009081526002602052604090205461054d908363ffffffff610c0016565b600160a060020a038086166000908152600260205260408082209390935590851681522054610582908363ffffffff610c1216565b600160a060020a0380851660009081526002602090815260408083209490945591871681526003825282812033825290915220546105c6908363ffffffff610c0016565b600160a060020a0380861660008181526003602090815260408083203384528252918290209490945580518681529051928716939192600080516020610c6d833981519152929181900390910190a35060019392505050565b600054600160a060020a0316331461063657600080fd5b600054600160a060020a0316ff5b600061065760018363ffffffff610c2816565b92915050565b60008161066981610644565b8015610679575061067933610644565b151561068457600080fd5b5050600054600160a060020a0390811691161490565b600160a060020a031660009081526002602052604090205490565b600054600160a060020a031681565b600054600160a060020a031633146106db57600080fd5b3315156106e757600080fd5b6005546106fa908263ffffffff610c1216565b6005553360009081526002602052604090205461071d908263ffffffff610c1216565b336000818152600260209081526040808320949094558351858152935192939192600080516020610c6d8339815191529281900390910190a350565b8261076381610644565b8015610773575061077333610644565b151561077e57600080fd5b83828061078a8361069a565b101561079557600080fd5b600160a060020a0386166000908152600260205260409020546107be908563ffffffff610c0016565b600160a060020a0380881660009081526002602052604080822093909355908716815220546107f3908563ffffffff610c1216565b600160a060020a0380871660008181526002602090815260409182902094909455805188815290519193928a1692600080516020610c6d83398151915292918290030190a3505050505050565b3360009081526002602052604081205482111561089857604080517f08c379a0000000000000000000000000000000000000000000000000000000008152602060048201526000602482015290519081900360640190fd5b600160a060020a03831615156108e957604080517f08c379a0000000000000000000000000000000000000000000000000000000008152602060048201526000602482015290519081900360640190fd5b33600090815260026020526040902054610909908363ffffffff610c0016565b3360009081526002602052604080822092909255600160a060020a0385168152205461093b908363ffffffff610c1216565b600160a060020a038416600081815260026020908152604091829020939093558051858152905191923392600080516020610c6d8339815191529281900390910190a350600192915050565b600054600160a060020a0316331461099e57600080fd5b6109af60018263ffffffff610c4716565b604051600160a060020a038216907fb251eb052afc73ffd02ffe85ad79990a8b3fed60d76dbc2fa2fdd7123dffd91490600090a250565b60085460055460068054604080516020601f6002600019600187161561010002019095169490940493840181900481028201810190925282815260609586956000958695909460079460ff90941693918691830182828015610a895780601f10610a5e57610100808354040283529160200191610a89565b820191906000526020600020905b815481529060010190602001808311610a6c57829003601f168201915b5050865460408051602060026001851615610100026000190190941693909304601f810184900484028201840190925281815295995088945092508401905082828015610b175780601f10610aec57610100808354040283529160200191610b17565b820191906000526020600020905b815481529060010190602001808311610afa57829003601f168201915b50505050509250935093509350935090919293565b600160a060020a03918216600090815260036020908152604080832093909416825291909152205490565b600054600160a060020a03163314610b6e57600080fd5b600160a060020a0381161515610b8357600080fd5b6000805473ffffffffffffffffffffffffffffffffffffffff1916600160a060020a0383811691821780845560405192939116917f8be0079c531659141344cd1fd0a4f28419497f9722a3daafe3b4186f6b6457e09190a350565b600160a060020a0316600090815260209190915260409020805460ff19169055565b600082821115610c0c57fe5b50900390565b600082820183811015610c2157fe5b9392505050565b600160a060020a03166000908152602091909152604090205460ff1690565b600160a060020a0316600090815260209190915260409020805460ff191660011790555600ddf252ad1be2c89b69c2b068fc378daa952ba7f163c4a11628f55a4df523b3efa165627a7a7230582053b6f4676cf1d7a23b744c0ed24c8f98c95ac0d4aa439fab0e3d72b2ee8d0be80029",
  "source": "pragma solidity ^0.4.24;\n\n// import \"./IERC20.sol\";\nimport \"./SafeMath.sol\";\nimport \"./Ownable.sol\";\n\n\n/**\n * @title Standard ERC20 token\n *\n * @dev Implementation of the basic standard token.\n * https://github.com/ethereum/EIPs/blob/master/EIPS/eip-20.md\n * Originally based on code by FirstBlood: https://github.com/Firstbloodio/token/blob/master/smart_contract/FirstBloodToken.sol\n */\ncontract FCTToken is Ownable {\n  using SafeMath for uint256;\n\n  mapping (address => uint256) internal balances_;\n\n  mapping (address => mapping (address => uint256)) internal allowed_;\n\n  mapping (address => uint256) internal lockedFunds;\n\n  uint256 private totalSupply_;\n  \n  string private name_;\n  string private symbol_;\n  uint8 private decimals_;\n\n  event LogLockedFundsEvent (address _address,uint256 _value);\n  event LogReleasedFundsEvent (address _address,uint256 _value);\n  event Transfer(address indexed from,address indexed to, uint256 value  );\n  event Approval(  address indexed owner,  address indexed spender,  uint256 value );\n\n  constructor() public {\n    name_ = 'FCT Token';\n    symbol_ = 'FCT';\n    decimals_ = 10;\n    totalSupply_=10000000000;\n    balances_[msg.sender] = totalSupply_;\n    emit Transfer(address(0), msg.sender, totalSupply_);\n  }\n\n  modifier checkBalance(address _address,uint256 _amount) {\n          require(balanceOf(_address) >= _amount);\n          _;\n }\n\n  function tokenDetails() public view returns(string,string,uint8,uint256) {\n    return (name_,symbol_,decimals_,totalSupply_);\n  }\n\n  function balanceOf(address _owner) public view returns (uint256) {\n    return balances_[_owner];\n  }\n\n  function allowance(\n    address _owner,\n    address _spender\n   )\n    public\n    view\n    returns (uint256)\n  {\n    return allowed_[_owner][_spender];\n  }\n\n  function transfer(address _to, uint256 _value) public returns (bool) {\n    require(_value <= balances_[msg.sender],'');\n    require(_to != address(0),'');\n    //msg.sender can be changed to owner\n    balances_[msg.sender] = balances_[msg.sender].sub(_value);\n    balances_[_to] = balances_[_to].add(_value);\n    emit Transfer(msg.sender, _to, _value);\n    return true;\n  }\n\n  function transferTokens(address _from,address _to,uint256 _value) public onlyMembers(_from) checkBalance(_from,_value) {\n    balances_[_from] = balances_[_from].sub(_value);\n    balances_[_to] = balances_[_to].add(_value);\n    emit Transfer(_from, _to, _value);\n  }\n\n  function approve(address _spender, uint256 _value) public returns (bool) {\n    allowed_[msg.sender][_spender] = _value;\n    emit Approval(msg.sender, _spender, _value);\n    return true;\n  }\n  \n  function transferFrom(\n    address _from,\n    address _to,\n    uint256 _value\n  )\n    public\n    returns (bool)\n  {\n    require(_value <= balances_[_from]);\n    require(_value <= allowed_[_from][msg.sender]);\n    require(_to != address(0));\n\n    balances_[_from] = balances_[_from].sub(_value);\n    balances_[_to] = balances_[_to].add(_value);\n    allowed_[_from][msg.sender] = allowed_[_from][msg.sender].sub(_value);\n    emit Transfer(_from, _to, _value);\n    return true;\n  }\n\n  function mint(uint256 _amount) onlyOwner public {\n    require(msg.sender != 0);\n    totalSupply_ = totalSupply_.add(_amount);\n    balances_[msg.sender] = balances_[msg.sender].add(_amount);\n    emit Transfer(address(0), msg.sender, _amount);\n  }\n\n  function lockFunds(address _address,uint256 _amount) checkBalance(_address,_amount) onlyOwner internal {\n    lockedFunds[_address] = _amount;\n    balances_[_address] = balances_[_address].sub(_amount);\n    // balances_[owner] = balances_[owner].add(_amount);\n    emit LogLockedFundsEvent(_address,_amount);\n  }\n\n  function releaseFunds(address _address,uint _amount) onlyOwner internal\n    {\n    lockedFunds[_address] = lockedFunds[_address].sub(_amount);\n    balances_[_address] = balances_[_address].add(_amount);\n    emit LogReleasedFundsEvent(_address,_amount);\n    }\n    \n  function equals(bytes32 a, bytes32 b) internal pure returns (bool)\n     {\n       return bytes32(keccak256(abi.encodePacked(a))) == bytes32(keccak256(abi.encodePacked(b)));\n     }\n     \n     //generate specific asset id with address and name \n    function createId(address _address,string _name,string _username,uint256 _date) internal view onlyMembers(_address) returns (bytes32 id) {\n        id = bytes32(keccak256(abi.encodePacked(_address,_name,_username,_date)));\n     }\n\n}",
  "sourcePath": "/home/zeus/Desktop/home/Ethereum/Seafoodcasestudy/Ethereum-nodejs/contracts/FCTToken.sol",
  "compiler": {
    "name": "solc",
    "version": "0.4.26+commit.4563c3fc.Emscripten.clang"
  },
  "schemaVersion": "3.0.18",
  "updatedAt": "2020-04-12T13:20:35.172Z",
  "devdoc": {
    "methods": {},
    "title": "Standard ERC20 token"
  },
  "userdoc": {
    "methods": {}
  }
}