{
  "contractName": "TelemetryCore",
  "abi": [
    {
      "inputs": [],
      "payable": false,
      "stateMutability": "nonpayable",
      "type": "constructor"
    },
    {
      "anonymous": false,
      "inputs": [
        {
          "indexed": false,
          "name": "_owner",
          "type": "address"
        },
        {
          "indexed": false,
          "name": "_telemetryId",
          "type": "bytes32"
        },
        {
          "indexed": false,
          "name": "_weight",
          "type": "uint256"
        },
        {
          "indexed": false,
          "name": "_temperature",
          "type": "uint256"
        },
        {
          "indexed": false,
          "name": "_latitude",
          "type": "string"
        },
        {
          "indexed": false,
          "name": "_longitude",
          "type": "string"
        },
        {
          "indexed": false,
          "name": "_place",
          "type": "string"
        },
        {
          "indexed": false,
          "name": "_timestamp",
          "type": "uint256"
        }
      ],
      "name": "LogSensorTelemetryEvent",
      "type": "event"
    },
    {
      "anonymous": false,
      "inputs": [
        {
          "indexed": false,
          "name": "_address",
          "type": "address"
        },
        {
          "indexed": false,
          "name": "_sensorId",
          "type": "bytes32"
        },
        {
          "indexed": false,
          "name": "_name",
          "type": "string"
        },
        {
          "indexed": false,
          "name": "_timestamp",
          "type": "uint256"
        }
      ],
      "name": "LogSensorAddedEvent",
      "type": "event"
    },
    {
      "anonymous": false,
      "inputs": [
        {
          "indexed": false,
          "name": "_supplier",
          "type": "address"
        },
        {
          "indexed": false,
          "name": "_sensorId",
          "type": "bytes32"
        },
        {
          "indexed": false,
          "name": "_status",
          "type": "string"
        },
        {
          "indexed": false,
          "name": "_timestamp",
          "type": "uint256"
        }
      ],
      "name": "LogSensorUpdateEvent",
      "type": "event"
    },
    {
      "constant": false,
      "inputs": [
        {
          "name": "_sensorId",
          "type": "bytes32"
        },
        {
          "name": "_weight",
          "type": "uint256"
        },
        {
          "name": "_temperature",
          "type": "uint256"
        },
        {
          "name": "_latitude",
          "type": "string"
        },
        {
          "name": "_longitude",
          "type": "string"
        },
        {
          "name": "_place",
          "type": "string"
        }
      ],
      "name": "updateSensorTelemetry",
      "outputs": [],
      "payable": false,
      "stateMutability": "nonpayable",
      "type": "function"
    },
    {
      "constant": false,
      "inputs": [
        {
          "name": "_sensorId",
          "type": "bytes32"
        },
        {
          "name": "_transactionId",
          "type": "bytes32"
        }
      ],
      "name": "updateSensorTransactionId",
      "outputs": [],
      "payable": false,
      "stateMutability": "nonpayable",
      "type": "function"
    },
    {
      "constant": false,
      "inputs": [
        {
          "name": "_supplier",
          "type": "address"
        },
        {
          "name": "_sensorId",
          "type": "bytes32"
        },
        {
          "name": "_status",
          "type": "uint256"
        }
      ],
      "name": "updateSensor",
      "outputs": [],
      "payable": false,
      "stateMutability": "nonpayable",
      "type": "function"
    },
    {
      "constant": false,
      "inputs": [
        {
          "name": "_owner",
          "type": "address"
        },
        {
          "name": "_name",
          "type": "string"
        },
        {
          "name": "_username",
          "type": "string"
        }
      ],
      "name": "addSensor",
      "outputs": [],
      "payable": false,
      "stateMutability": "nonpayable",
      "type": "function"
    },
    {
      "constant": true,
      "inputs": [
        {
          "name": "_sensorId",
          "type": "bytes32"
        }
      ],
      "name": "getSensorById",
      "outputs": [
        {
          "name": "",
          "type": "bytes32"
        },
        {
          "name": "",
          "type": "bytes32"
        },
        {
          "name": "",
          "type": "address"
        },
        {
          "name": "",
          "type": "string"
        },
        {
          "name": "",
          "type": "string"
        },
        {
          "name": "",
          "type": "uint256"
        },
        {
          "name": "",
          "type": "uint256"
        }
      ],
      "payable": false,
      "stateMutability": "view",
      "type": "function"
    },
    {
      "constant": true,
      "inputs": [
        {
          "name": "_telemetryId",
          "type": "bytes32"
        }
      ],
      "name": "getTelemetryById",
      "outputs": [
        {
          "name": "",
          "type": "bytes32"
        },
        {
          "name": "",
          "type": "bytes32"
        },
        {
          "name": "",
          "type": "uint256"
        },
        {
          "name": "",
          "type": "uint256"
        },
        {
          "name": "",
          "type": "string"
        },
        {
          "name": "",
          "type": "string"
        },
        {
          "name": "",
          "type": "string"
        },
        {
          "name": "",
          "type": "uint256"
        }
      ],
      "payable": false,
      "stateMutability": "view",
      "type": "function"
    },
    {
      "constant": true,
      "inputs": [
        {
          "name": "_address",
          "type": "address"
        }
      ],
      "name": "getSensorsByAddress",
      "outputs": [
        {
          "name": "",
          "type": "bytes32[]"
        }
      ],
      "payable": false,
      "stateMutability": "view",
      "type": "function"
    },
    {
      "constant": true,
      "inputs": [
        {
          "name": "_transactionId",
          "type": "bytes32"
        }
      ],
      "name": "getTransactionTelemetries",
      "outputs": [
        {
          "name": "",
          "type": "bytes32[]"
        }
      ],
      "payable": false,
      "stateMutability": "view",
      "type": "function"
    },
    {
      "constant": true,
      "inputs": [
        {
          "name": "_sensorId",
          "type": "bytes32"
        }
      ],
      "name": "getSensorTelemetries",
      "outputs": [
        {
          "name": "",
          "type": "bytes32[]"
        }
      ],
      "payable": false,
      "stateMutability": "view",
      "type": "function"
    }
  ],
  "bytecode": "0x60806040523480156200001157600080fd5b506200002c6000640100000000620016946200004c82021704565b62000046600064010000000062001a9b6200046b82021704565b62000649565b604080518082018252600981527f415641494c41424c45000000000000000000000000000000000000000000000060208083019182526002600090815260018601909152929092209051620000a29290620005a4565b50604080518082018252600a81527f4f4e5f5448455f5741590000000000000000000000000000000000000000000060208083019182526004600090815260018601909152929092209051620000f99290620005a4565b50604080518082018252600981527f434f4d504c45544544000000000000000000000000000000000000000000000060208083019182526008600090815260018601909152929092209051620001509290620005a4565b50604080518082018252600981527f44454c495645524544000000000000000000000000000000000000000000000060208083019182526006600090815260018601909152929092209051620001a79290620005a4565b50604080518082018252600781527f50454e44494e47000000000000000000000000000000000000000000000000006020808301918252600a600090815260018601909152929092209051620001fe9290620005a4565b50604080518082018252600781527f53554343455353000000000000000000000000000000000000000000000000006020808301918252600b600090815260018601909152929092209051620002559290620005a4565b50604080518082018252600481527f44454144000000000000000000000000000000000000000000000000000000006020808301918252600080805260018601909152929092209051620002aa9290620005a4565b50604080518082018252600581527f414c495645000000000000000000000000000000000000000000000000000000602080830191825260016000818152908601909152929092209051620003009290620005a4565b50604080518082018252600b81527f544f5f42455f414444454400000000000000000000000000000000000000000060208083019182526003600090815260018601909152929092209051620003579290620005a4565b50604080518082018252600b81527f494e5f50524f475245535300000000000000000000000000000000000000000060208083019182526007600090815260018601909152929092209051620003ae9290620005a4565b50604080518082018252600981527f5049434b45445f5550000000000000000000000000000000000000000000000060208083019182526005600090815260018601909152929092209051620004059290620005a4565b506040805180820190915260098082527f43414e43454c4c45440000000000000000000000000000000000000000000000602083015260018301906000905b8152602001908152602001600020908051906020019062000467929190620005a4565b5050565b604080518082018252600581527f41444d494e0000000000000000000000000000000000000000000000000000006020808301918252600080805290859052929092209051620004bc9290620005a4565b50604080518082018252600881527f50524f445543455200000000000000000000000000000000000000000000000060208083019182526001600090815290859052929092209051620005109290620005a4565b50604080518082018252600881527f434f4e53554d455200000000000000000000000000000000000000000000000060208083019182526002600090815290859052929092209051620005649290620005a4565b5060408051808201909152600881527f535550504c4945520000000000000000000000000000000000000000000000006020820152816000600362000444565b828054600181600116156101000203166002900490600052602060002090601f016020900481019282601f10620005e757805160ff191683800117855562000617565b8280016001018555821562000617579182015b8281111562000617578251825591602001919060010190620005fa565b506200062592915062000629565b5090565b6200064691905b8082111562000625576000815560010162000630565b90565b611bf980620006596000396000f3006080604052600436106100985763ffffffff7c0100000000000000000000000000000000000000000000000000000000600035041663133e2a8c811461009d578063632d1b1c146100c65780637d55de0f1461012e578063899b061e1461020d578063cd57ad7614610228578063deca914914610355578063e33a80341461036d578063f0ad09d41461038e578063f8bbeb7a146103c7575b600080fd5b3480156100a957600080fd5b506100c4600160a060020a0360043516602435604435610550565b005b3480156100d257600080fd5b506100de60043561066c565b60408051602080825283518183015283519192839290830191858101910280838360005b8381101561011a578181015183820152602001610102565b505050509050019250505060405180910390f35b34801561013a57600080fd5b50604080516020601f6064356004818101359283018490048402850184019095528184526100c4948035946024803595604435953695608494930191819084018382808284375050604080516020601f89358b018035918201839004830284018301909452808352979a99988101979196509182019450925082915084018382808284375050604080516020601f89358b018035918201839004830284018301909452808352979a9998810197919650918201945092508291508401838280828437509497506106cf9650505050505050565b34801561021957600080fd5b506100c4600435602435610b7e565b34801561023457600080fd5b50610240600435610cb7565b604080518881526020808201899052600160a060020a0388169282019290925260a0810184905260c0810183905260e06060820181815287519183019190915286519192909160808401916101008501919089019080838360005b838110156102b357818101518382015260200161029b565b50505050905090810190601f1680156102e05780820380516001836020036101000a031916815260200191505b50838103825286518152865160209182019188019080838360005b838110156103135781810151838201526020016102fb565b50505050905090810190601f1680156103405780820380516001836020036101000a031916815260200191505b50995050505050505050505060405180910390f35b34801561036157600080fd5b506100de600435610e06565b34801561037957600080fd5b506100de600160a060020a0360043516610e67565b34801561039a57600080fd5b506100c460048035600160a060020a03169060248035808201929081013591604435908101910135610ed2565b3480156103d357600080fd5b506103df60043561110b565b6040805189815260208082018a90529181018890526060810187905260e081018390526101006080820181815287519183019190915286519192909160a084019160c08501916101208601918a019080838360005b8381101561044c578181015183820152602001610434565b50505050905090810190601f1680156104795780820380516001836020036101000a031916815260200191505b50848103835287518152875160209182019189019080838360005b838110156104ac578181015183820152602001610494565b50505050905090810190601f1680156104d95780820380516001836020036101000a031916815260200191505b50848103825286518152865160209182019188019080838360005b8381101561050c5781810151838201526020016104f4565b50505050905090810190601f1680156105395780820380516001836020036101000a031916815260200191505b509b50505050505050505050505060405180910390f35b60008280151561055f57600080fd5b600084815260026020526040902060068101849055426005820155915061058461137f565b8260060154141561059757600060018301555b7f538fb7742c85aa94ca6cf30a8c921db06fecbf8fb2a40f57049a845340779f7a85856105cb60008763ffffffff61138a16565b60408051600160a060020a0385168152602080820185905242606083018190526080938301848152855194840194909452845190939160a08401919086019080838360005b83811015610628578181015183820152602001610610565b50505050905090810190601f1680156106555780820380516001836020036101000a031916815260200191505b509550505050505060405180910390a15050505050565b6000818152600660209081526040918290208054835181840281018401909452808452606093928301828280156106c357602002820191906000526020600020905b815481526001909101906020018083116106ae575b50505050509050919050565b60008060006106dc611575565b898015156106e957600080fd5b60008b81526002602081815260409283902042600582018190558184015460038301805487516000196101006001841615020190911696909604601f8101869004860287018601909752868652929a509098506107aa94600160a060020a03909116939283018282801561079e5780601f106107735761010080835404028352916020019161079e565b820191906000526020600020905b81548152906001019060200180831161078157829003601f168201915b5050505050884261142e565b604080516101008101825282815260208082018f81528284018f8152606084018f8152608085018f815260a086018f905260c086018e90524260e08701526000888152600480875297902086518155935160018501559151600284015551600383015551805195985092965086949093610829939085019201906115c1565b5060a082015180516108459160058401916020909101906115c1565b5060c082015180516108619160068401916020909101906115c1565b5060e0919091015160079091015560008b8152600560209081526040822084518154600181810184559285529290932090910191909155850154156108c957600180860154600090815260066020908152604082208551815494850182559083529120909101555b7f3357bc43afec851cae85c60af3788ed70480691e141080b42417c572e6cfbdd78560020160009054906101000a9004600160a060020a031683600001518c8c8c8c8c426040518089600160a060020a0316600160a060020a031681526020018860001916600019168152602001878152602001868152602001806020018060200180602001858152602001848103845288818151815260200191508051906020019080838360005b8381101561098a578181015183820152602001610972565b50505050905090810190601f1680156109b75780820380516001836020036101000a031916815260200191505b50848103835287518152875160209182019189019080838360005b838110156109ea5781810151838201526020016109d2565b50505050905090810190601f168015610a175780820380516001836020036101000a031916815260200191505b50848103825286518152865160209182019188019080838360005b83811015610a4a578181015183820152602001610a32565b50505050905090810190601f168015610a775780820380516001836020036101000a031916815260200191505b509b50505050505050505050505060405180910390a1600285015460068601547f538fb7742c85aa94ca6cf30a8c921db06fecbf8fb2a40f57049a845340779f7a91600160a060020a0316908d90610ad79060009063ffffffff61138a16565b60408051600160a060020a0385168152602080820185905242606083018190526080938301848152855194840194909452845190939160a08401919086019080838360005b83811015610b34578181015183820152602001610b1c565b50505050905090810190601f168015610b615780820380516001836020036101000a031916815260200191505b509550505050505060405180910390a15050505050505050505050565b600082801515610b8d57600080fd5b60008481526002602052604090209150610ba561137f565b600683015414610bb457600080fd5b42600583015560018201839055610bc961156c565b6006830181905560028301547f538fb7742c85aa94ca6cf30a8c921db06fecbf8fb2a40f57049a845340779f7a91600160a060020a03909116908690610c179060009063ffffffff61138a16565b60408051600160a060020a0385168152602080820185905242606083018190526080938301848152855194840194909452845190939160a08401919086019080838360005b83811015610c74578181015183820152602001610c5c565b50505050905090810190601f168015610ca15780820380516001836020036101000a031916815260200191505b509550505050505060405180910390a150505050565b6000806000606080600080610cca61163f565b600089815260026020818152604092839020835160e081018552815481526001808301548285015282850154600160a060020a0316828701526003830180548751601f9382161561010002600019019091169690960491820185900485028601850190965280855290949193606086019390929190830182828015610d905780601f10610d6557610100808354040283529160200191610d90565b820191906000526020600020905b815481529060010190602001808311610d7357829003601f168201915b50505050508152602001600482015481526020016005820154815260200160068201548152505090508060000151816020015182604001518360600151610de58560c00151600061138a90919063ffffffff16565b608086015160a090960151949e939d50919b50995097509195509350915050565b6000818152600560209081526040918290208054835181840281018401909452808452606093928301828280156106c35760200282019190600052602060002090815481526001909101906020018083116106ae5750505050509050919050565b600160a060020a0381166000908152600360209081526040918290208054835181840281018401909452808452606093928301828280156106c35760200282019190600052602060002090815481526001909101906020018083116106ae5750505050509050919050565b6000610edc61163f565b610f468787878080601f0160208091040260200160405190810160405280939291908181526020018383808284375050604080516020601f8d018190048102820181019092528b815294508b93508a925082915084018382808284375042945061142e9350505050565b60008181526002602052604090206006015490925015610f6557600080fd5b6040805160e0810182528381526000602080830191909152600160a060020a038a16828401528251601f890182900482028101820190935287835290916060830191899089908190840183828082843750505092845250504260208301819052604083015250606001610fd661137f565b90526000838152600260208181526040928390208451815584820151600182015592840151918301805473ffffffffffffffffffffffffffffffffffffffff1916600160a060020a039093169290921790915560608301518051939450849361104592600385019201906115c1565b50608082810151600483015560a080840151600584015560c090930151600690920191909155600160a060020a03891660008181526003602090815260408083208054600181018255908452928290209092018790558151928352820186905242606083018190529082018381529282018990527f2bdb9122f3fc56bed8bfbf0079cfbb58365a7c01fe3f0e17baac219c87f37a09938b9387938c938c93909290820185858082843760405192018290039850909650505050505050a150505050505050565b60008060008060608060606000611120611575565b8980151561112d57600080fd5b60008b815260046020818152604092839020835161010081810186528254825260018084015483860152600280850154848901526003850154606085015295840180548851601f93821615909402600019011696909604908101859004850282018501909652858152909491936080860193919290918301828280156111f45780601f106111c9576101008083540402835291602001916111f4565b820191906000526020600020905b8154815290600101906020018083116111d757829003601f168201915b505050918352505060058201805460408051602060026001851615610100026000190190941693909304601f81018490048402820184019092528181529382019392918301828280156112885780601f1061125d57610100808354040283529160200191611288565b820191906000526020600020905b81548152906001019060200180831161126b57829003601f168201915b505050918352505060068201805460408051602060026001851615610100026000190190941693909304601f810184900484028201840190925281815293820193929183018282801561131c5780601f106112f15761010080835404028352916020019161131c565b820191906000526020600020905b8154815290600101906020018083116112ff57829003601f168201915b505050505081526020016007820154815250509150816000015182602001518360400151846060015185608001518660a001518760c001518860e00151839350829250819150995099509950995099509950995099505050919395975091939597565b600060025b90505b90565b60008181526001838101602090815260409283902080548451600294821615610100026000190190911693909304601f810183900483028401830190945283835260609390918301828280156114215780601f106113f657610100808354040283529160200191611421565b820191906000526020600020905b81548152906001019060200180831161140457829003601f168201915b5050505050905092915050565b6000848484846040516020018085600160a060020a0316600160a060020a03166c0100000000000000000000000002815260140184805190602001908083835b6020831061148d5780518252601f19909201916020918201910161146e565b51815160209384036101000a600019018019909216911617905286519190930192860191508083835b602083106114d55780518252601f1990920191602091820191016114b6565b51815160209384036101000a6000190180199092169116179052920193845250604080518085038152938201908190528351939650945084935085019190508083835b602083106115375780518252601f199092019160209182019101611518565b5181516020939093036101000a6000190180199091169216919091179052604051920182900390912098975050505050505050565b60006004611384565b6101006040519081016040528060008019168152602001600080191681526020016000815260200160008152602001606081526020016060815260200160608152602001600081525090565b828054600181600116156101000203166002900490600052602060002090601f016020900481019282601f1061160257805160ff191683800117855561162f565b8280016001018555821561162f579182015b8281111561162f578251825591602001919060010190611614565b5061163b92915061167a565b5090565b6040805160e0810182526000808252602082018190529181018290526060808201526080810182905260a0810182905260c081019190915290565b61138791905b8082111561163b5760008155600101611680565b604080518082018252600981527f415641494c41424c450000000000000000000000000000000000000000000000602080830191825260026000908152600186019091529290922090516116e892906115c1565b50604080518082018252600a81527f4f4e5f5448455f574159000000000000000000000000000000000000000000006020808301918252600460009081526001860190915292909220905161173d92906115c1565b50604080518082018252600981527f434f4d504c4554454400000000000000000000000000000000000000000000006020808301918252600860009081526001860190915292909220905161179292906115c1565b50604080518082018252600981527f44454c4956455245440000000000000000000000000000000000000000000000602080830191825260066000908152600186019091529290922090516117e792906115c1565b50604080518082018252600781527f50454e44494e47000000000000000000000000000000000000000000000000006020808301918252600a60009081526001860190915292909220905161183c92906115c1565b50604080518082018252600781527f53554343455353000000000000000000000000000000000000000000000000006020808301918252600b60009081526001860190915292909220905161189192906115c1565b50604080518082018252600481527f444541440000000000000000000000000000000000000000000000000000000060208083019182526000808052600186019091529290922090516118e492906115c1565b50604080518082018252600581527f414c49564500000000000000000000000000000000000000000000000000000060208083019182526001600081815290860190915292909220905161193892906115c1565b50604080518082018252600b81527f544f5f42455f41444445440000000000000000000000000000000000000000006020808301918252600360009081526001860190915292909220905161198d92906115c1565b50604080518082018252600b81527f494e5f50524f4752455353000000000000000000000000000000000000000000602080830191825260076000908152600186019091529290922090516119e292906115c1565b50604080518082018252600981527f5049434b45445f5550000000000000000000000000000000000000000000000060208083019182526005600090815260018601909152929092209051611a3792906115c1565b506040805180820190915260098082527f43414e43454c4c45440000000000000000000000000000000000000000000000602083015260018301906000905b81526020019081526020016000209080519060200190611a979291906115c1565b5050565b604080518082018252600581527f41444d494e0000000000000000000000000000000000000000000000000000006020808301918252600080805290859052929092209051611aea92906115c1565b50604080518082018252600881527f50524f445543455200000000000000000000000000000000000000000000000060208083019182526001600090815290859052929092209051611b3c92906115c1565b50604080518082018252600881527f434f4e53554d455200000000000000000000000000000000000000000000000060208083019182526002600090815290859052929092209051611b8e92906115c1565b5060408051808201909152600881527f535550504c49455200000000000000000000000000000000000000000000000060208201528160006003611a765600a165627a7a723058206e3b539605a5d8711d770a8f67b0880ef6874df5880e4ee9edef3b0d538874ca0029",
  "source": "pragma solidity ^0.4.24;\n\nimport \"./AssetTransfer.sol\";\nimport \"./Enums.sol\";\nimport \"./FCTToken.sol\";\n\n\ncontract TelemetryCore  {\n    \n    using Enums for Enums.Enum;\n    Enums.Enum internal enums;\n    \n    constructor() public {\n        enums.addToEnumMapping();\n        enums.createEnumMapping();\n    }\n    \n      struct Sensor\n    {\n        bytes32 _id;\n        bytes32 _transactionId;\n        address _address;//owner of the sensor\n        string _name;\n        uint256 _createdAt;\n        uint256 _updatedAt;\n        uint _status;\n    }\n\n    struct Telemetry {\n        bytes32 _id;//.. Every specific location\n        bytes32 _sensorId;//..For specific sensors\n        uint _weight;\n        // uint _quantity;\n        // uint _value;//..\n        uint _temperature;\n        string _latitude;\n        string _longitude;\n        string _place;\n        uint256 _updatedAt;\n    }\n\n    mapping (bytes32 => Sensor) internal sensors;// mapped with sensorid\n    mapping (address => bytes32[]) internal sensorOwners;// mapped with owners/suppliers\n    \n    mapping (bytes32 => Telemetry) internal telemetries;// mapped with telemetryid\n    mapping (bytes32 => bytes32[]) internal sensorTelemetries;//mapped with sensorid\n    mapping (bytes32 => bytes32[]) internal transactionTelemetries;//mapped with transaction id\n\n    event LogSensorTelemetryEvent (address _owner,bytes32 _telemetryId, uint _weight, uint _temperature, string _latitude,string _longitude, string _place, uint256 _timestamp);\n    event LogSensorAddedEvent  (address _address , bytes32 _sensorId ,string _name, uint256 _timestamp);\n    event LogSensorUpdateEvent  (address _supplier,bytes32 _sensorId , string _status , uint256 _timestamp);\n    \n    modifier NotEmpty(bytes32 _id) {\n        require(_id !=bytes32(0) );\n        _;\n    }\n    function updateSensorTelemetry(\n        bytes32 _sensorId,\n        uint _weight,\n        uint _temperature,\n        string _latitude,\n        string _longitude,\n        string _place\n    ) public NotEmpty(_sensorId) \n    // isSensorAvailable(_sensorId) \n    {\n        Sensor storage sensor = sensors[_sensorId];\n        uint256 updateDate = now ;\n        sensor._updatedAt = updateDate;\n        // sensorOwners[sensor._address][sensor._index] ;\n        \n        bytes32 _id = createId(sensor._address, sensor._name, _place,now);\n        Telemetry memory telemetry = Telemetry( _id,  _sensorId, _weight, _temperature, _latitude, _longitude, _place,now);\n        \n        telemetries[_id] = telemetry ;\n        sensorTelemetries[_sensorId].push(telemetry._id);\n        if(sensor._transactionId != bytes32(0))transactionTelemetries[sensor._transactionId].push(telemetry._id);\n        emit LogSensorTelemetryEvent( sensor._address,telemetry._id,_weight, _temperature, _latitude, _longitude, _place, now);\n        emit LogSensorUpdateEvent(sensor._address,_sensorId,enums.getStringStatusType(sensor._status),now);\n      }\n\n      function updateSensorTransactionId(bytes32 _sensorId,bytes32 _transactionId) NotEmpty(_sensorId) public   {\n            Sensor storage sensor = sensors[_sensorId];\n            require(sensor._status == Enums.getAvailableStatus());\n            sensor._updatedAt = now;\n            sensor._transactionId = _transactionId;\n            sensor._status = Enums.getOnTheWayStatus();\n            emit LogSensorUpdateEvent(sensor._address,_sensorId,enums.getStringStatusType(sensor._status),now);\n      }\n      \n      function updateSensor(address _supplier,bytes32 _sensorId,uint _status) NotEmpty(_sensorId) public   {\n            Sensor storage sensor = sensors[_sensorId];\n            sensor._status = _status;\n            sensor._updatedAt = now;\n            if(sensor._status == Enums.getAvailableStatus()){\n                sensor._transactionId = bytes32(0);\n            }\n            emit LogSensorUpdateEvent(_supplier,_sensorId,enums.getStringStatusType(_status),now);\n      }\n\n         //generates an unique id from the name given and add it to map \n    function addSensor(address _owner , string _name,string _username) external {\n           bytes32 _sensorId = createId(_owner,_name,_username,now);\n           require(sensors[_sensorId]._status == 0);\n           Sensor memory sensor = Sensor(_sensorId,bytes32(0),_owner,_name,now,now,Enums.getAvailableStatus());\n           sensors[_sensorId] = sensor;\n           sensorOwners[_owner].push(_sensorId);\n           emit LogSensorAddedEvent(_owner, _sensorId, _name, now);\n    }\n\n    function getSensorById(bytes32 _sensorId) view public  returns(\n        bytes32,\n        bytes32,\n        address,\n        string,\n        string,\n        uint256,\n        uint256\n    ){\n        Sensor memory sensor = sensors[_sensorId];\n        return (\n            sensor._id,\n            sensor._transactionId,\n            sensor._address,\n            sensor._name,\n            enums.getStringStatusType(sensor._status),\n            sensor._createdAt,\n            sensor._updatedAt\n        );\n    }\n\n    function getTelemetryById(bytes32 _telemetryId) view public NotEmpty(_telemetryId) returns(\n        bytes32,\n        bytes32,\n        uint,\n        uint,\n        string,\n        string,\n        string,\n        uint256\n    ) {\n        Telemetry memory telemetry = telemetries[_telemetryId];\n        return (\n            telemetry._id,\n            telemetry._sensorId,\n            telemetry._weight,\n            telemetry._temperature,\n            telemetry._latitude,\n            telemetry._longitude,\n            telemetry._place,\n            telemetry._updatedAt\n        );\n    }\n\n    function getSensorsByAddress(address _address) view external  returns(bytes32[]){\n        return sensorOwners[_address];\n    }\n\n    function getTransactionTelemetries(bytes32 _transactionId) public view returns(bytes32[]) {\n        return transactionTelemetries[_transactionId];\n    }\n\n    function getSensorTelemetries(bytes32 _sensorId) public view returns(bytes32[]) {\n        return sensorTelemetries[_sensorId];\n    }\n\n      //generate specific asset id with address and name \n    function createId(address _address,string _name,string _username,uint256 _date) internal pure  returns (bytes32 id) {\n        id = bytes32(keccak256(abi.encodePacked(_address,_name,_username,_date)));\n     }\n    \n}",
  "sourcePath": "/home/zeus/Desktop/home/Ethereum/Seafoodcasestudy/Ethereum-nodejs/contracts/TelemetryCore.sol",
  "compiler": {
    "name": "solc",
    "version": "0.4.26+commit.4563c3fc.Emscripten.clang"
  },
  "schemaVersion": "3.0.18",
  "updatedAt": "2020-05-02T17:34:11.289Z",
  "networkType": "ethereum",
  "devdoc": {
    "methods": {}
  },
  "userdoc": {
    "methods": {}
  }
}