{
  "contractName": "XFT",
  "abi": [
    {
      "constant": true,
      "inputs": [],
      "name": "name",
      "outputs": [
        {
          "name": "",
          "type": "string"
        }
      ],
      "payable": false,
      "stateMutability": "view",
      "type": "function"
    },
    {
      "constant": true,
      "inputs": [],
      "name": "totalSupply",
      "outputs": [
        {
          "name": "",
          "type": "uint256"
        }
      ],
      "payable": false,
      "stateMutability": "view",
      "type": "function"
    },
    {
      "constant": true,
      "inputs": [],
      "name": "decimals",
      "outputs": [
        {
          "name": "",
          "type": "uint8"
        }
      ],
      "payable": false,
      "stateMutability": "view",
      "type": "function"
    },
    {
      "constant": true,
      "inputs": [
        {
          "name": "",
          "type": "address"
        }
      ],
      "name": "balanceOf",
      "outputs": [
        {
          "name": "",
          "type": "uint256"
        }
      ],
      "payable": false,
      "stateMutability": "view",
      "type": "function"
    },
    {
      "constant": true,
      "inputs": [],
      "name": "owner",
      "outputs": [
        {
          "name": "",
          "type": "address"
        }
      ],
      "payable": false,
      "stateMutability": "view",
      "type": "function"
    },
    {
      "constant": true,
      "inputs": [],
      "name": "symbol",
      "outputs": [
        {
          "name": "",
          "type": "string"
        }
      ],
      "payable": false,
      "stateMutability": "view",
      "type": "function"
    },
    {
      "constant": true,
      "inputs": [
        {
          "name": "",
          "type": "address"
        }
      ],
      "name": "freezeOf",
      "outputs": [
        {
          "name": "",
          "type": "uint256"
        }
      ],
      "payable": false,
      "stateMutability": "view",
      "type": "function"
    },
    {
      "constant": true,
      "inputs": [
        {
          "name": "",
          "type": "address"
        },
        {
          "name": "",
          "type": "address"
        }
      ],
      "name": "allowance",
      "outputs": [
        {
          "name": "",
          "type": "uint256"
        }
      ],
      "payable": false,
      "stateMutability": "view",
      "type": "function"
    },
    {
      "inputs": [
        {
          "name": "initialSupply",
          "type": "uint256"
        },
        {
          "name": "tokenName",
          "type": "string"
        },
        {
          "name": "decimalUnits",
          "type": "uint8"
        },
        {
          "name": "tokenSymbol",
          "type": "string"
        }
      ],
      "payable": false,
      "stateMutability": "nonpayable",
      "type": "constructor"
    },
    {
      "payable": true,
      "stateMutability": "payable",
      "type": "fallback"
    },
    {
      "anonymous": false,
      "inputs": [
        {
          "indexed": true,
          "name": "from",
          "type": "address"
        },
        {
          "indexed": true,
          "name": "to",
          "type": "address"
        },
        {
          "indexed": false,
          "name": "value",
          "type": "uint256"
        }
      ],
      "name": "Transfer",
      "type": "event"
    },
    {
      "anonymous": false,
      "inputs": [
        {
          "indexed": true,
          "name": "from",
          "type": "address"
        },
        {
          "indexed": false,
          "name": "value",
          "type": "uint256"
        }
      ],
      "name": "Burn",
      "type": "event"
    },
    {
      "anonymous": false,
      "inputs": [
        {
          "indexed": true,
          "name": "from",
          "type": "address"
        },
        {
          "indexed": false,
          "name": "value",
          "type": "uint256"
        }
      ],
      "name": "Freeze",
      "type": "event"
    },
    {
      "anonymous": false,
      "inputs": [
        {
          "indexed": true,
          "name": "from",
          "type": "address"
        },
        {
          "indexed": false,
          "name": "value",
          "type": "uint256"
        }
      ],
      "name": "Unfreeze",
      "type": "event"
    },
    {
      "constant": false,
      "inputs": [
        {
          "name": "_to",
          "type": "address"
        },
        {
          "name": "_value",
          "type": "uint256"
        }
      ],
      "name": "transfer",
      "outputs": [],
      "payable": false,
      "stateMutability": "nonpayable",
      "type": "function"
    },
    {
      "constant": false,
      "inputs": [
        {
          "name": "_spender",
          "type": "address"
        },
        {
          "name": "_value",
          "type": "uint256"
        }
      ],
      "name": "approve",
      "outputs": [
        {
          "name": "success",
          "type": "bool"
        }
      ],
      "payable": false,
      "stateMutability": "nonpayable",
      "type": "function"
    },
    {
      "constant": false,
      "inputs": [
        {
          "name": "_from",
          "type": "address"
        },
        {
          "name": "_to",
          "type": "address"
        },
        {
          "name": "_value",
          "type": "uint256"
        }
      ],
      "name": "transferFrom",
      "outputs": [
        {
          "name": "success",
          "type": "bool"
        }
      ],
      "payable": false,
      "stateMutability": "nonpayable",
      "type": "function"
    },
    {
      "constant": false,
      "inputs": [
        {
          "name": "_value",
          "type": "uint256"
        }
      ],
      "name": "burn",
      "outputs": [
        {
          "name": "success",
          "type": "bool"
        }
      ],
      "payable": false,
      "stateMutability": "nonpayable",
      "type": "function"
    },
    {
      "constant": false,
      "inputs": [
        {
          "name": "_value",
          "type": "uint256"
        }
      ],
      "name": "freeze",
      "outputs": [
        {
          "name": "success",
          "type": "bool"
        }
      ],
      "payable": false,
      "stateMutability": "nonpayable",
      "type": "function"
    },
    {
      "constant": false,
      "inputs": [
        {
          "name": "_value",
          "type": "uint256"
        }
      ],
      "name": "unfreeze",
      "outputs": [
        {
          "name": "success",
          "type": "bool"
        }
      ],
      "payable": false,
      "stateMutability": "nonpayable",
      "type": "function"
    },
    {
      "constant": false,
      "inputs": [
        {
          "name": "amount",
          "type": "uint256"
        }
      ],
      "name": "withdrawEther",
      "outputs": [],
      "payable": false,
      "stateMutability": "nonpayable",
      "type": "function"
    },
    {
      "constant": false,
      "inputs": [],
      "name": "kill",
      "outputs": [],
      "payable": false,
      "stateMutability": "nonpayable",
      "type": "function"
    }
  ],
  "bytecode": "0x608060405234801561001057600080fd5b50604051610bd0380380610bd08339810160409081528151602080840151838501516060860151336000908152600585529586208590556003859055918601805194969095919492019261006792908601906100ab565b50805161007b9060019060208401906100ab565b50506002805460ff90921660ff19909216919091179055505060048054600160a060020a03191633179055610146565b828054600181600116156101000203166002900490600052602060002090601f016020900481019282601f106100ec57805160ff1916838001178555610119565b82800160010185558215610119579182015b828111156101195782518255916020019190600101906100fe565b50610125929150610129565b5090565b61014391905b80821115610125576000815560010161012f565b90565b610a7b806101556000396000f3006080604052600436106100e55763ffffffff7c010000000000000000000000000000000000000000000000000000000060003504166306fdde0381146100e7578063095ea7b31461017157806318160ddd146101a957806323b872dd146101d0578063313ce567146101fa5780633bed33ce1461022557806341c0e1b51461023d57806342966c68146102525780636623fc461461026a57806370a08231146102825780638da5cb5b146102a357806395d89b41146102d4578063a9059cbb146102e9578063cd4217c11461030d578063d7a78db81461032e578063dd62ed3e14610346575b005b3480156100f357600080fd5b506100fc61036d565b6040805160208082528351818301528351919283929083019185019080838360005b8381101561013657818101518382015260200161011e565b50505050905090810190601f1680156101635780820380516001836020036101000a031916815260200191505b509250505060405180910390f35b34801561017d57600080fd5b50610195600160a060020a03600435166024356103fb565b604080519115158252519081900360200190f35b3480156101b557600080fd5b506101be610437565b60408051918252519081900360200190f35b3480156101dc57600080fd5b50610195600160a060020a036004358116906024351660443561043d565b34801561020657600080fd5b5061020f6105d6565b6040805160ff9092168252519081900360200190f35b34801561023157600080fd5b506100e56004356105df565b34801561024957600080fd5b506100e5610634565b34801561025e57600080fd5b50610195600435610659565b34801561027657600080fd5b506101956004356106f9565b34801561028e57600080fd5b506101be600160a060020a03600435166107b2565b3480156102af57600080fd5b506102b86107c4565b60408051600160a060020a039092168252519081900360200190f35b3480156102e057600080fd5b506100fc6107d3565b3480156102f557600080fd5b506100e5600160a060020a036004351660243561082d565b34801561031957600080fd5b506101be600160a060020a0360043516610930565b34801561033a57600080fd5b50610195600435610942565b34801561035257600080fd5b506101be600160a060020a03600435811690602435166109fc565b6000805460408051602060026001851615610100026000190190941693909304601f810184900484028201840190925281815292918301828280156103f35780601f106103c8576101008083540402835291602001916103f3565b820191906000526020600020905b8154815290600101906020018083116103d657829003601f168201915b505050505081565b600080821161040957600080fd5b50336000908152600760209081526040808320600160a060020a039590951683529390529190912055600190565b60035481565b6000600160a060020a038316151561045457600080fd5b6000821161046157600080fd5b600160a060020a038416600090815260056020526040902054821061048557600080fd5b600160a060020a038316600090815260056020526040902054828101116104ab57600080fd5b600160a060020a03841660009081526007602090815260408083203384529091529020548211156104db57600080fd5b600160a060020a0384166000908152600560205260409020546104fe9083610a19565b600160a060020a03808616600090815260056020526040808220939093559085168152205461052d9083610a2b565b600160a060020a03808516600090815260056020908152604080832094909455918716815260078252828120338252909152205461056b9083610a19565b600160a060020a03808616600081815260076020908152604080832033845282529182902094909455805186815290519287169391927fddf252ad1be2c89b69c2b068fc378daa952ba7f163c4a11628f55a4df523b3ef929181900390910190a35060019392505050565b60025460ff1681565b600454600160a060020a031633146105f657600080fd5b600454604051600160a060020a039091169082156108fc029083906000818181858888f19350505050158015610630573d6000803e3d6000fd5b5050565b600454600160a060020a0316331461064b57600080fd5b600454600160a060020a0316ff5b33600090815260056020526040812054821061067457600080fd5b6000821161068157600080fd5b3360009081526005602052604090205461069b9083610a19565b336000908152600560205260409020556003546106b89083610a19565b60035560408051838152905133917fcc16f5dbb4873280815c1ee09dbd06736cffcc184412cf7a71a0fdb75d397ca5919081900360200190a2506001919050565b33600090815260066020526040812054821061071457600080fd5b6000821161072157600080fd5b3360009081526006602052604090205461073b9083610a19565b336000908152600660209081526040808320939093556005905220546107619083610a2b565b33600081815260056020908152604091829020939093558051858152905191927f2cfce4af01bcb9d6cf6c84ee1b7c491100b8695368264146a94d71e10a63083f92918290030190a2506001919050565b60056020526000908152604090205481565b600454600160a060020a031681565b60018054604080516020600284861615610100026000190190941693909304601f810184900484028201840190925281815292918301828280156103f35780601f106103c8576101008083540402835291602001916103f3565b600160a060020a038216151561084257600080fd5b6000811161084f57600080fd5b3360009081526005602052604090205481111561086b57600080fd5b600160a060020a0382166000908152600560205260409020548181011161089157600080fd5b336000908152600560205260409020546108ab9082610a19565b3360009081526005602052604080822092909255600160a060020a038416815220546108d79082610a2b565b600160a060020a0383166000818152600560209081526040918290209390935580518481529051919233927fddf252ad1be2c89b69c2b068fc378daa952ba7f163c4a11628f55a4df523b3ef9281900390910190a35050565b60066020526000908152604090205481565b33600090815260056020526040812054821061095d57600080fd5b600082101561096b57600080fd5b336000908152600560205260409020546109859083610a19565b336000908152600560209081526040808320939093556006905220546109ab9083610a2b565b33600081815260066020908152604091829020939093558051858152905191927ff97a274face0b5517365ad396b1fdba6f68bd3135ef603e44272adba3af5a1e092918290030190a2506001919050565b600760209081526000928352604080842090915290825290205481565b600082821115610a2557fe5b50900390565b6000828201838110801590610a405750828110155b1515610a4857fe5b93925050505600a165627a7a723058209700f593d00e63b64b7cf71273d8dffe88c759cae8497c49951f922d32a71cfd0029",
  "source": "\npragma solidity ^0.4.24;\n\ncontract SafeMath {\n  function safeMul(uint256 a, uint256 b)  internal pure returns (uint256) {\n    uint256 c = a * b;\n    assert(a == 0 || c / a == b);\n    return c;\n  }\n\n  function safeDiv(uint256 a, uint256 b)  internal pure returns (uint256) {\n    assert(b > 0);\n    uint256 c = a / b;\n    assert(a == b * c + a % b);\n    return c;\n  }\n\n  function safeSub(uint256 a, uint256 b)  internal pure returns (uint256) {\n    assert(b <= a);\n    return a - b;\n  }\n\n  function safeAdd(uint256 a, uint256 b)  internal pure returns (uint256) {\n    uint256 c = a + b;\n    assert(c>=a && c>=b);\n    return c;\n  }\n}\ncontract XFT is SafeMath{\n    string public name;\n    string public symbol;\n    uint8 public decimals;\n    uint256 public totalSupply;\n\taddress public owner;\n\n    mapping (address => uint256) public balanceOf;\n\tmapping (address => uint256) public freezeOf;\n    mapping (address => mapping (address => uint256)) public allowance;\n\n    event Transfer(address indexed from, address indexed to, uint256 value);\n\n    event Burn(address indexed from, uint256 value);\n    event Freeze(address indexed from, uint256 value);\n    event Unfreeze(address indexed from, uint256 value);\n\n    constructor(\n        uint256 initialSupply,\n        string tokenName,\n        uint8 decimalUnits,\n        string tokenSymbol\n        ) public  {\n        balanceOf[msg.sender] = initialSupply;              // Give the creator all initial tokens\n        totalSupply = initialSupply;                        // Update total supply\n        name = tokenName;                                   // Set the name for display purposes\n        symbol = tokenSymbol;                               // Set the symbol for display purposes\n        decimals = decimalUnits;                            // Amount of decimals for display purposes\n\t\towner = msg.sender;\n    }\n\n    function transfer(address _to, uint256 _value) public {\n        require (_to != 0x0) ;                            // Prevent transfer to 0x0 address. Use burn() instead\n\t\trequire (_value > 0) ; \n        require (balanceOf[msg.sender] >= _value) ;           // Check if the sender has enough\n        require (balanceOf[_to] + _value > balanceOf[_to]) ; // Check for overflows\n        balanceOf[msg.sender] = SafeMath.safeSub(balanceOf[msg.sender], _value);                     // Subtract from the sender\n        balanceOf[_to] = SafeMath.safeAdd(balanceOf[_to], _value);                            // Add the same to the recipient\n        emit Transfer(msg.sender, _to, _value);                   // Notify anyone listening that this transfer took place\n    }\n\n    function approve(address _spender, uint256 _value) public\n        returns (bool success) {\n\t\trequire (_value > 0) ; \n        allowance[msg.sender][_spender] = _value;\n        return true;\n    }\n       \n\n    function transferFrom(address _from, address _to, uint256 _value) public returns (bool success) {\n        require (_to != 0x0) ;                                // Prevent transfer to 0x0 address. Use burn() instead\n\t\trequire (_value > 0) ; \n        require (balanceOf[_from] > _value) ;                 // Check if the sender has enough\n        require (balanceOf[_to] + _value > balanceOf[_to]) ;  // Check for overflows\n        require (_value <= allowance[_from][msg.sender]) ;     // Check allowance\n        balanceOf[_from] = SafeMath.safeSub(balanceOf[_from], _value);                           // Subtract from the sender\n        balanceOf[_to] = SafeMath.safeAdd(balanceOf[_to], _value);                             // Add the same to the recipient\n        allowance[_from][msg.sender] = SafeMath.safeSub(allowance[_from][msg.sender], _value);\n        emit Transfer(_from, _to, _value);\n        return true;\n    }\n\n    function burn(uint256 _value) public returns (bool success) {\n        require (balanceOf[msg.sender] > _value) ;            // Check if the sender has enough\n\t\trequire (_value > 0) ; \n        balanceOf[msg.sender] = SafeMath.safeSub(balanceOf[msg.sender], _value);                      // Subtract from the sender\n        totalSupply = SafeMath.safeSub(totalSupply,_value);                                // Updates totalSupply\n        emit Burn(msg.sender, _value);\n        return true;\n    }\n\t\n\tfunction freeze(uint256 _value) public returns (bool success) {\n        require (balanceOf[msg.sender] > _value) ;            // Check if the sender has enough\n\t\trequire (_value >= 0) ; \n        balanceOf[msg.sender] = SafeMath.safeSub(balanceOf[msg.sender], _value);                      // Subtract from the sender\n        freezeOf[msg.sender] = SafeMath.safeAdd(freezeOf[msg.sender], _value);                                // Updates totalSupply\n        emit Freeze(msg.sender, _value);\n        return true;\n    }\n\t\n\tfunction unfreeze(uint256 _value) public returns (bool success) {\n        require (freezeOf[msg.sender] > _value) ;            // Check if the sender has enough\n\t\trequire (_value > 0) ; \n        freezeOf[msg.sender] = SafeMath.safeSub(freezeOf[msg.sender], _value);                      // Subtract from the sender\n\t\tbalanceOf[msg.sender] = SafeMath.safeAdd(balanceOf[msg.sender], _value);\n        emit Unfreeze(msg.sender, _value);\n        return true;\n    }\n\t\n\tfunction withdrawEther(uint256 amount) public  {\n\t\trequire(msg.sender == owner);\n\t\towner.transfer(amount);\n\t}\n\t\n\tfunction() public payable {\n    }\n    \n  function kill() public {\n        require(msg.sender == owner);\n        selfdestruct(owner);\n    }\n}",
  "sourcePath": "/home/zeus/Desktop/home/Ethereum/Seafoodcasestudy/Ethereum-nodejs/contracts/XFT.sol",
  "compiler": {
    "name": "solc",
    "version": "0.4.26+commit.4563c3fc.Emscripten.clang"
  },
  "schemaVersion": "3.0.18",
  "updatedAt": "2020-04-13T12:44:14.256Z",
  "networkType": "ethereum",
  "devdoc": {
    "methods": {}
  },
  "userdoc": {
    "methods": {}
  }
}