{
  "contractName": "AssetCore",
  "abi": [
    {
      "constant": false,
      "inputs": [
        {
          "name": "_spender",
          "type": "address"
        },
        {
          "name": "_value",
          "type": "uint256"
        }
      ],
      "name": "approve",
      "outputs": [
        {
          "name": "",
          "type": "bool"
        }
      ],
      "payable": false,
      "stateMutability": "nonpayable",
      "type": "function"
    },
    {
      "constant": false,
      "inputs": [
        {
          "name": "_address",
          "type": "address"
        }
      ],
      "name": "removeMember",
      "outputs": [],
      "payable": false,
      "stateMutability": "nonpayable",
      "type": "function"
    },
    {
      "constant": false,
      "inputs": [
        {
          "name": "_address",
          "type": "address"
        },
        {
          "name": "_name",
          "type": "string"
        }
      ],
      "name": "addSupplier",
      "outputs": [],
      "payable": false,
      "stateMutability": "nonpayable",
      "type": "function"
    },
    {
      "constant": false,
      "inputs": [
        {
          "name": "_address",
          "type": "address"
        },
        {
          "name": "_name",
          "type": "string"
        }
      ],
      "name": "addConsumer",
      "outputs": [],
      "payable": false,
      "stateMutability": "nonpayable",
      "type": "function"
    },
    {
      "constant": false,
      "inputs": [
        {
          "name": "_from",
          "type": "address"
        },
        {
          "name": "_to",
          "type": "address"
        },
        {
          "name": "_value",
          "type": "uint256"
        }
      ],
      "name": "transferFrom",
      "outputs": [
        {
          "name": "",
          "type": "bool"
        }
      ],
      "payable": false,
      "stateMutability": "nonpayable",
      "type": "function"
    },
    {
      "constant": false,
      "inputs": [
        {
          "name": "_address",
          "type": "address"
        },
        {
          "name": "_name",
          "type": "string"
        }
      ],
      "name": "addProducer",
      "outputs": [],
      "payable": false,
      "stateMutability": "nonpayable",
      "type": "function"
    },
    {
      "constant": true,
      "inputs": [
        {
          "name": "",
          "type": "uint256"
        }
      ],
      "name": "users",
      "outputs": [
        {
          "name": "_address",
          "type": "address"
        },
        {
          "name": "_username",
          "type": "string"
        },
        {
          "name": "_type",
          "type": "uint8"
        },
        {
          "name": "_balance",
          "type": "uint256"
        },
        {
          "name": "_isAlive",
          "type": "bool"
        },
        {
          "name": "_updatedAt",
          "type": "uint256"
        },
        {
          "name": "_createdAt",
          "type": "uint256"
        }
      ],
      "payable": false,
      "stateMutability": "view",
      "type": "function"
    },
    {
      "constant": true,
      "inputs": [
        {
          "name": "_id",
          "type": "bytes32"
        }
      ],
      "name": "getAssetById",
      "outputs": [
        {
          "name": "",
          "type": "bytes32"
        },
        {
          "name": "",
          "type": "string"
        },
        {
          "name": "",
          "type": "uint256"
        },
        {
          "name": "",
          "type": "uint256"
        },
        {
          "name": "",
          "type": "bytes32"
        },
        {
          "name": "",
          "type": "string"
        },
        {
          "name": "",
          "type": "string"
        }
      ],
      "payable": false,
      "stateMutability": "view",
      "type": "function"
    },
    {
      "constant": false,
      "inputs": [],
      "name": "kill",
      "outputs": [],
      "payable": false,
      "stateMutability": "nonpayable",
      "type": "function"
    },
    {
      "constant": true,
      "inputs": [
        {
          "name": "_address",
          "type": "address"
        }
      ],
      "name": "ownerAllowed",
      "outputs": [
        {
          "name": "",
          "type": "bool"
        }
      ],
      "payable": false,
      "stateMutability": "view",
      "type": "function"
    },
    {
      "constant": true,
      "inputs": [
        {
          "name": "_address",
          "type": "address"
        }
      ],
      "name": "getUserByAddress",
      "outputs": [
        {
          "name": "",
          "type": "string"
        },
        {
          "name": "",
          "type": "string"
        },
        {
          "name": "",
          "type": "uint256"
        }
      ],
      "payable": false,
      "stateMutability": "view",
      "type": "function"
    },
    {
      "constant": true,
      "inputs": [
        {
          "name": "_owner",
          "type": "address"
        }
      ],
      "name": "balanceOf",
      "outputs": [
        {
          "name": "",
          "type": "uint256"
        }
      ],
      "payable": false,
      "stateMutability": "view",
      "type": "function"
    },
    {
      "constant": false,
      "inputs": [
        {
          "name": "_address",
          "type": "address"
        },
        {
          "name": "_name",
          "type": "string"
        },
        {
          "name": "_value",
          "type": "uint256"
        },
        {
          "name": "_quantity",
          "type": "uint256"
        }
      ],
      "name": "createAsset",
      "outputs": [],
      "payable": false,
      "stateMutability": "nonpayable",
      "type": "function"
    },
    {
      "constant": true,
      "inputs": [],
      "name": "owner",
      "outputs": [
        {
          "name": "",
          "type": "address"
        }
      ],
      "payable": false,
      "stateMutability": "view",
      "type": "function"
    },
    {
      "constant": false,
      "inputs": [
        {
          "name": "_address",
          "type": "address"
        }
      ],
      "name": "addMembers",
      "outputs": [],
      "payable": false,
      "stateMutability": "nonpayable",
      "type": "function"
    },
    {
      "constant": false,
      "inputs": [
        {
          "name": "_amount",
          "type": "uint256"
        }
      ],
      "name": "mint",
      "outputs": [],
      "payable": false,
      "stateMutability": "nonpayable",
      "type": "function"
    },
    {
      "constant": false,
      "inputs": [
        {
          "name": "_to",
          "type": "address"
        },
        {
          "name": "_value",
          "type": "uint256"
        }
      ],
      "name": "transfer",
      "outputs": [
        {
          "name": "",
          "type": "bool"
        }
      ],
      "payable": false,
      "stateMutability": "nonpayable",
      "type": "function"
    },
    {
      "constant": false,
      "inputs": [
        {
          "name": "_address",
          "type": "address"
        },
        {
          "name": "_value",
          "type": "uint256"
        }
      ],
      "name": "requestTokens",
      "outputs": [],
      "payable": false,
      "stateMutability": "nonpayable",
      "type": "function"
    },
    {
      "constant": true,
      "inputs": [],
      "name": "getUserCount",
      "outputs": [
        {
          "name": "_count",
          "type": "uint256"
        }
      ],
      "payable": false,
      "stateMutability": "view",
      "type": "function"
    },
    {
      "constant": true,
      "inputs": [
        {
          "name": "_address",
          "type": "address"
        },
        {
          "name": "_index",
          "type": "uint256"
        }
      ],
      "name": "getAssetByIndex",
      "outputs": [
        {
          "name": "",
          "type": "bytes32"
        },
        {
          "name": "",
          "type": "string"
        },
        {
          "name": "",
          "type": "uint256"
        },
        {
          "name": "",
          "type": "uint256"
        },
        {
          "name": "",
          "type": "bytes32"
        },
        {
          "name": "",
          "type": "string"
        },
        {
          "name": "",
          "type": "string"
        }
      ],
      "payable": false,
      "stateMutability": "view",
      "type": "function"
    },
    {
      "constant": false,
      "inputs": [
        {
          "name": "_address",
          "type": "address"
        },
        {
          "name": "_id",
          "type": "bytes32"
        },
        {
          "name": "_value",
          "type": "uint256"
        },
        {
          "name": "_quantity",
          "type": "uint256"
        }
      ],
      "name": "editAsset",
      "outputs": [],
      "payable": false,
      "stateMutability": "nonpayable",
      "type": "function"
    },
    {
      "constant": true,
      "inputs": [
        {
          "name": "_index",
          "type": "uint256"
        }
      ],
      "name": "getUserAddressByIndex",
      "outputs": [
        {
          "name": "",
          "type": "address"
        }
      ],
      "payable": false,
      "stateMutability": "view",
      "type": "function"
    },
    {
      "constant": true,
      "inputs": [],
      "name": "tokenDetails",
      "outputs": [
        {
          "name": "",
          "type": "string"
        },
        {
          "name": "",
          "type": "string"
        },
        {
          "name": "",
          "type": "uint8"
        },
        {
          "name": "",
          "type": "uint256"
        }
      ],
      "payable": false,
      "stateMutability": "view",
      "type": "function"
    },
    {
      "constant": true,
      "inputs": [
        {
          "name": "_owner",
          "type": "address"
        },
        {
          "name": "_spender",
          "type": "address"
        }
      ],
      "name": "allowance",
      "outputs": [
        {
          "name": "",
          "type": "uint256"
        }
      ],
      "payable": false,
      "stateMutability": "view",
      "type": "function"
    },
    {
      "constant": true,
      "inputs": [
        {
          "name": "_address",
          "type": "address"
        }
      ],
      "name": "getAssetCount",
      "outputs": [
        {
          "name": "_count",
          "type": "uint256"
        }
      ],
      "payable": false,
      "stateMutability": "view",
      "type": "function"
    },
    {
      "constant": false,
      "inputs": [
        {
          "name": "newOwner",
          "type": "address"
        }
      ],
      "name": "transferOwnership",
      "outputs": [],
      "payable": false,
      "stateMutability": "nonpayable",
      "type": "function"
    },
    {
      "anonymous": false,
      "inputs": [
        {
          "indexed": true,
          "name": "_to",
          "type": "address"
        },
        {
          "indexed": true,
          "name": "_from",
          "type": "address"
        },
        {
          "indexed": false,
          "name": "_id",
          "type": "bytes32"
        },
        {
          "indexed": false,
          "name": "_name",
          "type": "string"
        },
        {
          "indexed": false,
          "name": "_value",
          "type": "uint256"
        },
        {
          "indexed": false,
          "name": "_quantity",
          "type": "uint256"
        },
        {
          "indexed": false,
          "name": "_timestamp",
          "type": "uint256"
        }
      ],
      "name": "LogTransferAssetEvent",
      "type": "event"
    },
    {
      "anonymous": false,
      "inputs": [
        {
          "indexed": false,
          "name": "_address",
          "type": "address"
        },
        {
          "indexed": false,
          "name": "_sensorId",
          "type": "bytes32"
        },
        {
          "indexed": false,
          "name": "_name",
          "type": "string"
        },
        {
          "indexed": false,
          "name": "_timestamp",
          "type": "uint256"
        }
      ],
      "name": "LogSensorAddedEvent",
      "type": "event"
    },
    {
      "anonymous": false,
      "inputs": [
        {
          "indexed": false,
          "name": "_supplier",
          "type": "address"
        },
        {
          "indexed": false,
          "name": "_transactionId",
          "type": "bytes32"
        },
        {
          "indexed": false,
          "name": "_status",
          "type": "string"
        },
        {
          "indexed": false,
          "name": "_timestamp",
          "type": "uint256"
        }
      ],
      "name": "LogSupplierSensorAlert",
      "type": "event"
    },
    {
      "anonymous": false,
      "inputs": [
        {
          "indexed": false,
          "name": "_supplier",
          "type": "address"
        },
        {
          "indexed": false,
          "name": "_sensorId",
          "type": "bytes32"
        },
        {
          "indexed": false,
          "name": "_status",
          "type": "string"
        },
        {
          "indexed": false,
          "name": "_timestamp",
          "type": "uint256"
        }
      ],
      "name": "LogSensorUpdateEvent",
      "type": "event"
    },
    {
      "anonymous": false,
      "inputs": [
        {
          "indexed": false,
          "name": "_transactionId",
          "type": "bytes32"
        },
        {
          "indexed": false,
          "name": "_status",
          "type": "string"
        },
        {
          "indexed": false,
          "name": "_timestamp",
          "type": "uint256"
        }
      ],
      "name": "LogTransactionUpdateEvent",
      "type": "event"
    },
    {
      "anonymous": false,
      "inputs": [
        {
          "indexed": true,
          "name": "_address",
          "type": "address"
        },
        {
          "indexed": false,
          "name": "_id",
          "type": "bytes32"
        },
        {
          "indexed": false,
          "name": "_name",
          "type": "string"
        },
        {
          "indexed": false,
          "name": "_value",
          "type": "uint256"
        },
        {
          "indexed": false,
          "name": "_quantity",
          "type": "uint256"
        },
        {
          "indexed": false,
          "name": "_createdAt",
          "type": "uint256"
        }
      ],
      "name": "LogNewAssetEvent",
      "type": "event"
    },
    {
      "anonymous": false,
      "inputs": [
        {
          "indexed": true,
          "name": "_userAddress",
          "type": "address"
        },
        {
          "indexed": false,
          "name": "_id",
          "type": "bytes32"
        },
        {
          "indexed": false,
          "name": "_name",
          "type": "string"
        },
        {
          "indexed": false,
          "name": "_value",
          "type": "uint256"
        },
        {
          "indexed": false,
          "name": "_quantity",
          "type": "uint256"
        },
        {
          "indexed": false,
          "name": "_updatedAt",
          "type": "uint256"
        }
      ],
      "name": "LogUpdateAssetEvent",
      "type": "event"
    },
    {
      "anonymous": false,
      "inputs": [
        {
          "indexed": true,
          "name": "_userAddress",
          "type": "address"
        },
        {
          "indexed": false,
          "name": "_username",
          "type": "string"
        },
        {
          "indexed": false,
          "name": "_name",
          "type": "string"
        },
        {
          "indexed": false,
          "name": "_deletedAt",
          "type": "uint256"
        }
      ],
      "name": "LogDeleteAssetEvent",
      "type": "event"
    },
    {
      "anonymous": false,
      "inputs": [
        {
          "indexed": true,
          "name": "_userAddress",
          "type": "address"
        },
        {
          "indexed": false,
          "name": "_username",
          "type": "string"
        },
        {
          "indexed": false,
          "name": "_type",
          "type": "string"
        },
        {
          "indexed": false,
          "name": "_balance",
          "type": "uint256"
        },
        {
          "indexed": false,
          "name": "_createdAt",
          "type": "uint256"
        }
      ],
      "name": "LogNewUserEvent",
      "type": "event"
    },
    {
      "anonymous": false,
      "inputs": [
        {
          "indexed": false,
          "name": "_address",
          "type": "address"
        },
        {
          "indexed": false,
          "name": "_value",
          "type": "uint256"
        }
      ],
      "name": "LogLockedFundsEvent",
      "type": "event"
    },
    {
      "anonymous": false,
      "inputs": [
        {
          "indexed": false,
          "name": "_address",
          "type": "address"
        },
        {
          "indexed": false,
          "name": "_value",
          "type": "uint256"
        }
      ],
      "name": "LogReleasedFundsEvent",
      "type": "event"
    },
    {
      "anonymous": false,
      "inputs": [
        {
          "indexed": true,
          "name": "previousOwner",
          "type": "address"
        },
        {
          "indexed": true,
          "name": "newOwner",
          "type": "address"
        }
      ],
      "name": "OwnershipTransferred",
      "type": "event"
    },
    {
      "anonymous": false,
      "inputs": [
        {
          "indexed": true,
          "name": "account",
          "type": "address"
        }
      ],
      "name": "MemberAdded",
      "type": "event"
    },
    {
      "anonymous": false,
      "inputs": [
        {
          "indexed": true,
          "name": "account",
          "type": "address"
        }
      ],
      "name": "MemberRemoved",
      "type": "event"
    },
    {
      "anonymous": false,
      "inputs": [
        {
          "indexed": true,
          "name": "from",
          "type": "address"
        },
        {
          "indexed": true,
          "name": "to",
          "type": "address"
        },
        {
          "indexed": false,
          "name": "value",
          "type": "uint256"
        }
      ],
      "name": "Transfer",
      "type": "event"
    },
    {
      "anonymous": false,
      "inputs": [
        {
          "indexed": true,
          "name": "owner",
          "type": "address"
        },
        {
          "indexed": true,
          "name": "spender",
          "type": "address"
        },
        {
          "indexed": false,
          "name": "value",
          "type": "uint256"
        }
      ],
      "name": "Approval",
      "type": "event"
    },
    {
      "constant": false,
      "inputs": [
        {
          "name": "_from",
          "type": "address"
        },
        {
          "name": "_to",
          "type": "address"
        },
        {
          "name": "_supplier",
          "type": "address"
        },
        {
          "name": "_id",
          "type": "bytes32"
        },
        {
          "name": "_quantity",
          "type": "uint256"
        },
        {
          "name": "_value",
          "type": "uint256"
        }
      ],
      "name": "transferAsset",
      "outputs": [
        {
          "name": "",
          "type": "bool"
        }
      ],
      "payable": false,
      "stateMutability": "nonpayable",
      "type": "function"
    },
    {
      "constant": false,
      "inputs": [
        {
          "name": "_address",
          "type": "address"
        },
        {
          "name": "_transactionId",
          "type": "bytes32"
        }
      ],
      "name": "cancelTransaction",
      "outputs": [],
      "payable": false,
      "stateMutability": "nonpayable",
      "type": "function"
    },
    {
      "constant": false,
      "inputs": [
        {
          "name": "_supplier",
          "type": "address"
        },
        {
          "name": "_transactionId",
          "type": "bytes32"
        },
        {
          "name": "_sensorId",
          "type": "bytes32"
        }
      ],
      "name": "updateTransactionSensorId",
      "outputs": [],
      "payable": false,
      "stateMutability": "nonpayable",
      "type": "function"
    },
    {
      "constant": false,
      "inputs": [
        {
          "name": "_supplier",
          "type": "address"
        },
        {
          "name": "_transactionId",
          "type": "bytes32"
        },
        {
          "name": "_sensorId",
          "type": "bytes32"
        }
      ],
      "name": "updateTransactionPickUp",
      "outputs": [],
      "payable": false,
      "stateMutability": "nonpayable",
      "type": "function"
    },
    {
      "constant": false,
      "inputs": [
        {
          "name": "_supplier",
          "type": "address"
        },
        {
          "name": "_transactionId",
          "type": "bytes32"
        },
        {
          "name": "_sensorId",
          "type": "bytes32"
        }
      ],
      "name": "updateTransactionCompleted",
      "outputs": [],
      "payable": false,
      "stateMutability": "nonpayable",
      "type": "function"
    },
    {
      "constant": true,
      "inputs": [
        {
          "name": "_address",
          "type": "address"
        },
        {
          "name": "_index",
          "type": "uint256"
        }
      ],
      "name": "getTransactionByAddress",
      "outputs": [
        {
          "name": "",
          "type": "bytes32"
        },
        {
          "name": "",
          "type": "string"
        },
        {
          "name": "",
          "type": "address"
        },
        {
          "name": "",
          "type": "address"
        },
        {
          "name": "",
          "type": "address"
        },
        {
          "name": "",
          "type": "bytes32"
        },
        {
          "name": "",
          "type": "string"
        },
        {
          "name": "",
          "type": "uint256"
        },
        {
          "name": "",
          "type": "uint256"
        }
      ],
      "payable": false,
      "stateMutability": "view",
      "type": "function"
    },
    {
      "constant": true,
      "inputs": [
        {
          "name": "_transactionId",
          "type": "bytes32"
        }
      ],
      "name": "getTransactionById",
      "outputs": [
        {
          "name": "",
          "type": "bytes32"
        },
        {
          "name": "",
          "type": "string"
        },
        {
          "name": "",
          "type": "address"
        },
        {
          "name": "",
          "type": "address"
        },
        {
          "name": "",
          "type": "address"
        },
        {
          "name": "",
          "type": "bytes32"
        },
        {
          "name": "",
          "type": "string"
        },
        {
          "name": "",
          "type": "uint256"
        },
        {
          "name": "",
          "type": "uint256"
        }
      ],
      "payable": false,
      "stateMutability": "view",
      "type": "function"
    },
    {
      "constant": true,
      "inputs": [
        {
          "name": "_address",
          "type": "address"
        }
      ],
      "name": "getTransactionCount",
      "outputs": [
        {
          "name": "",
          "type": "uint256"
        }
      ],
      "payable": false,
      "stateMutability": "view",
      "type": "function"
    }
  ],
  "bytecode": "0x60806040526200000e62000d15565b60008054600160a060020a031916339081179091556200003f9060019064010000000062004048620001ec82021704565b6040805180820190915260098082527f46435420546f6b656e00000000000000000000000000000000000000000000006020909201918252620000859160069162000d54565b506040805180820190915260038082527f46435400000000000000000000000000000000000000000000000000000000006020909201918252620000cc9160079162000d54565b506008805460ff1916600a1790556402540be4006005819055336000818152600260209081526040808320859055805194855251929391927fddf252ad1be2c89b69c2b068fc378daa952ba7f163c4a11628f55a4df523b3ef9281900390910190a36200014164010000000062000211810204565b6040805160e08101825233815281518083018352600581527f41444d494e00000000000000000000000000000000000000000000000000000060208281019190915282015290810160008152602001620001a433640100000000620003c3810204565b81526001602082015242604082018190526060909101529050620001d23382640100000000620003de810204565b50620001e66401000000006200074c810204565b62000df9565b600160a060020a0316600090815260209190915260409020805460ff19166001179055565b60408051808201909152600581527f41444d494e0000000000000000000000000000000000000000000000000000006020808301918252600080526009905290516200027f917fec8156718a8372b1db44bb411437d0870f3e3790d4a08526d024ce1b0b668f6b9162000d54565b5060408051808201909152600881527f50524f445543455200000000000000000000000000000000000000000000000060208083019182526001600052600990529051620002ef917f92e85d02570a8092d09a6e3a57665bc3815a2699a4074001bf1ccabf660f5a369162000d54565b5060408051808201909152600881527f434f4e53554d4552000000000000000000000000000000000000000000000000602080830191825260026000526009905290516200035f917f6cde3cea4b3a3fb2488b2808bae7556f4a405e50f65e1794383bc026131b13c39162000d54565b5060408051808201909152600881527f535550504c49455200000000000000000000000000000000000000000000000060208201526009600060035b81526020808201929092526040016000208251620003c0939192919091019062000d54565b50565b600160a060020a031660009081526002602052604090205490565b600160a060020a0382166000908152600c602052604090206004015460ff16156200046a57604080517f08c379a000000000000000000000000000000000000000000000000000000000815260206004820152601260248201527f5573657220616c72656164792065786973740000000000000000000000000000604482015290519081900360640190fd5b600b80546001810180835560009290925282517f0175b7a638427703f0dbe7bb9bbf987a2551717b34e79f33b5b1008d1fa01db960079092029182018054600160a060020a031916600160a060020a0390921691909117815560208085015180518694620004ff937f0175b7a638427703f0dbe7bb9bbf987a2551717b34e79f33b5b1008d1fa01dba90910192019062000d54565b50604082015160028201805460ff191660018360038111156200051e57fe5b021790555060608201516003820155608082015160048201805460ff191691151591909117905560a0820151600582015560c09091015160069091015550600160a060020a038281166000908152600c6020908152604090912083518154600160a060020a0319169316929092178255828101518051849392620005aa92600185019291019062000d54565b50604082015160028201805460ff19166001836003811115620005c957fe5b021790555060608201516003820155608082015160048201805460ff191691151591909117905560a0820151600582015560c09091015160069091015560208101516040820151600160a060020a038416917fc847e6f60ca9d046e82cc9869608ea59d7b79d63d9ad3f3fdc9fa994a381596391620006519064010000000062000c5d810204565b846060015142604051808060200180602001858152602001848152602001838103835287818151815260200191508051906020019080838360005b83811015620006a65781810151838201526020016200068c565b50505050905090810190601f168015620006d45780820380516001836020036101000a031916815260200191505b50838103825286518152865160209182019188019080838360005b8381101562000709578181015183820152602001620006ef565b50505050905090810190601f168015620007375780820380516001836020036101000a031916815260200191505b50965050505050505060405180910390a25050565b60408051808201909152600981527f415641494c41424c45000000000000000000000000000000000000000000000060208083019182526002600052600a90529051620007bb917fbff4442b8ed600beeb8e26b1279a0f0d14c6edfaec26d968ee13c86f7d4c2ba89162000d54565b5060408051808201909152600a8082527f4f4e5f5448455f57415900000000000000000000000000000000000000000000602080840191825260046000529190915290516200082c917fe1eb2b2161a492c07c5a334e48012567cba93ec021043f53c1955516a3c5a8419162000d54565b5060408051808201909152600981527f434f4d504c45544544000000000000000000000000000000000000000000000060208083019182526008600052600a905290516200089c917f2c1fd36ba11b13b555f58753742999069764391f450ca8727fe8a3eeffe677759162000d54565b5060408051808201909152600981527f44454c495645524544000000000000000000000000000000000000000000000060208083019182526006600052600a905290516200090c917f10d9dd018e4cae503383c9f804c1c1603ada5856ee7894375d9b97cd8c8b27db9162000d54565b5060408051808201909152600781527f50454e44494e47000000000000000000000000000000000000000000000000006020808301918252600a6000819052905290516200097c917f3e57c57b03145299956be61386751c5b285d460d484d5c2403a6be086d9d6baa9162000d54565b5060408051808201909152600781527f53554343455353000000000000000000000000000000000000000000000000006020808301918252600b600052600a90529051620009ec917fb3569174ca605aeef264a9f01151dace4275a70316034aaf090d8468560f043b9162000d54565b5060408051808201909152600481527f4445414400000000000000000000000000000000000000000000000000000000602080830191825260008052600a9052905162000a5b917f13da86008ba1c6922daee3e07db95305ef49ebced9f5467a0b8613fcc6b343e39162000d54565b5060408051808201909152600581527f414c49564500000000000000000000000000000000000000000000000000000060208083019182526001600052600a9052905162000acb917fbbc70db1b6c7afd11e79c0fb0051300458f1a3acb8ee9789d9b6b26c61ad9bc79162000d54565b5060408051808201909152600b81527f544f5f42455f414444454400000000000000000000000000000000000000000060208083019182526003600052600a9052905162000b3b917fa856840544dc26124927add067d799967eac11be13e14d82cc281ea46fa397599162000d54565b5060408051808201909152600b81527f494e5f50524f475245535300000000000000000000000000000000000000000060208083019182526007600052600a9052905162000bab917f22e39f61d1e4986b4f116cea9067f62cc77d74dff1780ae9c8b5166d1dd288299162000d54565b5060408051808201909152600981527f5049434b45445f5550000000000000000000000000000000000000000000000060208083019182526005600052600a9052905162000c1b917ff35035bc2b01d44bd35a1dcdc552315cffb73da35cfd60570b7b777f98036f9f9162000d54565b506040805180820190915260098082527f43414e43454c4c454400000000000000000000000000000000000000000000006020830152600a906000906200039b565b60606009600083600381111562000c7057fe5b815260208082019290925260409081016000208054825160026000196001841615610100020190921691909104601f81018590048502820185019093528281529290919083018282801562000d095780601f1062000cdd5761010080835404028352916020019162000d09565b820191906000526020600020905b81548152906001019060200180831162000ceb57829003601f168201915b50505050509050919050565b6040805160e081018252600080825260606020830152909182019081526020016000815260200160001515815260200160008152602001600081525090565b828054600181600116156101000203166002900490600052602060002090601f016020900481019282601f1062000d9757805160ff191683800117855562000dc7565b8280016001018555821562000dc7579182015b8281111562000dc757825182559160200191906001019062000daa565b5062000dd592915062000dd9565b5090565b62000df691905b8082111562000dd5576000815560010162000de0565b90565b614f438062000e096000396000f3006080604052600436106101ab5763ffffffff7c0100000000000000000000000000000000000000000000000000000000600035041663036e6f7d81146101b0578063095ea7b3146102fa5780630b1ca49a146103325780631c933a3e14610355578063227cca091461038257806323b872dd146103af57806323ca0cd2146103d9578063274f97c61461040c578063365b98b214610439578063418325671461051757806341c0e1b514610693578063590d425c146106a85780635d99f0cb146106cf57806369c212f6146106f057806370a08231146107f657806378518b211461081757806381aa7bc11461083e5780638da5cb5b14610871578063939f284c146108a2578063a0712d68146108c3578063a890b7b4146108db578063a9059cbb146108f3578063af42156414610917578063b5cb15f71461093b578063b6f1604914610950578063b87eb14f14610974578063b930eb94146109aa578063c2693c25146109d1578063c58a5b0e146109f5578063cca76c5d14610a1f578063d6abe11014610a37578063dd62ed3e14610b3e578063dd7e37d614610b65578063f2fde38b14610b86575b600080fd5b3480156101bc57600080fd5b506101d4600160a060020a0360043516602435610ba7565b604080518a8152600160a060020a03808a16928201929092528782166060820152908616608082015260a0810185905260e08101839052610100810182905261012060208083018281528b51928401929092528a5160c0840191610140850191908d019080838360005b8381101561025657818101518382015260200161023e565b50505050905090810190601f1680156102835780820380516001836020036101000a031916815260200191505b50838103825286518152865160209182019188019080838360005b838110156102b657818101518382015260200161029e565b50505050905090810190601f1680156102e35780820380516001836020036101000a031916815260200191505b509b50505050505050505050505060405180910390f35b34801561030657600080fd5b5061031e600160a060020a0360043516602435610c8b565b604080519115158252519081900360200190f35b34801561033e57600080fd5b50610353600160a060020a0360043516610cf1565b005b34801561036157600080fd5b5061035360048035600160a060020a03169060248035908101910135610d61565b34801561038e57600080fd5b5061035360048035600160a060020a03169060248035908101910135610da3565b3480156103bb57600080fd5b5061031e600160a060020a0360043581169060243516604435610de0565b3480156103e557600080fd5b506103fa600160a060020a0360043516610f57565b60408051918252519081900360200190f35b34801561041857600080fd5b5061035360048035600160a060020a03169060248035908101910135610fd9565b34801561044557600080fd5b50610451600435611016565b6040518088600160a060020a0316600160a060020a031681526020018060200187600381111561047d57fe5b60ff16815260200186815260200185151515158152602001848152602001838152602001828103825288818151815260200191508051906020019080838360005b838110156104d65781810151838201526020016104be565b50505050905090810190601f1680156105035780820380516001836020036101000a031916815260200191505b509850505050505050505060405180910390f35b34801561052357600080fd5b5061052f600435611100565b60408051888152908101869052606081018590526080810184905260e06020808301828152895192840192909252885160a084019160c08501916101008601918c019080838360005b83811015610590578181015183820152602001610578565b50505050905090810190601f1680156105bd5780820380516001836020036101000a031916815260200191505b50848103835286518152865160209182019188019080838360005b838110156105f05781810151838201526020016105d8565b50505050905090810190601f16801561061d5780820380516001836020036101000a031916815260200191505b50848103825285518152855160209182019187019080838360005b83811015610650578181015183820152602001610638565b50505050905090810190601f16801561067d5780820380516001836020036101000a031916815260200191505b509a505050505050505050505060405180910390f35b34801561069f57600080fd5b5061035361139e565b3480156106b457600080fd5b50610353600160a060020a03600435166024356044356113d4565b3480156106db57600080fd5b5061031e600160a060020a036004351661171c565b3480156106fc57600080fd5b50610711600160a060020a036004351661172d565b604051808060200180602001848152602001838103835286818151815260200191508051906020019080838360005b83811015610758578181015183820152602001610740565b50505050905090810190601f1680156107855780820380516001836020036101000a031916815260200191505b50838103825285518152855160209182019187019080838360005b838110156107b85781810151838201526020016107a0565b50505050905090810190601f1680156107e55780820380516001836020036101000a031916815260200191505b509550505050505060405180910390f35b34801561080257600080fd5b506103fa600160a060020a03600435166118ee565b34801561082357600080fd5b50610353600160a060020a0360043516602435604435611909565b34801561084a57600080fd5b5061035360048035600160a060020a03169060248035908101910135604435606435611b70565b34801561087d57600080fd5b50610886611e43565b60408051600160a060020a039092168252519081900360200190f35b3480156108ae57600080fd5b50610353600160a060020a0360043516611e52565b3480156108cf57600080fd5b50610353600435611ec2565b3480156108e757600080fd5b506101d4600435611f7a565b3480156108ff57600080fd5b5061031e600160a060020a0360043516602435612199565b34801561092357600080fd5b50610353600160a060020a036004351660243561227a565b34801561094757600080fd5b506103fa6122ef565b34801561095c57600080fd5b5061052f600160a060020a03600435166024356122f6565b34801561098057600080fd5b5061031e600160a060020a036004358116906024358116906044351660643560843560a4356125f4565b3480156109b657600080fd5b50610353600160a060020a0360043516602435604435612a95565b3480156109dd57600080fd5b50610353600160a060020a0360043516602435612cf9565b348015610a0157600080fd5b50610353600160a060020a0360043516602435604435606435612fbf565b348015610a2b57600080fd5b506108866004356130fe565b348015610a4357600080fd5b50610a4c613195565b6040518080602001806020018560ff1660ff168152602001848152602001838103835287818151815260200191508051906020019080838360005b83811015610a9f578181015183820152602001610a87565b50505050905090810190601f168015610acc5780820380516001836020036101000a031916815260200191505b50838103825286518152865160209182019188019080838360005b83811015610aff578181015183820152602001610ae7565b50505050905090810190601f168015610b2c5780820380516001836020036101000a031916815260200191505b50965050505050505060405180910390f35b348015610b4a57600080fd5b506103fa600160a060020a03600435811690602435166132db565b348015610b7157600080fd5b506103fa600160a060020a0360043516613306565b348015610b9257600080fd5b50610353600160a060020a0360043516613388565b600160a060020a0382166000908152600c6020526040812060040154606090829081908190819085908290819081908c9060ff161515610c1f576040805160e560020a62461bcd0281526020600482015260136024820152600080516020614ed8833981519152604482015290519081900360640190fd5b610c298d8d613420565b600160a060020a038d16600090815260116020526040902080548d908110610c4d57fe5b90600052602060002090600a0201600001549150610c6a82611f7a565b9a509a509a509a509a509a509a509a509a5050509295985092959850929598565b336000818152600360209081526040808320600160a060020a038716808552908352818420869055815186815291519394909390927f8c5be1e5ebec7d5bd14f71427d1e84f3dd0314c0f7b2291e5b200ac8c7c3b925928290030190a350600192915050565b600054600160a060020a0316331480610d0e5750610d0e3361349e565b1515610d1957600080fd5b610d2a60018263ffffffff6134b116565b604051600160a060020a038216907f6e76fb4c77256006d9c38ec7d82b45a8c8f3c27b1d6766fffc42dfb8de68449290600090a250565b610d9e8383838080601f01602080910402602001604051908101604052809392919081815260200183838082843750600394506134d39350505050565b505050565b610d9e8383838080601f01602080910402602001604051908101604052809392919081815260200183838082843750600294506134d39350505050565b600160a060020a038316600090815260026020526040812054821115610e0557600080fd5b600160a060020a0384166000908152600360209081526040808320338452909152902054821115610e3557600080fd5b600160a060020a0383161515610e4a57600080fd5b600160a060020a038416600090815260026020526040902054610e73908363ffffffff61354616565b600160a060020a038086166000908152600260205260408082209390935590851681522054610ea8908363ffffffff61355816565b600160a060020a038085166000908152600260209081526040808320949094559187168152600382528281203382529091522054610eec908363ffffffff61354616565b600160a060020a03808616600081815260036020908152604080832033845282529182902094909455805186815290519287169391927fddf252ad1be2c89b69c2b068fc378daa952ba7f163c4a11628f55a4df523b3ef929181900390910190a35060019392505050565b600160a060020a0381166000908152600c6020526040812060040154829060ff161515610fbc576040805160e560020a62461bcd0281526020600482015260136024820152600080516020614ed8833981519152604482015290519081900360640190fd5b5050600160a060020a031660009081526011602052604090205490565b610d9e8383838080601f01602080910402602001604051908101604052809392919081815260200183838082843750600194506134d39350505050565b600b80548290811061102457fe5b600091825260209182902060079091020180546001808301805460408051601f6002600019968516156101000296909601909316949094049182018790048702840187019052808352600160a060020a0390931695509293909291908301828280156110d15780601f106110a6576101008083540402835291602001916110d1565b820191906000526020600020905b8154815290600101906020018083116110b457829003601f168201915b5050506002840154600385015460048601546005870154600690970154959660ff938416969295509216925087565b60006060600080600060608060008861111a816000613572565b1561115d576040805160e560020a62461bcd0281526020600482015260166024820152600080516020614ef8833981519152604482015290519081900360640190fd5b60008a8152600e60209081526040808320600180820154825460038085015460048601546005870154600160a060020a03909516808b52600c909952968920600281810154999c509399939096019790969593949390930192600a929160ff909116908111156111c957fe5b8152602080820192909252604090810160002087548251601f6002610100600185161502600019019093169290920491820185900485028101850190935280835290928891908301828280156112605780601f1061123557610100808354040283529160200191611260565b820191906000526020600020905b81548152906001019060200180831161124357829003601f168201915b5050855460408051602060026001851615610100026000190190941693909304601f8101849004840282018401909252818152959b50879450925084019050828280156112ee5780601f106112c3576101008083540402835291602001916112ee565b820191906000526020600020905b8154815290600101906020018083116112d157829003601f168201915b5050845460408051602060026001851615610100026000190190941693909304601f81018490048402820184019092528181529597508694509250840190508282801561137c5780601f106113515761010080835404028352916020019161137c565b820191906000526020600020905b81548152906001019060200180831161135f57829003601f168201915b5050505050905098509850985098509850985098505050919395979092949650565b600054600160a060020a03163314806113bb57506113bb3361349e565b15156113c657600080fd5b600054600160a060020a0316ff5b6113dc614cd5565b81600260008281526013602052604090206006015460ff16600b8111156113ff57fe5b14611454576040805160e560020a62461bcd02815260206004820152601f60248201527f53656e736f72206973206e6f7420617661696c61626c65206f72206465616400604482015290519081900360640190fd5b600160a060020a0385166000908152600c6020526040902060040154859060ff1615156114b9576040805160e560020a62461bcd0281526020600482015260136024820152600080516020614ed8833981519152604482015290519081900360640190fd5b6003600160a060020a0382166000908152600c602052604090206002015460ff1660038111156114e557fe5b14611560576040805160e560020a62461bcd02815260206004820152602160248201527f4f6e6c7920737570706c696572732061726520616c6c6f77656420746f20616460448201527f6400000000000000000000000000000000000000000000000000000000000000606482015290519081900360840190fd5b600085815260126020908152604091829020825161016081018452815481526001820154600160a060020a039081169382019390935260028201548316938101939093526003810154918216606084015290608083019060a060020a900460ff16600b8111156115cc57fe5b600b8111156115d757fe5b81526004820154602082015260058201546040820152600682015460608201526007820154608082015260088083015460a083015260099092015460c0909101529093506116289087908790613662565b611638868460c001516006613a07565b61164a83604001518460e00151613be0565b61165c83606001518460e00151613be0565b7fc51e93c04ee4a4a243e7a159d91bfa4cc84c7695578776a948ea54b760e52a2c836000015161168f8560800151613ca9565b6040805183815242918101829052606060208083018281528551928401929092528451608084019186019080838360005b838110156116d85781810151838201526020016116c0565b50505050905090810190601f1680156117055780820380516001836020036101000a031916815260200191505b5094505050505060405180910390a1505050505050565b60006117278261349e565b92915050565b606080600061173a614d2f565b600160a060020a0385166000908152600c6020526040902060040154859060ff16151561179f576040805160e560020a62461bcd0281526020600482015260136024820152600080516020614ed8833981519152604482015290519081900360640190fd5b600160a060020a038681166000908152600c6020908152604091829020825160e08101845281549094168452600180820180548551600261010094831615949094026000190190911692909204601f81018590048502830185019095528482529193858401939192918301828280156118595780601f1061182e57610100808354040283529160200191611859565b820191906000526020600020905b81548152906001019060200180831161183c57829003601f168201915b5050509183525050600282015460209091019060ff16600381111561187a57fe5b600381111561188557fe5b815260038201546020820152600482015460ff16151560408201526005820154606082015260069091015460809091015291506118c1866118ee565b6060830152602082015160408301516118d990613d5c565b60608401519196509450925050509193909250565b600160a060020a031660009081526002602052604090205490565b611911614cd5565b81600260008281526013602052604090206006015460ff16600b81111561193457fe5b14611989576040805160e560020a62461bcd02815260206004820152601f60248201527f53656e736f72206973206e6f7420617661696c61626c65206f72206465616400604482015290519081900360640190fd5b600160a060020a0385166000908152600c6020526040902060040154859060ff1615156119ee576040805160e560020a62461bcd0281526020600482015260136024820152600080516020614ed8833981519152604482015290519081900360640190fd5b6003600160a060020a0382166000908152600c602052604090206002015460ff166003811115611a1a57fe5b14611a95576040805160e560020a62461bcd02815260206004820152602160248201527f4f6e6c7920737570706c696572732061726520616c6c6f77656420746f20616460448201527f6400000000000000000000000000000000000000000000000000000000000000606482015290519081900360840190fd5b600085815260126020908152604091829020825161016081018452815481526001820154600160a060020a039081169382019390935260028201548316938101939093526003810154918216606084015290608083019060a060020a900460ff16600b811115611b0157fe5b600b811115611b0c57fe5b81526004820154602082015260058083015460408301526006830154606083015260078301546080830152600883015460a083015260099092015460c091820152820151919450611b5e918891613a07565b61164a83602001518460e00151613be0565b600080611b7b614d6e565b600160a060020a0388166000908152600c6020526040902060040154889060ff161515611be0576040805160e560020a62461bcd0281526020600482015260136024820152600080516020614ed8833981519152604482015290519081900360640190fd5b611cc08989898080601f01602080910402602001604051908101604052809392919081815260200183838082843750505050600160a060020a038e166000908152600c6020908152604091829020600190810180548451600293821615610100026000190190911692909204601f81018490048402830184019094528382529094509250830182828015611cb55780601f10611c8a57610100808354040283529160200191611cb5565b820191906000526020600020905b815481529060010190602001808311611c9857829003601f168201915b505050505042613d6e565b9350611ccb89613306565b925061012060405190810160405280856000191681526020018a600160a060020a0316815260200189898080601f016020809104026020016040519081016040528093929190818152602001838380828437505050928452505050602081018890526040810187905260006060820152426080820181905260a082015260c0018490529150611d5982613eac565b8160200151600160a060020a03167fffc11ca9ffba641907900e673392b8ef1c382e91faedca550e6919b21d4767ba83600001518460400151856060015186608001514260405180866000191660001916815260200180602001858152602001848152602001838152602001828103825286818151815260200191508051906020019080838360005b83811015611dfa578181015183820152602001611de2565b50505050905090810190601f168015611e275780820380516001836020036101000a031916815260200191505b50965050505050505060405180910390a2505050505050505050565b600054600160a060020a031681565b600054600160a060020a0316331480611e6f5750611e6f3361349e565b1515611e7a57600080fd5b611e8b60018263ffffffff61404816565b604051600160a060020a038216907fb251eb052afc73ffd02ffe85ad79990a8b3fed60d76dbc2fa2fdd7123dffd91490600090a250565b600054600160a060020a0316331480611edf5750611edf3361349e565b1515611eea57600080fd5b331515611ef657600080fd5b600554611f09908263ffffffff61355816565b60055533600090815260026020526040902054611f2c908263ffffffff61355816565b3360008181526002602090815260408083209490945583518581529351929391927fddf252ad1be2c89b69c2b068fc378daa952ba7f163c4a11628f55a4df523b3ef9281900390910190a350565b600060606000806000806060600080611f91614cd5565b60608b611f9f816000613572565b15611fe2576040805160e560020a62461bcd0281526020600482015260166024820152600080516020614ef8833981519152604482015290519081900360640190fd5b60008d815260126020908152604091829020825161016081018452815481526001820154600160a060020a039081169382019390935260028201548316938101939093526003810154918216606084015290608083019060a060020a900460ff16600b81111561204e57fe5b600b81111561205957fe5b8152600482015460208083019190915260058301546040808401919091526006840154606084015260078401546080840152600884015460a08085019190915260099094015460c090930192909252918301516000908152600e83528190206002908101805483516000196001831615610100020190911692909204601f8101859004850283018501909352828252939650929183018282801561213e5780601f106121135761010080835404028352916020019161213e565b820191906000526020600020905b81548152906001019060200180831161212157829003601f168201915b5050505050915082600001516121578460800151613ca9565b8460200151856040015186606001518760c00151878960e001518a61012001519b509b509b509b509b509b509b509b509b505050509193959799909294969850565b336000908152600260205260408120548211156121b557600080fd5b600160a060020a03831615156121ca57600080fd5b336000908152600260205260409020546121ea908363ffffffff61354616565b3360009081526002602052604080822092909255600160a060020a0385168152205461221c908363ffffffff61355816565b600160a060020a0384166000818152600260209081526040918290209390935580518581529051919233927fddf252ad1be2c89b69c2b068fc378daa952ba7f163c4a11628f55a4df523b3ef9281900390910190a350600192915050565b600160a060020a0382166000908152600c6020526040902060040154829060ff1615156122df576040805160e560020a62461bcd0281526020600482015260136024820152600080516020614ed8833981519152604482015290519081900360640190fd5b6122e98383612199565b50505050565b600b545b90565b60006060600080600060608061230a614d6e565b600160a060020a038a166000908152600c60205260409020600401548a9060ff16151561236f576040805160e560020a62461bcd0281526020600482015260136024820152600080516020614ed8833981519152604482015290519081900360640190fd5b896123798c613306565b10156123f5576040805160e560020a62461bcd02815260206004820152602160248201527f496e76616c696420696e6465782073706563696669656420666f72206173736560448201527f7400000000000000000000000000000000000000000000000000000000000000606482015290519081900360840190fd5b600160a060020a038b16600090815260106020526040902080548b90811061241957fe5b60009182526020918290206040805161012081018252600990930290910180548352600180820154600160a060020a031684860152600280830180548551601f948216156101000260001901909116929092049283018790048702820187018552828252949592949386019390929091908301828280156124db5780601f106124b0576101008083540402835291602001916124db565b820191906000526020600020905b8154815290600101906020018083116124be57829003601f168201915b5050509183525050600382015460208083019190915260048301546040808401919091526005840154606084015260068401546080840152600784015460a084015260089093015460c090920191909152600160a060020a038e166000908152600d825282812084518252909152205490925060ff1615156125cd576040805160e560020a62461bcd02815260206004820152603460248201527f4e6f2041737365742070726573656e7420666f7220746869732061646472657360448201527f732061742073706563696669656420696e646578000000000000000000000000606482015290519081900360840190fd5b81516125d890611100565b9850985098509850985098509850505092959891949750929550565b60008084612603816000613572565b15612646576040805160e560020a62461bcd0281526020600482015260166024820152600080516020614ef8833981519152604482015290519081900360640190fd5b8886600160a060020a03821615156126a8576040805160e560020a62461bcd02815260206004820152600f60248201527f41646472657373206973207a65726f0000000000000000000000000000000000604482015290519081900360640190fd5b600160a060020a0382166000908152600d6020908152604080832084845290915290205460ff16151561274b576040805160e560020a62461bcd02815260206004820152602c60248201527f54686973206173736574206973206e6f7420776974682074686520737065636960448201527f6669656420616464726573730000000000000000000000000000000000000000606482015290519081900360840190fd5b6000818152600e6020526040902060010154600160a060020a038381169116146127bf576040805160e560020a62461bcd02815260206004820152601660248201527f596f7520617265206e6f7420617574686f72697a656400000000000000000000604482015290519081900360640190fd5b89868802806127cd836118ee565b10156127d857600080fd5b60008a8152600e6020526040902095506128018d6127fc8a8c63ffffffff61406d16565b614098565b6128158c6127fc8a8c63ffffffff61406d16565b61283a8b6127fc600261282e8c8e63ffffffff61406d16565b9063ffffffff61406d16565b6128628a878f8f8f61285d8c600401548d6003015461406d90919063ffffffff16565b61416b565b61287f8c8760000154886003015489600401548a6005015461459c565b604080516101208101825287548152600180890154600160a060020a03166020808401919091526002808b0180548651601f95821615610100026000190190911692909204938401839004830282018301865283825261297b958c94908601938301828280156129305780601f1061290557610100808354040283529160200191612930565b820191906000526020600020905b81548152906001019060200180831161291357829003601f168201915b505050918352505060038201546020820152600482015460408201526005820154606082015260068201546080820152600782015460a082015260089091015460c090910152613eac565b6129858d8b614749565b8c600160a060020a03168c600160a060020a03167f5c3321ad6e997da8dd3a13d0c8493df54ff562083c06a425bb73ff3b978910448c896002018a600301548b600401544260405180866000191660001916815260200180602001858152602001848152602001838152602001828103825286818154600181600116156101000203166002900481526020019150805460018160011615610100020316600290048015612a735780601f10612a4857610100808354040283529160200191612a73565b820191906000526020600020905b815481529060010190602001808311612a5657829003601f168201915b5050965050505050505060405180910390a35050505050509695505050505050565b612a9d614cd5565b81600260008281526013602052604090206006015460ff16600b811115612ac057fe5b14612b15576040805160e560020a62461bcd02815260206004820152601f60248201527f53656e736f72206973206e6f7420617661696c61626c65206f72206465616400604482015290519081900360640190fd5b600160a060020a0385166000908152600c6020526040902060040154859060ff161515612b7a576040805160e560020a62461bcd0281526020600482015260136024820152600080516020614ed8833981519152604482015290519081900360640190fd5b6003600160a060020a0382166000908152600c602052604090206002015460ff166003811115612ba657fe5b14612c21576040805160e560020a62461bcd02815260206004820152602160248201527f4f6e6c7920737570706c696572732061726520616c6c6f77656420746f20616460448201527f6400000000000000000000000000000000000000000000000000000000000000606482015290519081900360840190fd5b600085815260126020908152604091829020825161016081018452815481526001820154600160a060020a039081169382019390935260028201548316938101939093526003810154918216606084015290608083019060a060020a900460ff16600b811115612c8d57fe5b600b811115612c9857fe5b81526004820154602082015260058201546040820152600682015460608201526007808301546080830152600883015460a083015260099092015460c090910152909350612ce99087908790613662565b61165c868460c001516004613a07565b612d01614cd5565b600160a060020a0383166000908152600c6020526040902060040154839060ff161515612d66576040805160e560020a62461bcd0281526020600482015260136024820152600080516020614ed8833981519152604482015290519081900360640190fd5b600083815260126020908152604091829020825161016081018452815481526001820154600160a060020a039081169382019390935260028201548316938101939093526003810154918216606084015290608083019060a060020a900460ff16600b811115612dd257fe5b600b811115612ddd57fe5b815260048201546020820152600582015460408201526006820154606082015260078201546080820152600882015460a082015260099091015460c0909101529150600a8260800151600b811115612e3157fe5b14612eac576040805160e560020a62461bcd02815260206004820152602160248201527f596f752063616e206e6f742063616e63656c20796f7572206f72646572206e6f60448201527f7700000000000000000000000000000000000000000000000000000000000000606482015290519081900360840190fd5b612eb884846009613662565b612ec8848360c001516002613a07565b612eda82602001518360e00151613be0565b612eec82604001518360e00151613be0565b612f0182606001518360e00151600202613be0565b7fc51e93c04ee4a4a243e7a159d91bfa4cc84c7695578776a948ea54b760e52a2c8260000151612f348460800151613ca9565b6040805183815242918101829052606060208083018281528551928401929092528451608084019186019080838360005b83811015612f7d578181015183820152602001612f65565b50505050905090810190601f168015612faa5780820380516001836020036101000a031916815260200191505b5094505050505060405180910390a150505050565b6000846001600160a060020a0382166000908152600c602052604090206002015460ff166003811115612fee57fe5b14613069576040805160e560020a62461bcd02815260206004820152602860248201527f5570646174696e67204173736574206e6f7420616c6c6f77656420666f72207960448201527f6f757220726f6c65000000000000000000000000000000000000000000000000606482015290519081900360840190fd5b600160a060020a0386166000908152600c6020526040902060040154869060ff1615156130ce576040805160e560020a62461bcd0281526020600482015260136024820152600080516020614ed8833981519152604482015290519081900360640190fd5b6000868152600e6020526040902060058101549093506130f590889088908890889061459c565b50505050505050565b60008082101580156131115750600b5482105b1515613167576040805160e560020a62461bcd02815260206004820152601160248201527f496e646578206e6f7420616c6c6f776564000000000000000000000000000000604482015290519081900360640190fd5b600b80548390811061317557fe5b6000918252602090912060079091020154600160a060020a031692915050565b60085460055460068054604080516020601f6002600019600187161561010002019095169490940493840181900481028201810190925282815260609586956000958695909460079460ff909416939186918301828280156132385780601f1061320d57610100808354040283529160200191613238565b820191906000526020600020905b81548152906001019060200180831161321b57829003601f168201915b5050865460408051602060026001851615610100026000190190941693909304601f8101849004840282018401909252818152959950889450925084019050828280156132c65780601f1061329b576101008083540402835291602001916132c6565b820191906000526020600020905b8154815290600101906020018083116132a957829003601f168201915b50505050509250935093509350935090919293565b600160a060020a03918216600090815260036020908152604080832093909416825291909152205490565b600160a060020a0381166000908152600c6020526040812060040154829060ff16151561336b576040805160e560020a62461bcd0281526020600482015260136024820152600080516020614ed8833981519152604482015290519081900360640190fd5b5050600160a060020a031660009081526010602052604090205490565b600054600160a060020a03163314806133a557506133a53361349e565b15156133b057600080fd5b600160a060020a03811615156133c557600080fd5b60008054604051600160a060020a03808516939216917f8be0079c531659141344cd1fd0a4f28419497f9722a3daafe3b4186f6b6457e091a360008054600160a060020a031916600160a060020a0392909216919091179055565b600160a060020a03821660009081526011602052604081205490821080159061344857508181115b1515610d9e576040805160e560020a62461bcd02815260206004820152601160248201527f496e646578206e6f7420616c6c6f776564000000000000000000000000000000604482015290519081900360640190fd5b600061172760018363ffffffff61497716565b600160a060020a0316600090815260209190915260409020805460ff19169055565b6134db614d2f565b6134e7846103e8612199565b5060e06040519081016040528085600160a060020a0316815260200184815260200183600381111561351557fe5b8152602001613523866118ee565b815260016020820152426040820181905260609091015290506122e98482614996565b60008282111561355257fe5b50900390565b60008282018381101561356757fe5b8091505b5092915050565b604080516020808201849052825180830382018152918301928390528151600093918291908401908083835b602083106135bd5780518252601f19909201916020918201910161359e565b51815160209384036101000a6000190180199092169116179052604080519290940182900382208282018a90528451808403830181529285019485905282519096509194508392508401908083835b6020831061362b5780518252601f19909201916020918201910161360c565b5181516020939093036101000a60001901801990911692169190911790526040519201829003909120939093149695505050505050565b600082815260126020526040902060038101805483919074ff0000000000000000000000000000000000000000191660a060020a83600b8111156136a257fe5b0217905550426008820155600160a060020a0384166000908152601160205260409020600982015481548392919081106136d857fe5b600091825260209091208254600a909202019081556001808301549082018054600160a060020a0319908116600160a060020a0393841617909155600280850154908401805483169184169190911790556003808501805491850180549093169190931617808255915460ff60a060020a91829004169274ff000000000000000000000000000000000000000019169083600b81111561377457fe5b02179055506004828101549082015560058083015490820155600680830154908201556007808301549082015560088083015490820155600991820154908201556002820154600160a060020a031660009081526011602052604090209082015481548392919081106137e357fe5b600091825260209091208254600a909202019081556001808301549082018054600160a060020a0319908116600160a060020a0393841617909155600280850154908401805483169184169190911790556003808501805491850180549093169190931617808255915460ff60a060020a91829004169274ff000000000000000000000000000000000000000019169083600b81111561387f57fe5b02179055506004828101549082015560058083015490820155600680830154908201556007808301549082015560088083015490820155600991820154908201556001820154600160a060020a031660009081526011602052604090209082015481548392919081106138ee57fe5b600091825260209091208254600a909202019081556001808301549082018054600160a060020a0319908116600160a060020a0393841617909155600280850154908401805483169184169190911790556003808501805491850180549093169190931617808255915460ff60a060020a91829004169274ff000000000000000000000000000000000000000019169083600b81111561398a57fe5b02179055506004828101549082015560058083015490820155600680830154908201556007808301549082015560088083015490820155600991820154910155805460038201547fc51e93c04ee4a4a243e7a159d91bfa4cc84c7695578776a948ea54b760e52a2c9190612f349060a060020a900460ff16613ca9565b600082815260136020526040902060068101805483919060ff1916600183600b811115613a3057fe5b0217905550426005820155600160a060020a038416600090815260146020526040902060078201548154839291908110613a6657fe5b600091825260209091208254600890920201908155600180830154818301556002808401548184018054600160a060020a031916600160a060020a0390921691909117905560038085018054613ace9492860193919281161561010002600019011604614dca565b506004828101549082015560058083015490820155600680830154908201805460ff9092169160ff1916600183600b811115613b0657fe5b02179055506007918201549101557f538fb7742c85aa94ca6cf30a8c921db06fecbf8fb2a40f57049a845340779f7a8484613b4085613ca9565b60408051600160a060020a0385168152602080820185905242606083018190526080938301848152855194840194909452845190939160a08401919086019080838360005b83811015613b9d578181015183820152602001613b85565b50505050905090810190601f168015613bca5780820380516001836020036101000a031916815260200191505b509550505050505060405180910390a150505050565b600054600160a060020a0316331480613bfd5750613bfd3361349e565b1515613c0857600080fd5b613c18818063ffffffff61354616565b600160a060020a038316600090815260046020908152604080832093909355600290522054613c4d908263ffffffff61355816565b600160a060020a03831660008181526002602090815260409182902093909355805191825291810183905281517fb9247ba31876cf54c8a15e27f63c09c42bb50f55547f22a3d066a29ef69cf5e5929181900390910190a15050565b6060600a600083600b811115613cbb57fe5b815260208082019290925260409081016000208054825160026000196001841615610100020190921691909104601f810185900485028201850190935282815292909190830182828015613d505780601f10613d2557610100808354040283529160200191613d50565b820191906000526020600020905b815481529060010190602001808311613d3357829003601f168201915b50505050509050919050565b606060096000836003811115613cbb57fe5b6000848484846040516020018085600160a060020a0316600160a060020a03166c0100000000000000000000000002815260140184805190602001908083835b60208310613dcd5780518252601f199092019160209182019101613dae565b51815160209384036101000a600019018019909216911617905286519190930192860191508083835b60208310613e155780518252601f199092019160209182019101613df6565b51815160209384036101000a6000190180199092169116179052920193845250604080518085038152938201908190528351939650945084935085019190508083835b60208310613e775780518252601f199092019160209182019101613e58565b5181516020939093036101000a6000190180199091169216919091179052604051920182900390912098975050505050505050565b60208181018051600160a060020a039081166000908152600d845260408082208651835285528082208054600160ff19909116811790915586518352600e8652918190208651815593519184018054600160a060020a031916929093169190911790915583015180518493613f28926002850192910190614e4f565b50606082015160038201556080820151600482015560a0820151600582015560c0820151600682015560e082015160078201556101009091015160089091015580516000908152600f602090815260408083208285018051825460018181018555938752858720018054600160a060020a03928316600160a060020a03199182161790915582518216875260108652848720805480860180835591895297879020895160099099020197885592519387018054949092169316929092179091559084015180519193859390926140049260028501920190614e4f565b50606082015160038201556080820151600482015560a0820151600582015560c0820151600682015560e08201516007820155610100909101516008909101555050565b600160a060020a0316600090815260209190915260409020805460ff19166001179055565b600080831515614080576000915061356b565b5082820282848281151561409057fe5b041461356757fe5b8181806140a4836118ee565b10156140af57600080fd5b600054600160a060020a03163314806140cc57506140cc3361349e565b15156140d757600080fd5b600160a060020a0384166000908152600460209081526040808320869055600290915290205461410d908463ffffffff61354616565b600160a060020a03851660008181526002602090815260409182902093909355805191825291810185905281517f41603710ed9580c053e9987a36d5e084ebac2e05f58ae7d0de531e84a9530f3c929181900390910190a150505050565b6000614175614cd5565b600287810180546040805160206001841615610100026000190190931694909404601f81018390048302850183019091528084526000938493614282938a93908301828280156142065780601f106141db57610100808354040283529160200191614206565b820191906000526020600020905b8154815290600101906020018083116141e957829003601f168201915b50505050600160a060020a038a166000908152600c6020908152604091829020600190810180548451600293821615610100026000190190911692909204601f81018490048402830184019094528382529093509190830182828015611cb55780601f10611c8a57610100808354040283529160200191611cb5565b6040805161016081018252828152600160a060020a038b81166020808401919091528b821683850152908a1660608301819052600a608084015260a083018f9052600060c0840181905260e084018b9052426101008501819052610120850152818152601183528481205461014085015290815260149091529182205492965094509092508211156143c5575060005b818110156143c5576002600160a060020a038716600090815260146020526040902080548390811061434057fe5b600091825260209091206006600890920201015460ff16600b81111561436257fe5b14156143bd57600160a060020a038616600090815260146020526040902080548290811061438c57fe5b600091825260209091206008909102015460c08401819052600760808501526143b89087906004613a07565b6143c5565b600101614312565b60c08301511515614498577fdf5e915da46838276de9a563c8bc23bd8818b819ac66ed4ff5fe71bc5b45179686856143fd6003613ca9565b60408051600160a060020a0385168152602080820185905242606083018190526080938301848152855194840194909452845190939160a08401919086019080838360005b8381101561445a578181015183820152602001614442565b50505050905090810190601f1680156144875780820380516001836020036101000a031916815260200191505b509550505050505060405180910390a15b60008a8152601260209081526040918290208551815590850151600182018054600160a060020a0319908116600160a060020a0393841617909155928601516002830180548516918316919091179055606086015160038301805490941691161780835560808601518693909174ff0000000000000000000000000000000000000000191660a060020a83600b81111561452e57fe5b021790555060a0820151600482015560c082015160058083019190915560e0830151600683015561010083015160078301556101208301516008830155610140909201516009909101558351908a018190556080840151614590918891613662565b50505050505050505050565b600160a060020a0385166000908152600c6020526040812060040154869060ff161515614601576040805160e560020a62461bcd0281526020600482015260136024820152600080516020614ed8833981519152604482015290519081900360640190fd5b6000868152600e602052604090206003810186905560048101859055600181018054600160a060020a031916600160a060020a038a1617905560058101849055915061464c87613306565b60088301558154600383015460048401546040805184815290810183905260608101829052426080820181905260a0602083018181526002808a018054610100600182161502600019011691909104928501839052600160a060020a038f16977fafd42942a0c53a78c612a313396fa781b28b96152008176c868133162b7ea5349790969195909491939192909160c08301908790801561472e5780601f106147035761010080835404028352916020019161472e565b820191906000526020600020905b81548152906001019060200180831161471157829003601f168201915b5050965050505050505060405180910390a250505050505050565b600160a060020a0382166000908152600c6020526040902060040154829060ff1615156147ae576040805160e560020a62461bcd0281526020600482015260136024820152600080516020614ed8833981519152604482015290519081900360640190fd5b816147ba816000613572565b156147fd576040805160e560020a62461bcd0281526020600482015260166024820152600080516020614ef8833981519152604482015290519081900360640190fd5b600160a060020a0384166000818152600d602090815260408083208784528252808320805460ff19169055838352600c8252808320878452600e8352928190208151429281018390526060808252600195860180546002978116156101000260001901168790049183018290527fa34afaef38be6b465f9952a14cdff343fd7396b7c2f90c056387cbcab6ace604969095930193928291908201906080830190879080156148ec5780601f106148c1576101008083540402835291602001916148ec565b820191906000526020600020905b8154815290600101906020018083116148cf57829003601f168201915b50508381038252855460026000196101006001841615020190911604808252602090910190869080156149605780601f1061493557610100808354040283529160200191614960565b820191906000526020600020905b81548152906001019060200180831161494357829003601f168201915b50509550505050505060405180910390a250505050565b600160a060020a03166000908152602091909152604090205460ff1690565b600160a060020a0382166000908152600c602052604090206004015460ff1615614a0a576040805160e560020a62461bcd02815260206004820152601260248201527f5573657220616c72656164792065786973740000000000000000000000000000604482015290519081900360640190fd5b600b80546001810180835560009290925282517f0175b7a638427703f0dbe7bb9bbf987a2551717b34e79f33b5b1008d1fa01db960079092029182018054600160a060020a031916600160a060020a0390921691909117815560208085015180518694614a9d937f0175b7a638427703f0dbe7bb9bbf987a2551717b34e79f33b5b1008d1fa01dba909101920190614e4f565b50604082015160028201805460ff19166001836003811115614abb57fe5b021790555060608201516003820155608082015160048201805460ff191691151591909117905560a0820151600582015560c09091015160069091015550600160a060020a038281166000908152600c6020908152604090912083518154600160a060020a0319169316929092178255828101518051849392614b45926001850192910190614e4f565b50604082015160028201805460ff19166001836003811115614b6357fe5b021790555060608201516003820155608082015160048201805460ff191691151591909117905560a0820151600582015560c09091015160069091015560208101516040820151600160a060020a038416917fc847e6f60ca9d046e82cc9869608ea59d7b79d63d9ad3f3fdc9fa994a381596391614be090613d5c565b846060015142604051808060200180602001858152602001848152602001838103835287818151815260200191508051906020019080838360005b83811015614c33578181015183820152602001614c1b565b50505050905090810190601f168015614c605780820380516001836020036101000a031916815260200191505b50838103825286518152865160209182019188019080838360005b83811015614c93578181015183820152602001614c7b565b50505050905090810190601f168015614cc05780820380516001836020036101000a031916815260200191505b50965050505050505060405180910390a25050565b604080516101608101825260008082526020820181905291810182905260608101829052906080820190815260006020820181905260408201819052606082018190526080820181905260a0820181905260c09091015290565b6040805160e081018252600080825260606020830152909182019081526020016000815260200160001515815260200160008152602001600081525090565b61012060405190810160405280600080191681526020016000600160a060020a03168152602001606081526020016000815260200160008152602001600080191681526020016000815260200160008152602001600081525090565b828054600181600116156101000203166002900490600052602060002090601f016020900481019282601f10614e035780548555614e3f565b82800160010185558215614e3f57600052602060002091601f016020900482015b82811115614e3f578254825591600101919060010190614e24565b50614e4b929150614ebd565b5090565b828054600181600116156101000203166002900490600052602060002090601f016020900481019282601f10614e9057805160ff1916838001178555614e3f565b82800160010185558215614e3f579182015b82811115614e3f578251825591602001919060010190614ea2565b6122f391905b80821115614e4b5760008155600101614ec356005573657220646f6573206e6f742065786973740000000000000000000000000049642073686f756c64206e6f7420626520656d70747900000000000000000000a165627a7a723058200604f5fafa6aa80063ea70d048658ce6933eff13b0ba4712731441984c545a4a0029",
  "source": "pragma solidity ^0.4.24;\n\nimport \"./AssetTransfer.sol\";\n\ncontract AssetCore is AssetTransfer  {\n\n    //TODO : supplier sensors check\n    //DONE : check value passed\n    function transferAsset(address _from,address _to,address _supplier,bytes32 _id,uint _quantity ,uint256 _value) external nullId(_id) ownerOf(_from,_id) checkBalance(_to,_quantity*_value) returns(bool)\n    {\n        Asset storage asset = assets[_id];\n       //lock funds\n        //transfer funds\n\n        lockFunds(_from,_value.mul(_quantity));\n        lockFunds(_to,_value.mul(_quantity));\n        lockFunds(_supplier,_value.mul(_quantity).mul(2));\n        updateTransaction(_id,asset,_from,_to,_supplier,asset._value.mul(asset._quantity));\n        // TODO update tracking id\n        updateAsset(_to,asset._id,asset._value,asset._quantity,asset._trackId);\n        addAssetToMap(asset);\n        deleteAsset(_from,_id);\n        emit LogTransferAssetEvent(_to,_from,_id,asset._name,asset._value,asset._quantity,now);\n    }\n\n    function cancelTransaction(address _address,bytes32 _transactionId) external isExisting(_address) {\n        Transaction memory transaction = transactions[_transactionId];\n        require(transaction._status == Status.PENDING,'You can not cancel your order now');\n        updateTransactionInt(_address,_transactionId,Status.CANCELLED);\n        updateSensor(_address,transaction._sensorId,Status.AVAILABLE);\n        releaseFunds(transaction._from,transaction._amount);\n        releaseFunds(transaction._to,transaction._amount);\n        releaseFunds(transaction._supplier,transaction._amount*2);//\n        emit LogTransactionUpdateEvent (transaction._id , getStringStatusType(transaction._status), now);\n    }\n\n    function updateTransactionSensorId(address _supplier,bytes32 _transactionId,bytes32 _sensorId) external isSensorAvailable(_sensorId) isSupplier(_supplier) {\n        Transaction memory transaction = transactions[_transactionId];\n        updateTransactionInt(_supplier,_transactionId,Status.IN_PROGRESS);\n        updateSensor(_supplier,transaction._sensorId,Status.ON_THE_WAY);\n        emit LogTransactionUpdateEvent (transaction._id , getStringStatusType(transaction._status), now);\n    }\n\n    function updateTransactionPickUp(address _supplier,bytes32 _transactionId,bytes32 _sensorId) external isSensorAvailable(_sensorId) isSupplier(_supplier) {\n        Transaction memory transaction = transactions[_transactionId];\n        updateSensor(_supplier,transaction._sensorId,Status.PICKED_UP);\n        releaseFunds(transaction._from,transaction._amount);\n        releaseFunds(transaction._supplier,transaction._amount);\n        emit LogTransactionUpdateEvent (transaction._id , getStringStatusType(transaction._status), now);\n    }\n\n    function updateTransactionCompleted(address _supplier,bytes32 _transactionId,bytes32 _sensorId) external isSensorAvailable(_sensorId) isSupplier(_supplier) {\n        Transaction memory transaction = transactions[_transactionId];\n        updateTransactionInt(_supplier,_transactionId,Status.COMPLETED);\n        updateSensor(_supplier,transaction._sensorId,Status.DELIVERED);\n        releaseFunds(transaction._to,transaction._amount);\n        releaseFunds(transaction._supplier,transaction._amount);\n        emit LogTransactionUpdateEvent (transaction._id , getStringStatusType(transaction._status), now);\n    }\n\n    function getTransactionByAddress(address _address,uint _index) view external  isExisting(_address) returns(\n        bytes32,\n        string,\n        address,\n        address,\n        address,\n        bytes32,\n        string,\n        uint,\n        uint256\n    ) {\n        checkTransactionIndex(_address,_index);\n        bytes32 _id = supplierTransactions[_address][_index]._id;\n        return getTransactionById(_id);\n    }\n\n    function getTransactionById(bytes32 _transactionId) view public nullId(_transactionId) returns(\n        bytes32,\n        string,\n        address,\n        address,\n        address,\n        bytes32,\n        string,\n        uint,\n        uint256\n    ) {\n        Transaction memory transaction = transactions[_transactionId];\n        string memory _name = assets[transaction._assetId]._name;\n        return (\n            transaction._id,\n            getStringStatusType(transaction._status),\n            transaction._from,\n            transaction._to,\n            transaction._supplier,\n            transaction._sensorId,\n            _name,\n            transaction._amount,\n            transaction._updatedAt\n        );\n    }\n    \n    function getTransactionCount(address _address) external view isExisting(_address) returns(uint){\n        return supplierTransactions[_address].length;\n    }\n\n    function checkTransactionIndex(address _address,uint _index) view internal {\n        uint count = supplierTransactions[_address].length;\n        require(_index >= 0 && count > _index,'Index not allowed');\n    }\n\n}",
  "sourcePath": "/home/synerzip/Desktop/Ethereum/truffle/contracts/AssetCore.sol",
  "compiler": {
    "name": "solc",
    "version": "0.4.24+commit.e67f0147.Emscripten.clang"
  },
  "schemaVersion": "2.0.1",
  "updatedAt": "2018-10-22T11:04:15.485Z"
}