{
  "contractName": "Ownable",
  "abi": [
    {
      "constant": true,
      "inputs": [],
      "name": "owner",
      "outputs": [
        {
          "name": "",
          "type": "address"
        }
      ],
      "payable": false,
      "stateMutability": "view",
      "type": "function"
    },
    {
      "inputs": [],
      "payable": false,
      "stateMutability": "nonpayable",
      "type": "constructor"
    },
    {
      "anonymous": false,
      "inputs": [
        {
          "indexed": true,
          "name": "previousOwner",
          "type": "address"
        },
        {
          "indexed": true,
          "name": "newOwner",
          "type": "address"
        }
      ],
      "name": "OwnershipTransferred",
      "type": "event"
    },
    {
      "anonymous": false,
      "inputs": [
        {
          "indexed": true,
          "name": "account",
          "type": "address"
        }
      ],
      "name": "MemberAdded",
      "type": "event"
    },
    {
      "anonymous": false,
      "inputs": [
        {
          "indexed": true,
          "name": "account",
          "type": "address"
        }
      ],
      "name": "MemberRemoved",
      "type": "event"
    },
    {
      "constant": false,
      "inputs": [
        {
          "name": "newOwner",
          "type": "address"
        }
      ],
      "name": "transferOwnership",
      "outputs": [],
      "payable": false,
      "stateMutability": "nonpayable",
      "type": "function"
    },
    {
      "constant": false,
      "inputs": [
        {
          "name": "_address",
          "type": "address"
        }
      ],
      "name": "addMember",
      "outputs": [],
      "payable": false,
      "stateMutability": "nonpayable",
      "type": "function"
    },
    {
      "constant": false,
      "inputs": [
        {
          "name": "_address",
          "type": "address"
        }
      ],
      "name": "removeMember",
      "outputs": [],
      "payable": false,
      "stateMutability": "nonpayable",
      "type": "function"
    },
    {
      "constant": true,
      "inputs": [
        {
          "name": "_address",
          "type": "address"
        }
      ],
      "name": "memberAllowed",
      "outputs": [
        {
          "name": "",
          "type": "bool"
        }
      ],
      "payable": false,
      "stateMutability": "view",
      "type": "function"
    },
    {
      "constant": true,
      "inputs": [
        {
          "name": "_address",
          "type": "address"
        }
      ],
      "name": "ownerAllowed",
      "outputs": [
        {
          "name": "",
          "type": "bool"
        }
      ],
      "payable": false,
      "stateMutability": "view",
      "type": "function"
    },
    {
      "constant": false,
      "inputs": [],
      "name": "kill",
      "outputs": [],
      "payable": false,
      "stateMutability": "nonpayable",
      "type": "function"
    }
  ],
  "bytecode": "0x608060405234801561001057600080fd5b5060008054600160a060020a0319163390811790915561003f9060019064010000000061039861004482021704565b610069565b600160a060020a0316600090815260209190915260409020805460ff19166001179055565b6103e9806100786000396000f3006080604052600436106100825763ffffffff7c01000000000000000000000000000000000000000000000000000000006000350416630b1ca49a811461008757806341c0e1b5146100aa578063471dc28d146100bf5780635d99f0cb146100f45780638da5cb5b14610115578063ca6d56dc14610146578063f2fde38b14610167575b600080fd5b34801561009357600080fd5b506100a8600160a060020a0360043516610188565b005b3480156100b657600080fd5b506100a86101e7565b3480156100cb57600080fd5b506100e0600160a060020a036004351661020c565b604080519115158252519081900360200190f35b34801561010057600080fd5b506100e0600160a060020a0360043516610225565b34801561012157600080fd5b5061012a610262565b60408051600160a060020a039092168252519081900360200190f35b34801561015257600080fd5b506100a8600160a060020a0360043516610271565b34801561017357600080fd5b506100a8600160a060020a03600435166102d0565b600054600160a060020a0316331461019f57600080fd5b6101b060018263ffffffff61035716565b604051600160a060020a038216907f6e76fb4c77256006d9c38ec7d82b45a8c8f3c27b1d6766fffc42dfb8de68449290600090a250565b600054600160a060020a031633146101fe57600080fd5b600054600160a060020a0316ff5b600061021f60018363ffffffff61037916565b92915050565b6000816102318161020c565b801561024157506102413361020c565b151561024c57600080fd5b5050600054600160a060020a0390811691161490565b600054600160a060020a031681565b600054600160a060020a0316331461028857600080fd5b61029960018263ffffffff61039816565b604051600160a060020a038216907fb251eb052afc73ffd02ffe85ad79990a8b3fed60d76dbc2fa2fdd7123dffd91490600090a250565b600054600160a060020a031633146102e757600080fd5b600160a060020a03811615156102fc57600080fd5b6000805473ffffffffffffffffffffffffffffffffffffffff1916600160a060020a0383811691821780845560405192939116917f8be0079c531659141344cd1fd0a4f28419497f9722a3daafe3b4186f6b6457e09190a350565b600160a060020a0316600090815260209190915260409020805460ff19169055565b600160a060020a03166000908152602091909152604090205460ff1690565b600160a060020a0316600090815260209190915260409020805460ff191660011790555600a165627a7a723058207c21f13b7df9896839e1fa4c09ec1046d67e80c33870bba7cf9a02ccabe8788d0029",
  "source": "pragma solidity ^0.4.24;\n\nimport \"./Roles.sol\";\n\n/**\n * @title Ownable\n * @dev The Ownable contract has an owner address, and provides basic authorization control\n * functions, this simplifies the implementation of \"user permissions\".\n */\ncontract Ownable {\n  using Roles for Roles.Role;\n  address public owner;\n  \n  Roles.Role private allowed ;\n\n  event OwnershipTransferred(address indexed previousOwner, address indexed newOwner);\n//   event AllowanceGranted(address indexed admin, address indexed newOwner,uint256 updated);\n  event MemberAdded(address indexed account);\n  event MemberRemoved(address indexed account);\n\n  constructor() public {\n    owner = msg.sender;\n    allowed.add(msg.sender);\n  }\n\n  modifier onlyOwner() {\n    require(msg.sender == owner);\n    _;\n  }\n  \n  modifier onlyMembers(address _address) {\n      require(memberAllowed(_address) && memberAllowed(msg.sender));\n      _;\n  }\n\n  function transferOwnership(address newOwner) public onlyOwner {\n    require(newOwner != address(0));\n    owner = newOwner;\n    emit OwnershipTransferred(owner, newOwner);\n  }\n  \n  // TODO : check members already added\n  //only by owner\n  function addMember(address _address) public onlyOwner {\n    //   require(!allowed.has(_address) ,'Member already exist');\n      allowed.add(_address);\n      emit MemberAdded(_address);\n  }\n  \n  //only by owner\n  function removeMember(address _address) public onlyOwner  {\n       allowed.remove(_address);\n       emit MemberRemoved(_address);\n       \n  }\n  \n  function memberAllowed(address _address) public view returns(bool) {\n      return allowed.has(_address);\n  }\n  \n  function ownerAllowed(address _address) public view onlyMembers(_address) returns(bool) {\n      return (_address == owner);\n  }\n  \n  //kill the contract and returns funds to owner address\n  function kill() onlyOwner() public {\n        selfdestruct(owner);\n    }\n\n}\n",
  "sourcePath": "/home/zeus/Desktop/home/Ethereum/truffle/contracts/Ownable.sol",
  "compiler": {
    "name": "solc",
    "version": "0.4.26+commit.4563c3fc.Emscripten.clang"
  },
  "schemaVersion": "3.0.15",
  "updatedAt": "2019-09-12T13:48:08.184Z",
  "devdoc": {
    "methods": {},
    "title": "Ownable"
  },
  "userdoc": {
    "methods": {}
  }
}