{
  "contractName": "SeaFoodContract",
  "abi": [
    {
      "constant": true,
      "inputs": [
        {
          "name": "",
          "type": "uint256"
        }
      ],
      "name": "owners",
      "outputs": [
        {
          "name": "",
          "type": "string"
        }
      ],
      "payable": false,
      "stateMutability": "view",
      "type": "function"
    },
    {
      "constant": true,
      "inputs": [
        {
          "name": "",
          "type": "uint256"
        }
      ],
      "name": "userIds",
      "outputs": [
        {
          "name": "",
          "type": "address"
        }
      ],
      "payable": false,
      "stateMutability": "view",
      "type": "function"
    },
    {
      "constant": true,
      "inputs": [
        {
          "name": "",
          "type": "bytes32"
        },
        {
          "name": "",
          "type": "uint256"
        }
      ],
      "name": "entityUsers",
      "outputs": [
        {
          "name": "",
          "type": "address"
        }
      ],
      "payable": false,
      "stateMutability": "view",
      "type": "function"
    },
    {
      "constant": true,
      "inputs": [],
      "name": "owner",
      "outputs": [
        {
          "name": "",
          "type": "address"
        }
      ],
      "payable": false,
      "stateMutability": "view",
      "type": "function"
    },
    {
      "inputs": [],
      "payable": false,
      "stateMutability": "nonpayable",
      "type": "constructor"
    },
    {
      "anonymous": false,
      "inputs": [
        {
          "indexed": true,
          "name": "_userAddress",
          "type": "address"
        },
        {
          "indexed": false,
          "name": "_id",
          "type": "bytes32"
        },
        {
          "indexed": false,
          "name": "_name",
          "type": "string"
        },
        {
          "indexed": false,
          "name": "_value",
          "type": "uint256"
        },
        {
          "indexed": false,
          "name": "_quantity",
          "type": "uint256"
        }
      ],
      "name": "LogNewEntity",
      "type": "event"
    },
    {
      "anonymous": false,
      "inputs": [
        {
          "indexed": true,
          "name": "_userAddress",
          "type": "address"
        },
        {
          "indexed": false,
          "name": "_id",
          "type": "bytes32"
        },
        {
          "indexed": false,
          "name": "_name",
          "type": "string"
        },
        {
          "indexed": false,
          "name": "_value",
          "type": "uint256"
        },
        {
          "indexed": false,
          "name": "_quantity",
          "type": "uint256"
        }
      ],
      "name": "LogUpdateEntity",
      "type": "event"
    },
    {
      "anonymous": false,
      "inputs": [
        {
          "indexed": true,
          "name": "_userAddress",
          "type": "address"
        },
        {
          "indexed": false,
          "name": "_username",
          "type": "string"
        },
        {
          "indexed": false,
          "name": "_type",
          "type": "string"
        },
        {
          "indexed": false,
          "name": "_balance",
          "type": "uint256"
        }
      ],
      "name": "LogNewUser",
      "type": "event"
    },
    {
      "anonymous": false,
      "inputs": [
        {
          "indexed": false,
          "name": "_from",
          "type": "address"
        },
        {
          "indexed": false,
          "name": "_to",
          "type": "address"
        },
        {
          "indexed": false,
          "name": "_senderEntityid",
          "type": "bytes32"
        },
        {
          "indexed": false,
          "name": "_buyerEntityid",
          "type": "bytes32"
        },
        {
          "indexed": false,
          "name": "_quantity",
          "type": "uint256"
        },
        {
          "indexed": false,
          "name": "_amount",
          "type": "uint256"
        }
      ],
      "name": "Transaction",
      "type": "event"
    },
    {
      "constant": false,
      "inputs": [
        {
          "name": "_address",
          "type": "address"
        },
        {
          "name": "_name",
          "type": "string"
        }
      ],
      "name": "addAsFisherMan",
      "outputs": [],
      "payable": false,
      "stateMutability": "nonpayable",
      "type": "function"
    },
    {
      "constant": false,
      "inputs": [
        {
          "name": "_address",
          "type": "address"
        },
        {
          "name": "_name",
          "type": "string"
        }
      ],
      "name": "addAsBuyer",
      "outputs": [],
      "payable": false,
      "stateMutability": "nonpayable",
      "type": "function"
    },
    {
      "constant": false,
      "inputs": [
        {
          "name": "_address",
          "type": "address"
        },
        {
          "name": "_name",
          "type": "string"
        }
      ],
      "name": "addAsRestaurantOwner",
      "outputs": [],
      "payable": false,
      "stateMutability": "nonpayable",
      "type": "function"
    },
    {
      "constant": true,
      "inputs": [
        {
          "name": "_index",
          "type": "uint256"
        }
      ],
      "name": "getUserAddressByIndex",
      "outputs": [
        {
          "name": "",
          "type": "address"
        }
      ],
      "payable": false,
      "stateMutability": "view",
      "type": "function"
    },
    {
      "constant": true,
      "inputs": [],
      "name": "getUsersAddressCount",
      "outputs": [
        {
          "name": "",
          "type": "uint256"
        }
      ],
      "payable": false,
      "stateMutability": "view",
      "type": "function"
    },
    {
      "constant": true,
      "inputs": [
        {
          "name": "_userAddress",
          "type": "address"
        }
      ],
      "name": "getUser",
      "outputs": [
        {
          "name": "_username",
          "type": "string"
        },
        {
          "name": "_type",
          "type": "string"
        },
        {
          "name": "_balance",
          "type": "uint256"
        }
      ],
      "payable": false,
      "stateMutability": "view",
      "type": "function"
    },
    {
      "constant": false,
      "inputs": [
        {
          "name": "_userAddress",
          "type": "address"
        },
        {
          "name": "_username",
          "type": "string"
        }
      ],
      "name": "updateUsername",
      "outputs": [
        {
          "name": "_success",
          "type": "bool"
        }
      ],
      "payable": false,
      "stateMutability": "nonpayable",
      "type": "function"
    },
    {
      "constant": false,
      "inputs": [
        {
          "name": "_address",
          "type": "address"
        },
        {
          "name": "_name",
          "type": "string"
        },
        {
          "name": "_value",
          "type": "uint256"
        },
        {
          "name": "_quantity",
          "type": "uint256"
        }
      ],
      "name": "addEntity",
      "outputs": [
        {
          "name": "",
          "type": "bytes32"
        }
      ],
      "payable": false,
      "stateMutability": "nonpayable",
      "type": "function"
    },
    {
      "constant": true,
      "inputs": [
        {
          "name": "_address",
          "type": "address"
        }
      ],
      "name": "getEntityCount",
      "outputs": [
        {
          "name": "_count",
          "type": "uint256"
        }
      ],
      "payable": false,
      "stateMutability": "view",
      "type": "function"
    },
    {
      "constant": true,
      "inputs": [
        {
          "name": "_id",
          "type": "bytes32"
        }
      ],
      "name": "getEntityById",
      "outputs": [
        {
          "name": "",
          "type": "address"
        },
        {
          "name": "",
          "type": "string"
        },
        {
          "name": "",
          "type": "uint256"
        },
        {
          "name": "",
          "type": "uint256"
        },
        {
          "name": "",
          "type": "string"
        },
        {
          "name": "",
          "type": "uint256"
        },
        {
          "name": "",
          "type": "bytes32"
        }
      ],
      "payable": false,
      "stateMutability": "view",
      "type": "function"
    },
    {
      "constant": true,
      "inputs": [
        {
          "name": "_address",
          "type": "address"
        },
        {
          "name": "_index",
          "type": "uint256"
        }
      ],
      "name": "getEntityByAddress",
      "outputs": [
        {
          "name": "",
          "type": "bytes32"
        },
        {
          "name": "",
          "type": "string"
        },
        {
          "name": "",
          "type": "uint256"
        },
        {
          "name": "",
          "type": "uint256"
        },
        {
          "name": "",
          "type": "string"
        },
        {
          "name": "",
          "type": "uint256"
        },
        {
          "name": "",
          "type": "bytes32"
        }
      ],
      "payable": false,
      "stateMutability": "view",
      "type": "function"
    },
    {
      "constant": false,
      "inputs": [
        {
          "name": "_address",
          "type": "address"
        },
        {
          "name": "_name",
          "type": "string"
        },
        {
          "name": "_value",
          "type": "uint256"
        },
        {
          "name": "_quantity",
          "type": "uint256"
        },
        {
          "name": "_index",
          "type": "uint256"
        },
        {
          "name": "_stateId",
          "type": "bytes32"
        }
      ],
      "name": "updateEntity",
      "outputs": [
        {
          "name": "_success",
          "type": "bool"
        }
      ],
      "payable": false,
      "stateMutability": "nonpayable",
      "type": "function"
    },
    {
      "constant": false,
      "inputs": [
        {
          "name": "_entityId",
          "type": "bytes32"
        },
        {
          "name": "_index",
          "type": "uint256"
        }
      ],
      "name": "getEntityUserAddressess",
      "outputs": [
        {
          "name": "",
          "type": "address"
        }
      ],
      "payable": false,
      "stateMutability": "nonpayable",
      "type": "function"
    },
    {
      "constant": false,
      "inputs": [
        {
          "name": "_entityId",
          "type": "bytes32"
        }
      ],
      "name": "getEntityUserAddressessCount",
      "outputs": [
        {
          "name": "",
          "type": "uint256"
        }
      ],
      "payable": false,
      "stateMutability": "nonpayable",
      "type": "function"
    },
    {
      "constant": false,
      "inputs": [
        {
          "name": "_sender",
          "type": "address"
        },
        {
          "name": "_buyer",
          "type": "address"
        },
        {
          "name": "_name",
          "type": "string"
        },
        {
          "name": "_entityId",
          "type": "bytes32"
        },
        {
          "name": "_quantity",
          "type": "uint256"
        },
        {
          "name": "_amount",
          "type": "uint256"
        },
        {
          "name": "_index",
          "type": "uint256"
        }
      ],
      "name": "buyEntity",
      "outputs": [
        {
          "name": "",
          "type": "bool"
        }
      ],
      "payable": false,
      "stateMutability": "nonpayable",
      "type": "function"
    },
    {
      "constant": false,
      "inputs": [
        {
          "name": "_entityId1",
          "type": "bytes32"
        },
        {
          "name": "_entityId2",
          "type": "bytes32"
        },
        {
          "name": "_stateId",
          "type": "bytes32"
        }
      ],
      "name": "updateEntityStateId",
      "outputs": [
        {
          "name": "",
          "type": "bool"
        }
      ],
      "payable": false,
      "stateMutability": "nonpayable",
      "type": "function"
    },
    {
      "constant": true,
      "inputs": [
        {
          "name": "_address",
          "type": "address"
        },
        {
          "name": "_name",
          "type": "string"
        },
        {
          "name": "_username",
          "type": "string"
        }
      ],
      "name": "createId",
      "outputs": [
        {
          "name": "blobId",
          "type": "bytes32"
        }
      ],
      "payable": false,
      "stateMutability": "pure",
      "type": "function"
    }
  ],
  "bytecode": "0x60806040523480156200001157600080fd5b5060058054600160a060020a031916331781556040805160c081018252608081018381527f41646d696e00000000000000000000000000000000000000000000000000000060a0830152815281518083018352600981527f4669736865726d616e000000000000000000000000000000000000000000000060208281019190915280830191909152825180840184529384527f427579657200000000000000000000000000000000000000000000000000000084820152818301939093528151808301909252600d82527f52657374617572616e74657572000000000000000000000000000000000000009282019290925260608201526200011790600490816200022c565b50604080518082018252600581527f41646d696e0000000000000000000000000000000000000000000000000000006020808301918252336000908152600290915292909220905162000171926001909201919062000290565b506004805460009081106200018257fe5b600091825260208083203384526002918290526040909320929091018054620001bf93830192600019610100600184161502019091160462000311565b5033600081815260026020526040812060038101829055600401805460ff191660019081179091556006805491820181559091527ff652222313e28459528d920b65115c16c04f3efc82aaedc97be59f3f377c0d3f018054600160a060020a03191690911790556200041e565b8280548282559060005260206000209081019282156200027e579160200282015b828111156200027e57825180516200026d91849160209091019062000290565b50916020019190600101906200024d565b506200028c9291506200038b565b5090565b828054600181600116156101000203166002900490600052602060002090601f016020900481019282601f10620002d357805160ff191683800117855562000303565b8280016001018555821562000303579182015b8281111562000303578251825591602001919060010190620002e6565b506200028c929150620003b6565b828054600181600116156101000203166002900490600052602060002090601f016020900481019282601f106200034c578054855562000303565b828001600101855582156200030357600052602060002091601f016020900482015b82811115620003035782548255916001019190600101906200036e565b620003b391905b808211156200028c576000620003a98282620003d3565b5060010162000392565b90565b620003b391905b808211156200028c5760008155600101620003bd565b50805460018160011615610100020316600290046000825580601f10620003fb57506200041b565b601f0160209004906000526020600020908101906200041b9190620003b6565b50565b6128db806200042e6000396000f30060806040526004361061011c5763ffffffff7c0100000000000000000000000000000000000000000000000000000000600035041663025e7c278114610121578063122b62f8146101ae57806328ffd8eb146101e05780633526e0a8146102595780634635fd681461031057806347c940b1146103445780634acc3a6e146103b457806350ec49a5146104de5780635110063b146104f95780636da2835b146105605780636f77926b146105c957806374318de9146106cf5780637c339d86146106e757806381c72d131461076b5780638da5cb5b146107ec57806394ec52691461080157806396df58f514610868578063b766ef6714610889578063c1fec9ec146108f0578063cca76c5d1461090b578063d108ebb814610923575b600080fd5b34801561012d57600080fd5b50610139600435610938565b6040805160208082528351818301528351919283929083019185019080838360005b8381101561017357818101518382015260200161015b565b50505050905090810190601f1680156101a05780820380516001836020036101000a031916815260200191505b509250505060405180910390f35b3480156101ba57600080fd5b506101cc6004356024356044356109df565b604080519115158252519081900360200190f35b3480156101ec57600080fd5b5060408051602060046024803582810135601f81018590048502860185019096528585526101cc958335600160a060020a03169536956044949193909101919081908401838280828437509497505084359550505060208301359260408101359250606001359050610adc565b34801561026557600080fd5b5060408051602060046024803582810135601f81018590048502860185019096528585526102fe958335600160a060020a031695369560449491939091019190819084018382808284375050604080516020601f89358b018035918201839004830284018301909452808352979a999881019791965091820194509250829150840183828082843750949750610fea9650505050505050565b60408051918252519081900360200190f35b34801561031c57600080fd5b506103286004356110c3565b60408051600160a060020a039092168252519081900360200190f35b34801561035057600080fd5b5060408051602060046024803582810135601f81018590048502860185019096528585526102fe958335600160a060020a03169536956044949193909101919081908401838280828437509497505084359550505060209092013591506110eb9050565b3480156103c057600080fd5b506103d8600160a060020a03600435166024356116b7565b604080518881529081018690526060810185905260a0810183905260c0810182905260e0602080830182815289519284019290925288516080840191610100850191908b019080838360005b8381101561043c578181015183820152602001610424565b50505050905090810190601f1680156104695780820380516001836020036101000a031916815260200191505b50838103825286518152865160209182019188019080838360005b8381101561049c578181015183820152602001610484565b50505050905090810190601f1680156104c95780820380516001836020036101000a031916815260200191505b50995050505050505050505060405180910390f35b3480156104ea57600080fd5b506103286004356024356119ff565b34801561050557600080fd5b5060408051602060046024803582810135601f81018590048502860185019096528585526101cc958335600160a060020a0316953695604494919390910191908190840183828082843750949750611a369650505050505050565b34801561056c57600080fd5b5060408051602060046024803582810135601f81018590048502860185019096528585526105c7958335600160a060020a0316953695604494919390910191908190840183828082843750949750611a999650505050505050565b005b3480156105d557600080fd5b506105ea600160a060020a0360043516611b4b565b604051808060200180602001848152602001838103835286818151815260200191508051906020019080838360005b83811015610631578181015183820152602001610619565b50505050905090810190601f16801561065e5780820380516001836020036101000a031916815260200191505b50838103825285518152855160209182019187019080838360005b83811015610691578181015183820152602001610679565b50505050905090810190601f1680156106be5780820380516001836020036101000a031916815260200191505b509550505050505060405180910390f35b3480156106db57600080fd5b506102fe600435611cc6565b3480156106f357600080fd5b506106ff600435611cd8565b60408051600160a060020a03891681529081018690526060810185905260a0810183905260c0810182905260e0602080830182815289519284019290925288516080840191610100850191908b019080838360008381101561043c578181015183820152602001610424565b34801561077757600080fd5b50604080516020600460443581810135601f81018490048402850184019095528484526101cc948235600160a060020a03908116956024803590921695369594606494929301919081908401838280828437509497505084359550505060208301359260408101359250606001359050611eee565b3480156107f857600080fd5b50610328612230565b34801561080d57600080fd5b5060408051602060046024803582810135601f81018590048502860185019096528585526105c7958335600160a060020a031695369560449491939091019190819084018382808284375094975061223f9650505050505050565b34801561087457600080fd5b506102fe600160a060020a0360043516612254565b34801561089557600080fd5b5060408051602060046024803582810135601f81018590048502860185019096528585526105c7958335600160a060020a031695369560449491939091019190819084018382808284375094975061229a9650505050505050565b3480156108fc57600080fd5b506103286004356024356122af565b34801561091757600080fd5b506103286004356122f4565b34801561092f57600080fd5b506102fe612384565b600480548290811061094657fe5b600091825260209182902001805460408051601f60026000196101006001871615020190941693909304928301859004850281018501909152818152935090918301828280156109d75780601f106109ac576101008083540402835291602001916109d7565b820191906000526020600020905b8154815290600101906020018083116109ba57829003601f168201915b505050505081565b60008381526001602052604081206005015460ff1680610a10575060008381526001602052604090206005015460ff165b1515610a1b57600080fd5b60008481526001602081815260408084206007808201889055888652828620018790558054600160a060020a0316855284835290842093889052919052600601548154849291908110610a6a57fe5b6000918252602080832060076008909302019190910192909255848152600180835260408083208054600160a060020a031684528385529083209287905292526006909101548154849291908110610abe57fe5b60009182526020909120600760089092020101555060019392505050565b600160a060020a0386166000908152602081815260408083208054825181850281018501909352808352606093859084015b82821015610c27576000848152602090819020604080516101008181018352600887029093018054600160a060020a0316825260018082015483870152600280830180548651601f94821615909802600019011691909104918201879004870286018701855281865292959194938601939291830182828015610bd25780601f10610ba757610100808354040283529160200191610bd2565b820191906000526020600020905b815481529060010190602001808311610bb557829003601f168201915b5050509183525050600382015460208083019190915260048301546040830152600583015460ff16151560608301526006830154608083015260079092015460a0909101529082526001929092019101610b0e565b505050509050838151118015610c3e575060008410155b1515610c4957600080fd5b8084815181101515610c5757fe5b9060200190602002015160a001511515610c7057600080fd5b600160a060020a0388166000908152602081905260409020805488919086908110610c9757fe5b90600052602060002090600802016002019080519060200190610cbb92919061275d565b50600160a060020a0388166000908152602081905260409020805487919086908110610ce357fe5b906000526020600020906008020160030181905550846000808a600160a060020a0316600160a060020a0316815260200190815260200160002085815481101515610d2a57fe5b906000526020600020906008020160040181905550826000808a600160a060020a0316600160a060020a0316815260200190815260200160002085815481101515610d7157fe5b6000918252602080832060076008909302019190910192909255600160a060020a038a1681529081905260409020805485908110610dab57fe5b9060005260206000209060080201600160008060008c600160a060020a0316600160a060020a0316815260200190815260200160002087815481101515610dee57fe5b6000918252602080832060016008909302018201548452830193909352604090910190208254815473ffffffffffffffffffffffffffffffffffffffff1916600160a060020a039091161781558282015481830155600280840180549293610e67938386019391811615610100026000190116046127db565b506003828101549082015560048083015490820155600580830154908201805460ff191660ff9092161515919091179055600680830154908201556007918201549101558051600160a060020a038916907facc2ad1db1154324b89c4f974a62dc26ac00d40ca5cd14996a8d586d0c16440790839087908110610ee657fe5b90602001906020020151602001518387815181101515610f0257fe5b90602001906020020151604001518488815181101515610f1e57fe5b90602001906020020151606001518589815181101515610f3a57fe5b906020019060200201516080015160405180856000191660001916815260200180602001848152602001838152602001828103825285818151815260200191508051906020019080838360005b83811015610f9f578181015183820152602001610f87565b50505050905090810190601f168015610fcc5780820380516001836020036101000a031916815260200191505b509550505050505060405180910390a2506001979650505050505050565b60008383836040518084600160a060020a0316600160a060020a03166c0100000000000000000000000002815260140183805190602001908083835b602083106110455780518252601f199092019160209182019101611026565b51815160209384036101000a600019018019909216911617905285519190930192850191508083835b6020831061108d5780518252601f19909201916020918201910161106e565b5181516020939093036101000a600019018019909116921691909117905260405192018290039091209998505050505050505050565b60068054829081106110d157fe5b600091825260209091200154600160a060020a0316905081565b6000606060008060006110fc612850565b600160a060020a038a1660009081526020818152604080832080548251818502810185019093528083529193909284015b82821015611246576000848152602090819020604080516101008181018352600887029093018054600160a060020a0316825260018082015483870152600280830180548651601f948216159098026000190116919091049182018790048702860187018552818652929591949386019392918301828280156111f15780601f106111c6576101008083540402835291602001916111f1565b820191906000526020600020905b8154815290600101906020018083116111d457829003601f168201915b5050509183525050600382015460208083019190915260048301546040830152600583015460ff16151560608301526006830154608083015260079092015460a090910152908252600192909201910161112d565b505050600160a060020a038c166000908152600260205260409020600401549196505060ff16151561127757600080fd5b84519350600092505b838310156112c2576112ad858481518110151561129957fe5b90602001906020020151604001518a61238b565b156112b757600080fd5b600190920191611280565b61138d8a8a600260008e600160a060020a0316600160a060020a031681526020019081526020016000206001018054600181600116156101000203166002900480601f0160208091040260200160405190810160405280929190818152602001828054600181600116156101000203166002900480156113835780601f1061135857610100808354040283529160200191611383565b820191906000526020600020905b81548152906001019060200180831161136657829003601f168201915b5050505050610fea565b9150610100604051908101604052808b600160a060020a03168152602001836000191681526020018a815260200189815260200188815260200160011515815260200185815260200160006001026000191681525090506000808b600160a060020a0316600160a060020a03168152602001908152602001600020819080600181540180825580915050906001820390600052602060002090600802016000909192909190915060008201518160000160006101000a815481600160a060020a030219169083600160a060020a0316021790555060208201518160010190600019169055604082015181600201908051906020019061148d92919061275d565b50606082015160038201556080820151600482015560a082015160058201805460ff191691151591909117905560c0820151600682015560e090910151600790910155506000828152600160208181526040928390208451815473ffffffffffffffffffffffffffffffffffffffff1916600160a060020a039091161781558482015192810192909255918301518051849361153092600285019291019061275d565b50606082015181600301556080820151816004015560a08201518160050160006101000a81548160ff02191690831515021790555060c0820151816006015560e082015181600701906000191690559050506003600083600019166000191681526020019081526020016000208a90806001815401808255809150509060018203906000526020600020016000909192909190916101000a815481600160a060020a030219169083600160a060020a031602179055505089600160a060020a03167fa0254ea3ec3991b4e2a6d0a37973267c9229c56d5759415a2448d47dc0b44cc6838b8b8b60405180856000191660001916815260200180602001848152602001838152602001828103825285818151815260200191508051906020019080838360005b8381101561166d578181015183820152602001611655565b50505050905090810190601f16801561169a5780820380516001836020036101000a031916815260200191505b509550505050505060405180910390a25098975050505050505050565b60006060600080606060008060606000808b600160a060020a0316600160a060020a03168152602001908152602001600020805480602002602001604051908101604052809291908181526020016000905b82821015611822576000848152602090819020604080516101008181018352600887029093018054600160a060020a0316825260018082015483870152600280830180548651601f948216159098026000190116919091049182018790048702860187018552818652929591949386019392918301828280156117cd5780601f106117a2576101008083540402835291602001916117cd565b820191906000526020600020905b8154815290600101906020018083116117b057829003601f168201915b5050509183525050600382015460208083019190915260048301546040830152600583015460ff16151560608301526006830154608083015260079092015460a0909101529082526001929092019101611709565b505050509050888151118015611839575060008910155b151561184457600080fd5b808981518110151561185257fe5b9060200190602002015160a00151151561186b57600080fd5b808981518110151561187957fe5b9060200190602002015160200151818a81518110151561189557fe5b9060200190602002015160400151828b8151811015156118b157fe5b9060200190602002015160600151838c8151811015156118cd57fe5b906020019060200201516080015160026000868f8151811015156118ed57fe5b9060200190602002015160000151600160a060020a0316600160a060020a03168152602001908152602001600020600101858e81518110151561192c57fe5b9060200190602002015160c00151868f81518110151561194857fe5b602090810290910181015160e00151835460408051601f6002600019610100600187161502019094169390930492830185900485028101850190915281815291928591908301828280156119dd5780601f106119b2576101008083540402835291602001916119dd565b820191906000526020600020905b8154815290600101906020018083116119c057829003601f168201915b5050505050925097509750975097509750975097505092959891949750929550565b600360205281600052604060002081815481101515611a1a57fe5b600091825260209091200154600160a060020a03169150829050565b600160a060020a03821660009081526002602052604081206004015460ff161515611a6057600080fd5b600160a060020a03831660009081526002602090815260409091208351611a8f9260019092019185019061275d565b5060019392505050565b611b46828260046002815481101515611aae57fe5b600091825260209182902001805460408051601f6002600019610100600187161502019094169390930492830185900485028101850190915281815292830182828015611b3c5780601f10611b1157610100808354040283529160200191611b3c565b820191906000526020600020905b815481529060010190602001808311611b1f57829003601f168201915b505050505061244d565b505050565b600160a060020a038116600090815260026020526040812060040154606091829160ff161515611b7a57600080fd5b600160a060020a038416600090815260026020818152604092839020600381015460018083018054875192811615610100026000190116869004601f8101869004860283018601909752868252959290940193909290918591830182828015611c245780601f10611bf957610100808354040283529160200191611c24565b820191906000526020600020905b815481529060010190602001808311611c0757829003601f168201915b5050855460408051602060026001851615610100026000190190941693909304601f810184900484028201840190925281815295985087945092508401905082828015611cb25780601f10611c8757610100808354040283529160200191611cb2565b820191906000526020600020905b815481529060010190602001808311611c9557829003601f168201915b505050505091509250925092509193909250565b60009081526003602052604090205490565b600060606000806060600080611cec612850565b6000898152600160208181526040808420815161010081810184528254600160a060020a031682528286015482860152600280840180548651601f9982161590940260001901169190910496870186900486028201860185528682529195929493860193909290830182828015611da45780601f10611d7957610100808354040283529160200191611da4565b820191906000526020600020905b815481529060010190602001808311611d8757829003601f168201915b505050918352505060038201546020808301919091526004830154604080840191909152600584015460ff16151560608401526006840154608084015260079093015460a09283015260008e8152600180835284822054600160a060020a03168252600290925292909220908301519294500191501515611e2457600080fd5b81516040808401516060850151608086015160c087015160e0880151875486516020601f600260001961010060018716150201909416939093049283018190048102820181019098528181529596949593948994918591830182828015611ecc5780601f10611ea157610100808354040283529160200191611ecc565b820191906000526020600020905b815481529060010190602001808311611eaf57829003601f168201915b5050505050925098509850985098509850985098505050919395979092949650565b6000606060008060008060008d600160a060020a0316600160a060020a03168152602001908152602001600020805480602002602001604051908101604052809291908181526020016000905b82821015612054576000848152602090819020604080516101008181018352600887029093018054600160a060020a0316825260018082015483870152600280830180548651601f94821615909802600019011691909104918201879004870286018701855281865292959194938601939291830182828015611fff5780601f10611fd457610100808354040283529160200191611fff565b820191906000526020600020905b815481529060010190602001808311611fe257829003601f168201915b5050509183525050600382015460208083019190915260048301546040830152600583015460ff16151560608301526006830154608083015260079092015460a0909101529082526001929092019101611f3b565b505050600160a060020a038e166000908152600260205260409020600401549195505060ff1680156120a15750600160a060020a038b1660009081526002602052604090206004015460ff165b15156120ac57600080fd5b83868151811015156120ba57fe5b9060200190602002015160a0015115156120d357600080fd5b8584511180156120e4575060008610155b15156120ef57600080fd5b8784878151811015156120fe57fe5b6020908102909101015160800151101561211757600080fd5b600160a060020a038b16600090815260026020526040902060030154888802111561214157600080fd5b600160a060020a038c16600090815260208190526040902080548790811061216557fe5b9060005260206000209060080201600401549250878303915061218a8c8c8a8a612684565b6121968b8b898b6110eb565b90508115156121ae576121a8896126c4565b506121bf565b6121bd8c8b89858a6000610adc565b505b60408051600160a060020a03808f1682528d1660208201528082018b905260608101839052608081018a905260a0810189905290517f6c1bba97f5eda0f15a27d1626f8ac96da5020ded70a2d493d0f2e1e492674f4a9181900360c00190a15060019b9a5050505050505050505050565b600554600160a060020a031681565b611b46828260046003815481101515611aae57fe5b600160a060020a03811660009081526002602052604081206004015460ff16151561227e57600080fd5b50600160a060020a031660009081526020819052604090205490565b611b46828260046001815481101515611aae57fe5b6000808210156122be57600080fd5b60008381526003602052604090208054839081106122d857fe5b600091825260209091200154600160a060020a03169392505050565b6000808210158015612307575060065482105b151561231257600080fd5b6002600060068481548110151561232557fe5b6000918252602080832090910154600160a060020a0316835282019290925260400190206004015460ff16151561235b57600080fd5b600680548390811061236957fe5b600091825260209091200154600160a060020a031692915050565b6006545b90565b6000816040518082805190602001908083835b602083106123bd5780518252601f19909201916020918201910161239e565b51815160209384036101000a6000190180199092169116179052604051919093018190038120885190955088945090928392508401908083835b602083106124165780518252601f1990920191602091820191016123f7565b5181516020939093036101000a60001901801990911692169190911790526040519201829003909120939093149695505050505050565b600160a060020a03831660009081526002602052604081206004015460ff161561247657600080fd5b600160a060020a0384166000818152600260209081526040909120805473ffffffffffffffffffffffffffffffffffffffff1916909217825584516124c1926001019186019061275d565b50600160a060020a038416600090815260026020818152604090922084516124f19391909201919085019061275d565b50600160a060020a03841660008181526002602090815260408083206103e8600382019081556004909101805460ff191660019081179091556006805491820190557ff652222313e28459528d920b65115c16c04f3efc82aaedc97be59f3f377c0d3f01805473ffffffffffffffffffffffffffffffffffffffff191686179055548151918201819052606080835288519083015287517fed2207f4d22033bf2c9d03e5b22e7916c7cc38ef3476d960508db078fc52db899489948994928392838301926080850192908901918190849084905b838110156125dd5781810151838201526020016125c5565b50505050905090810190601f16801561260a5780820380516001836020036101000a031916815260200191505b50838103825285518152855160209182019187019080838360005b8381101561263d578181015183820152602001612625565b50505050905090810190601f16801561266a5780820380516001836020036101000a031916815260200191505b509550505050505060405180910390a25060019392505050565b600160a060020a03928316600090815260026020526040808220600390810180549490950293849003909455949093168352929091200180549091019055565b60008181526001602052604081206005015460ff1615156126e457600080fd5b60008281526001602081815260408084208054600160a060020a0316855284835290842086855292909152600601548154811061271d57fe5b6000918252602080832060056008909302018201805494151560ff1995861617905585835260019081905260409092200180549092169091559050919050565b828054600181600116156101000203166002900490600052602060002090601f016020900481019282601f1061279e57805160ff19168380011785556127cb565b828001600101855582156127cb579182015b828111156127cb5782518255916020019190600101906127b0565b506127d7929150612895565b5090565b828054600181600116156101000203166002900490600052602060002090601f016020900481019282601f1061281457805485556127cb565b828001600101855582156127cb57600052602060002091601f016020900482015b828111156127cb578254825591600101919060010190612835565b604080516101008101825260008082526020820181905260609282018390529181018290526080810182905260a0810182905260c0810182905260e081019190915290565b61238891905b808211156127d7576000815560010161289b5600a165627a7a7230582097d15902b256354b7473e5f1e7010dab2ed3f61b13e881b15005e1619e44c1600029",
  "source": "pragma solidity ^0.4.24;\n// We have to specify what version of compiler this code will compile with\ncontract SeaFoodContract {\n  \n  struct Entity {\n    address _address;\n    bytes32 _id;\n    string _name;\n    uint _value;//per quantity\n    uint _quantity; \n    bool _isAlive;\n    uint _index;\n    bytes32 _stateId ;\n  }\n\n  struct User {\n    address _account;\n    string _username;\n    string _type; //Type\n    uint _balance;\n    bool _isAlive;\n  }\n    \n  //map all entities of a address\n  mapping (address => Entity[]) private userEntities;\n  //map an entity with its unique entity id\n  mapping (bytes32 => Entity) private entities;\n  //map each address with its user\n  mapping (address => User)  private userStructs;\n  //map history of users with entity\n  mapping (bytes32=>address[]) public entityUsers; \n  \n  string[] public owners;\n  address public owner;\n  address[] public userIds;\n  event LogNewEntity   (address indexed _userAddress,bytes32 _id, string _name, uint _value,uint _quantity);\n  event LogUpdateEntity   (address indexed _userAddress,bytes32 _id, string _name, uint _value,uint _quantity);\n  event LogNewUser   (address indexed _userAddress, string _username , string _type, uint _balance);\n  event Transaction(address _from, address _to, bytes32 _senderEntityid ,bytes32 _buyerEntityid ,uint _quantity, uint _amount);\n\n  /* This is the constructor which will be called once when you\n  deploy the contract to the blockchain. When we deploy the contract,\n  */\n   constructor() public \n  {\n    owner = msg.sender;\n    owners = [\"Admin\",\"Fisherman\",\"Buyer\",\"Restauranteur\"];\n    userStructs[msg.sender]._username   = 'Admin';\n    userStructs[msg.sender]._type   = owners[0];\n    userStructs[msg.sender]._balance = 0 ; \n    userStructs[msg.sender]._isAlive = true ; \n    userIds.push(msg.sender);\n  }\n\n  function addAsFisherMan(address _address,string _name) public\n  {\n    insertUser(_address,_name,owners[1]);\n  }\n\n  function addAsBuyer(address _address,string _name) public \n  {\n   insertUser(_address,_name,owners[2]);\n  }\n\n  function addAsRestaurantOwner(address _address,string _name) public\n  {\n    insertUser(_address,_name,owners[3]);\n  }\n  \n\n  function insertUser(\n    address _userAddress, \n    string _username,\n    string _type) \n    internal\n    returns(bool success)\n  {\n    require(!userStructs[_userAddress]._isAlive);\n    userStructs[_userAddress]._account = _userAddress;\n    userStructs[_userAddress]._username   = _username;\n    userStructs[_userAddress]._type   = _type;\n    userStructs[_userAddress]._balance = 1000 ; \n    userStructs[_userAddress]._isAlive = true ; \n    userIds.push(_userAddress);\n    emit LogNewUser(\n        _userAddress, \n        _username, \n        _type,\n        userStructs[_userAddress]._balance);\n    return true;\n  }\n  \n  function getUserAddressByIndex(uint _index)\n  public \n  constant returns (address)\n  {\n      require(_index >= 0 && _index<userIds.length);\n      require(userStructs[userIds[_index]]._isAlive);\n      return userIds[_index];\n  }\n  \n  function getUsersAddressCount()\n  public \n  constant\n  returns (uint){\n      return userIds.length;\n  }\n\n    function getUser(address _userAddress)\n    public \n    constant\n    returns(string _username , string _type, uint _balance )\n  {\n      require(userStructs[_userAddress]._isAlive);\n    return(\n      userStructs[_userAddress]._username, \n      userStructs[_userAddress]._type,\n      userStructs[_userAddress]._balance);\n  } \n  \n  function updateUsername(address _userAddress , string _username)\n    public \n    returns(bool _success )\n  {\n      require(userStructs[_userAddress]._isAlive) ;\n      userStructs[_userAddress]._username   = _username;\n      return true;\n  }\n  \n  function addEntity(address _address,\n    string _name,\n    uint _value,\n    uint _quantity) public \n    returns(bytes32) \n  {\n         Entity[] memory _entities = userEntities[_address];\n         require(userStructs[_address]._isAlive);\n        //  require(msg.sender == _address);\n         uint _index = _entities.length;\n         for(uint i=0;i<_index;i++){\n             require(!compareStrings(_entities[i]._name,_name));\n         }\n         //Create entity id\n         bytes32 _entityId = createId(_address,_name,userStructs[_address]._username);\n         Entity memory _entity = Entity(_address,_entityId,_name,_value,_quantity,true,_index,0);\n         userEntities[_address].push(_entity);\n         entities[_entityId] = _entity;\n         entityUsers[_entityId].push(_address);\n   emit LogNewEntity(\n        _address,_entityId, \n        _name, \n        _value,\n        _quantity);\n         return _entityId;\n  }\n\n  function getEntityCount(address _address)\n    public \n    constant\n    returns(uint _count)\n  {\n      require(userStructs[_address]._isAlive);\n      return userEntities[_address].length;\n  }\n  \n  \n  function getEntityById(bytes32 _id)\n  public constant\n  returns (address,\n    string ,\n    uint ,\n    uint ,string,uint,bytes32)\n  {\n        Entity memory _entity = entities[_id];\n        string storage _username = userStructs[entities[_id]._address]._username;\n        require(_entity._isAlive);\n        return ( _entity._address,_entity._name,_entity._value,_entity._quantity,_username,_entity._index,_entity._stateId);\n  }\n  \n  function getEntityByAddress(address _address , uint _index)\n  public constant\n  returns (bytes32,\n    string ,\n    uint ,\n    uint ,string,uint,bytes32 )\n  {\n        Entity[] memory _entities = userEntities[_address];\n        require(_entities.length > _index && _index >= 0) ;\n        require(_entities[_index]._isAlive) ;\n        return (_entities[_index]._id,_entities[_index]._name,_entities[_index]._value,_entities[_index]._quantity,userStructs[_entities[_index]._address]._username,_entities[_index]._index,_entities[_index]._stateId);\n  }\n\n  function updateEntity(address _address,\n    string _name,\n    uint _value,\n    uint _quantity,uint _index,bytes32 _stateId) \n    public\n    returns(bool _success) \n  {\n    //   require(msg.sender == _address);\n    Entity[] memory _entities = userEntities[_address];\n    require(_entities.length > _index && _index >= 0) ;\n    require(_entities[_index]._isAlive) ;\n    // userEntities[_address][_index]._address = _address;\n    // userEntities[_address][_index]._id = _id;\n    userEntities[_address][_index]._name = _name;\n    userEntities[_address][_index]._value = _value;\n    userEntities[_address][_index]._quantity = _quantity;\n    userEntities[_address][_index]._stateId = _stateId;\n    entities[userEntities[_address][_index]._id] = userEntities[_address][_index];\n   emit  LogUpdateEntity(_address,_entities[_index]._id, _entities[_index]._name, _entities[_index]._value,_entities[_index]._quantity);\n    return true;\n  }\n  \n  function getEntityUserAddressess(bytes32 _entityId,uint _index) public returns (address) {\n      require(_index >= 0);\n      return entityUsers[_entityId][_index];\n  }\n  \n  function getEntityUserAddressessCount(bytes32 _entityId) public returns (uint) {\n     \n      return entityUsers[_entityId].length;\n  }\n\n  function deleteEntity(bytes32 _entityId) private  returns (bool){\n    //   checkOwner();//check\n      require( entities[_entityId]._isAlive);\n      userEntities[entities[_entityId]._address][ entities[_entityId]._index]._isAlive =  false;\n      entities[_entityId]._isAlive = false;\n    //   delete  entities[_entityId];\n    //   delete userEntities[ entities[_entityId]._address][ entities[_entityId]._index];\n      return true;\n  }\n\n  function buyEntity(address _sender,address _buyer,string _name,bytes32 _entityId,uint _quantity,uint _amount,uint _index) public returns (bool)\n  {\n        // checkOwner();\n        // require(msg.sender == _buyer);\n        Entity[] memory _sender_entities = userEntities[_sender];\n        require(userStructs[_sender]._isAlive && userStructs[_buyer]._isAlive) ;//user not living / dead\n        require(_sender_entities[_index]._isAlive);\n        require(_sender_entities.length > _index && _index >= 0);\n        \n        require(_sender_entities[_index]._quantity >= _quantity) ;//insufficient quantity\n        require(userStructs[_buyer]._balance >= (_quantity * _amount)) ;//low balances\n        \n        uint orig_qty = userEntities[_sender][_index]._quantity;\n        uint left_qty = orig_qty - _quantity;\n          //update balance\n        updateBalance(_sender,_buyer,_quantity,_amount);\n        bytes32 _buyerEntityId = addEntity(_buyer,_name,_amount,_quantity);\n        if(left_qty == 0) { \n            //all quantity transferred\n        //  userEntities[_sender][_index]._isAlive=false;\n         deleteEntity(_entityId);\n        }\n        else {\n         updateEntity(_sender,_name,_amount,left_qty,_index,0); \n        }\n      emit Transaction (_sender, _buyer,_entityId , _buyerEntityId , _quantity,  _amount);\n\n      return true;\n  }\n  \n   function updateEntityStateId(bytes32 _entityId1,bytes32 _entityId2,bytes32 _stateId) public returns(bool){\n        require(entities[_entityId1]._isAlive || entities[_entityId2]._isAlive);\n        entities[_entityId1]._stateId = _stateId;\n         entities[_entityId2]._stateId = _stateId;\n        userEntities[entities[_entityId1]._address][entities[_entityId1]._index]._stateId = _stateId;\n        userEntities[entities[_entityId2]._address][entities[_entityId2]._index]._stateId = _stateId;\n        return true;\n    }\n  \n  function updateBalance(address _sender,address _buyer,uint _quantity,uint _amount) internal\n  {\n        userStructs[_buyer]._balance = userStructs[_buyer]._balance - (_quantity * _amount);\n        userStructs[_sender]._balance = userStructs[_sender]._balance + (_quantity * _amount);\n  }\n  \n  function checkOwner() internal view \n  {\n           require(owner == msg.sender);\n  }\n\n  function compareStrings (string a, string b) internal pure returns (bool)\n  {\n       return (keccak256(a)) == (keccak256(b));\n  }\n    \n  //generate specific entity id with address and name \n  function createId(address _address,string _name,string _username) public pure returns (bytes32 blobId) {\n        // Generate the blobId.\n        blobId = bytes32(keccak256(_address,_name,_username));\n  }\n}\n",
  "sourcePath": "/home/synerzip/Desktop/Ethereum-nodejs/truffle/contracts/SeaFoodContract.sol",
  "compiler": {
    "name": "solc",
    "version": "0.4.24+commit.e67f0147.Emscripten.clang"
  },
  "schemaVersion": "2.0.1",
  "updatedAt": "2018-09-30T16:06:00.822Z"
}