{
  "contractName": "StateContract",
  "abi": [
    {
      "constant": true,
      "inputs": [
        {
          "name": "",
          "type": "uint256"
        }
      ],
      "name": "stateIds",
      "outputs": [
        {
          "name": "",
          "type": "bytes32"
        }
      ],
      "payable": false,
      "stateMutability": "view",
      "type": "function"
    },
    {
      "constant": true,
      "inputs": [
        {
          "name": "",
          "type": "uint256"
        }
      ],
      "name": "sensorIds",
      "outputs": [
        {
          "name": "",
          "type": "bytes32"
        }
      ],
      "payable": false,
      "stateMutability": "view",
      "type": "function"
    },
    {
      "inputs": [],
      "payable": false,
      "stateMutability": "nonpayable",
      "type": "constructor"
    },
    {
      "constant": false,
      "inputs": [
        {
          "name": "_name",
          "type": "string"
        }
      ],
      "name": "addSensor",
      "outputs": [
        {
          "name": "",
          "type": "bytes32"
        }
      ],
      "payable": false,
      "stateMutability": "nonpayable",
      "type": "function"
    },
    {
      "constant": false,
      "inputs": [
        {
          "name": "_sensorId",
          "type": "bytes32"
        },
        {
          "name": "_senderEntityId",
          "type": "bytes32"
        },
        {
          "name": "_buyerEntityId",
          "type": "bytes32"
        },
        {
          "name": "_weight",
          "type": "uint256"
        },
        {
          "name": "_quantity",
          "type": "uint256"
        },
        {
          "name": "_place",
          "type": "string"
        },
        {
          "name": "_latitude",
          "type": "string"
        },
        {
          "name": "_longitude",
          "type": "string"
        },
        {
          "name": "_date",
          "type": "string"
        },
        {
          "name": "_amount",
          "type": "uint256"
        }
      ],
      "name": "attachSensor",
      "outputs": [
        {
          "name": "",
          "type": "bool"
        }
      ],
      "payable": false,
      "stateMutability": "nonpayable",
      "type": "function"
    },
    {
      "constant": false,
      "inputs": [
        {
          "name": "_sensorId",
          "type": "bytes32"
        },
        {
          "name": "_latitude",
          "type": "string"
        },
        {
          "name": "_longitude",
          "type": "string"
        },
        {
          "name": "_location",
          "type": "string"
        },
        {
          "name": "_temp",
          "type": "uint256"
        }
      ],
      "name": "updateSensor",
      "outputs": [
        {
          "name": "",
          "type": "bool"
        }
      ],
      "payable": false,
      "stateMutability": "nonpayable",
      "type": "function"
    },
    {
      "constant": true,
      "inputs": [
        {
          "name": "_index",
          "type": "uint256"
        }
      ],
      "name": "getSensorByIndex",
      "outputs": [
        {
          "name": "",
          "type": "bytes32"
        }
      ],
      "payable": false,
      "stateMutability": "view",
      "type": "function"
    },
    {
      "constant": true,
      "inputs": [],
      "name": "getSensorsCount",
      "outputs": [
        {
          "name": "",
          "type": "uint256"
        }
      ],
      "payable": false,
      "stateMutability": "view",
      "type": "function"
    },
    {
      "constant": true,
      "inputs": [
        {
          "name": "_sensorId",
          "type": "bytes32"
        }
      ],
      "name": "getSensorDetails",
      "outputs": [
        {
          "name": "",
          "type": "string"
        },
        {
          "name": "",
          "type": "bytes32"
        },
        {
          "name": "",
          "type": "bool"
        }
      ],
      "payable": false,
      "stateMutability": "view",
      "type": "function"
    },
    {
      "constant": true,
      "inputs": [
        {
          "name": "_sensorId",
          "type": "bytes32"
        },
        {
          "name": "_index",
          "type": "uint256"
        }
      ],
      "name": "getSensorTelemetry",
      "outputs": [
        {
          "name": "",
          "type": "bytes32"
        },
        {
          "name": "",
          "type": "uint256"
        },
        {
          "name": "",
          "type": "string"
        },
        {
          "name": "",
          "type": "string"
        },
        {
          "name": "",
          "type": "string"
        }
      ],
      "payable": false,
      "stateMutability": "view",
      "type": "function"
    },
    {
      "constant": true,
      "inputs": [
        {
          "name": "_sensorId",
          "type": "bytes32"
        }
      ],
      "name": "getSensorTelemetryCount",
      "outputs": [
        {
          "name": "",
          "type": "uint256"
        }
      ],
      "payable": false,
      "stateMutability": "view",
      "type": "function"
    },
    {
      "constant": true,
      "inputs": [
        {
          "name": "_stateId",
          "type": "bytes32"
        }
      ],
      "name": "getTransactState",
      "outputs": [
        {
          "name": "",
          "type": "bytes32"
        },
        {
          "name": "",
          "type": "bytes32"
        },
        {
          "name": "",
          "type": "bool"
        }
      ],
      "payable": false,
      "stateMutability": "view",
      "type": "function"
    },
    {
      "constant": true,
      "inputs": [
        {
          "name": "_entityId",
          "type": "bytes32"
        }
      ],
      "name": "getEntityStateId",
      "outputs": [
        {
          "name": "",
          "type": "bytes32"
        }
      ],
      "payable": false,
      "stateMutability": "view",
      "type": "function"
    },
    {
      "constant": true,
      "inputs": [
        {
          "name": "_index",
          "type": "uint256"
        }
      ],
      "name": "getTransactionStateIdByIndex",
      "outputs": [
        {
          "name": "",
          "type": "bytes32"
        }
      ],
      "payable": false,
      "stateMutability": "view",
      "type": "function"
    },
    {
      "constant": true,
      "inputs": [
        {
          "name": "_stateId",
          "type": "bytes32"
        }
      ],
      "name": "getTransactionInfo",
      "outputs": [
        {
          "name": "",
          "type": "bytes32"
        },
        {
          "name": "",
          "type": "uint256"
        },
        {
          "name": "",
          "type": "uint256"
        },
        {
          "name": "",
          "type": "string"
        },
        {
          "name": "",
          "type": "string"
        },
        {
          "name": "",
          "type": "uint256"
        }
      ],
      "payable": false,
      "stateMutability": "view",
      "type": "function"
    },
    {
      "constant": true,
      "inputs": [
        {
          "name": "_id",
          "type": "bytes32"
        }
      ],
      "name": "getTelemetryInfo",
      "outputs": [
        {
          "name": "",
          "type": "bytes32"
        },
        {
          "name": "",
          "type": "uint256"
        },
        {
          "name": "",
          "type": "string"
        },
        {
          "name": "",
          "type": "string"
        },
        {
          "name": "",
          "type": "string"
        }
      ],
      "payable": false,
      "stateMutability": "view",
      "type": "function"
    },
    {
      "constant": true,
      "inputs": [
        {
          "name": "_id",
          "type": "bytes32"
        }
      ],
      "name": "getLocation",
      "outputs": [
        {
          "name": "",
          "type": "string"
        }
      ],
      "payable": false,
      "stateMutability": "view",
      "type": "function"
    },
    {
      "constant": false,
      "inputs": [
        {
          "name": "_id",
          "type": "bytes32"
        }
      ],
      "name": "deleteTelemetryInfo",
      "outputs": [
        {
          "name": "",
          "type": "bool"
        }
      ],
      "payable": false,
      "stateMutability": "nonpayable",
      "type": "function"
    },
    {
      "constant": false,
      "inputs": [
        {
          "name": "_id",
          "type": "bytes32"
        }
      ],
      "name": "deleteTransactionState",
      "outputs": [
        {
          "name": "",
          "type": "bool"
        }
      ],
      "payable": false,
      "stateMutability": "nonpayable",
      "type": "function"
    }
  ],
  "bytecode": "0x60806040523480156200001157600080fd5b5060028054600160a060020a0319163317905560408051808201909152600881527f53454e534f522d3100000000000000000000000000000000000000000000000060208201526200006c90640100000000620000bc810204565b5060408051808201909152600881527f53454e534f522d320000000000000000000000000000000000000000000000006020820152620000b590640100000000620000bc810204565b50620002b1565b600080620000d383640100000000620001a6810204565b6000818152600360208190526040909120015490915060ff1615620000f757600080fd5b604080516080810182528481526020808201849052600082840181905260608301819052848152600382529290922081518051929391926200013d92849201906200020c565b506020820151600182810191909155604083015160028301556060909201516003909101805460ff191691151591909117905560008054918201815580527f290decd9548b62a8d60345a988386fc84ba6bc95484008f6362f93160ef3e5630181905592915050565b6000816040518082805190602001908083835b60208310620001da5780518252601f199092019160209182019101620001b9565b5181516020939093036101000a6000190180199091169216919091179052604051920182900390912095945050505050565b828054600181600116156101000203166002900490600052602060002090601f016020900481019282601f106200024f57805160ff19168380011785556200027f565b828001600101855582156200027f579182015b828111156200027f57825182559160200191906001019062000262565b506200028d92915062000291565b5090565b620002ae91905b808211156200028d576000815560010162000298565b90565b611ea580620002c16000396000f3006080604052600436106100fb5763ffffffff7c0100000000000000000000000000000000000000000000000000000000600035041663257da3ef8114610100578063320274ec1461012a57806337144b4b1461014257806349e6b62c1461015a578063550461a71461027457806355781a19146103645780635be6405e1461037c5780635dc6e28b146104095780635fa663c51461053957806366a4558d146105515780636dc65f95146105695780638216d4b414610581578063840ef573146105da578063df31384e146105ef578063e5789ca114610607578063f71030a8146106a9578063f77de3d2146106c4578063ff7b12a1146106fc575b600080fd5b34801561010c57600080fd5b50610118600435610824565b60408051918252519081900360200190f35b34801561013657600080fd5b50610118600435610843565b34801561014e57600080fd5b50610118600435610882565b34801561016657600080fd5b506101726004356108ae565b6040518087600019166000191681526020018681526020018581526020018060200180602001848152602001838103835286818151815260200191508051906020019080838360005b838110156101d35781810151838201526020016101bb565b50505050905090810190601f1680156102005780820380516001836020036101000a031916815260200191505b50838103825285518152855160209182019187019080838360005b8381101561023357818101518382015260200161021b565b50505050905090810190601f1680156102605780820380516001836020036101000a031916815260200191505b509850505050505050505060405180910390f35b34801561028057600080fd5b5060408051602060046024803582810135601f810185900485028601850190965285855261035095833595369560449491939091019190819084018382808284375050604080516020601f89358b018035918201839004830284018301909452808352979a99988101979196509182019450925082915084018382808284375050604080516020601f89358b018035918201839004830284018301909452808352979a9998810197919650918201945092508291508401838280828437509497505093359450610a1e9350505050565b604080519115158252519081900360200190f35b34801561037057600080fd5b50610118600435610ef5565b34801561038857600080fd5b50610394600435610f28565b6040805160208082528351818301528351919283929083019185019080838360005b838110156103ce5781810151838201526020016103b6565b50505050905090810190601f1680156103fb5780820380516001836020036101000a031916815260200191505b509250505060405180910390f35b34801561041557600080fd5b50610421600435610fed565b604051808660001916600019168152602001858152602001806020018060200180602001848103845287818151815260200191508051906020019080838360005b8381101561047a578181015183820152602001610462565b50505050905090810190601f1680156104a75780820380516001836020036101000a031916815260200191505b50848103835286518152865160209182019188019080838360005b838110156104da5781810151838201526020016104c2565b50505050905090810190601f1680156105075780820380516001836020036101000a031916815260200191505b50848103825285518152855160209182019187019080838360008381101561023357818101518382015260200161021b565b34801561054557600080fd5b50610350600435611203565b34801561055d57600080fd5b506101186004356112a8565b34801561057557600080fd5b506101186004356112c7565b34801561058d57600080fd5b506040805160206004803580820135601f81018490048402850184019095528484526101189436949293602493928401919081908401838280828437509497506112d59650505050505050565b3480156105e657600080fd5b506101186113b1565b3480156105fb57600080fd5b506103506004356113b8565b34801561061357600080fd5b5061061f600435611456565b604080516020808201859052831515928201929092526060808252855190820152845190918291608083019187019080838360005b8381101561066c578181015183820152602001610654565b50505050905090810190601f1680156106995780820380516001836020036101000a031916815260200191505b5094505050505060405180910390f35b3480156106b557600080fd5b5061042160043560243561151d565b3480156106d057600080fd5b506106dc600435611742565b604080519384526020840192909252151582820152519081900360600190f35b34801561070857600080fd5b50604080516020600460a43581810135601f81018490048402850184019095528484526103509482359460248035956044359560643595608435953695929460c494920191819084018382808284375050604080516020601f89358b018035918201839004830284018301909452808352979a99988101979196509182019450925082915084018382808284375050604080516020601f89358b018035918201839004830284018301909452808352979a99988101979196509182019450925082915084018382808284375050604080516020601f89358b018035918201839004830284018301909452808352979a99988101979196509182019450925082915084018382808284375094975050933594506117919350505050565b600180548290811061083257fe5b600091825260209091200154905081565b600080821015801561085757506001546000105b151561086257600080fd5b600180548390811061087057fe5b90600052602060002001549050919050565b6000808210158015610895575060008054115b15156108a057600080fd5b600080548390811061087057fe5b600081815260056020818152604080842060018082015460038301546004840154600785015497850180548751601f60026101009884161598909802600019019092168790049182018a90048a0281018a019098528088528a998a996060998a998c9981019897969594600690910193928591908301828280156109735780601f1061094857610100808354040283529160200191610973565b820191906000526020600020905b81548152906001019060200180831161095657829003601f168201915b5050855460408051602060026001851615610100026000190190941693909304601f810184900484028201840190925281815295985087945092508401905082828015610a015780601f106109d657610100808354040283529160200191610a01565b820191906000526020600020905b8154815290600101906020018083116109e457829003601f168201915b505050505091509650965096509650965096505091939550919395565b6000806000610a2c88611b53565b50610a3685611b6a565b6040805160a08101825282815260208082018b81528284018b9052606083018a905260016080840181905260008681526008845294909420835181559051805195975092949093610a8c93908501920190611c3f565b5060408201518051610aa8916002840191602090910190611c3f565b5060608201518051610ac4916003840191602090910190611c3f565b50608091909101516004909101805460ff1916911515919091179055610ae985611b6a565b6040805160a0808201835283825260208083018d905283518082018552898152838501526000878152600882528490208451928301855280548352600180820180548751600260001994831615610100029490940190911692909204601f8101859004850283018501909752868252969750939560608701959394919385840193830182828015610bbb5780601f10610b9057610100808354040283529160200191610bbb565b820191906000526020600020905b815481529060010190602001808311610b9e57829003601f168201915b5050509183525050600282810180546040805160206001841615610100026000190190931694909404601f81018390048302850183019091528084529381019390830182828015610c4d5780601f10610c2257610100808354040283529160200191610c4d565b820191906000526020600020905b815481529060010190602001808311610c3057829003601f168201915b505050918352505060038201805460408051602060026001851615610100026000190190941693909304601f8101849004840282018401909252818152938201939291830182828015610ce15780601f10610cb657610100808354040283529160200191610ce1565b820191906000526020600020905b815481529060010190602001808311610cc457829003601f168201915b505050918352505060049182015460ff1615156020918201529183526001928201839052600085815260068352604090819020855181558584015194810194909455840151516002840155606084015180516003850190815581840151805192949193610d5693908701929190910190611c3f565b5060408201518051610d72916002840191602090910190611c3f565b5060608201518051610d8e916003840191602090910190611c3f565b506080918201516004918201805491151560ff19928316179055939091015160089092018054921515929093169190911790915560008981526007602090815260408083208584526006835290832081546001818101808555938652939094208154600990950201938455808301548484015560028082015481860155600380830180549187019182558388018054959894979691959294610e4494908801939192821615610100026000190190911604611cbd565b5060028281018054610e69928481019291600019610100600183161502011604611cbd565b5060038201816003019080546001816001161561010002031660029004610e91929190611cbd565b506004918201549101805460ff928316151560ff199182161790915560089384015492909301805492909116151591831691909117905560008a81526003602081905260409091200180549091166001908117909155935050505095945050505050565b60008181526009602052604081206003015460ff161515610f1557600080fd5b5060009081526009602052604090205490565b60008181526008602052604090206004015460609060ff161515610f4b57600080fd5b60008281526008602090815260409182902060030180548351601f600261010060018516150260001901909316929092049182018490048402810184019094528084529091830182828015610fe15780601f10610fb657610100808354040283529160200191610fe1565b820191906000526020600020905b815481529060010190602001808311610fc457829003601f168201915b50505050509050919050565b6000806060806060610ffd611bce565b60008681526006602052604090206008015460ff16151561101d57600080fd5b60008681526006602081815260409283902060018082015460028084015460048501805489516000199682161561010002969096011692909204601f81018790048702850187019098528784529196919590946005850194909101929185918301828280156110cd5780601f106110a2576101008083540402835291602001916110cd565b820191906000526020600020905b8154815290600101906020018083116110b057829003601f168201915b5050855460408051602060026001851615610100026000190190941693909304601f81018490048402820184019092528181529598508794509250840190508282801561115b5780601f106111305761010080835404028352916020019161115b565b820191906000526020600020905b81548152906001019060200180831161113e57829003601f168201915b5050845460408051602060026001851615610100026000190190941693909304601f8101849004840282018401909252818152959750869450925084019050828280156111e95780601f106111be576101008083540402835291602001916111e9565b820191906000526020600020905b8154815290600101906020018083116111cc57829003601f168201915b505050505090509450945094509450945091939590929450565b60008181526006602052604081206008015460ff16151561122357600080fd5b600082815260066020526040812060088101805460ff19169055818155600181018290556002810182905560038101828155909190816112666004850182611d32565b611274600283016000611d32565b611282600383016000611d32565b50600401805460ff19908116909155600892909201805490921690915550600192915050565b60006112b382611b53565b505060009081526007602052604090205490565b600080548290811061083257fe5b6000806112e183611b6a565b6000818152600360208190526040909120015490915060ff161561130457600080fd5b604080516080810182528481526020808201849052600082840181905260608301819052848152600382529290922081518051929391926113489284920190611c3f565b506020820151600182810191909155604083015160028301556060909201516003909101805460ff191691151591909117905560008054918201815580527f290decd9548b62a8d60345a988386fc84ba6bc95484008f6362f93160ef3e5630181905592915050565b6000545b90565b60008181526005602052604081206008015460ff1615156113d857600080fd5b6000828152600560208190526040822060088101805460ff191690558281556001810183905560028101838155600382018481556004830185905591939290918391829061142890870182611d32565b611436600383016000611d32565b50600060049190910155505050600801805460ff19169055506001919050565b606060008061146484611b53565b5060008481526003602081815260409283902060028082015493820154825486516000196101006001841615020190911692909204601f8101859004850283018501909652858252919460ff90921692909185918301828280156115095780601f106114de57610100808354040283529160200191611509565b820191906000526020600020905b8154815290600101906020018083116114ec57829003601f168201915b505050505092509250925092509193909250565b6000806060806060600061153088611b53565b50600088815260076020526040902080548890811061154b57fe5b60009182526020808320600990920290910154808352600680835260409384902080546002808301546004840180548951601f610100600184161502600019019092169490940490810189900489028401890190995288835295985091969195600584019493909301929091859183018282801561160a5780601f106115df5761010080835404028352916020019161160a565b820191906000526020600020905b8154815290600101906020018083116115ed57829003601f168201915b5050855460408051602060026001851615610100026000190190941693909304601f8101849004840282018401909252818152959850879450925084019050828280156116985780601f1061166d57610100808354040283529160200191611698565b820191906000526020600020905b81548152906001019060200180831161167b57829003601f168201915b5050845460408051602060026001851615610100026000190190941693909304601f8101849004840282018401909252818152959750869450925084019050828280156117265780601f106116fb57610100808354040283529160200191611726565b820191906000526020600020905b81548152906001019060200180831161170957829003601f168201915b5050505050905095509550955095509550509295509295909350565b6000818152600460205260408120600301548190819060ff16151561176657600080fd5b505050600090815260046020526040902060018101546002820154600390920154909260ff90911690565b60008061179c611d79565b6117a4611da9565b6117ad8e611bf4565b506117b88d8d611c0c565b6040805160a0810182528d815260208082018e90528183018d9052606082018a905260808201899052600084815260059091529190912060080154919450925060ff161561180557600080fd5b604080519081016040528084600019168152602001838152509050608060405190810160405280846000191681526020018f60001916815260200182815260200160011515815250600560008560001916600019168152602001908152602001600020600082015181600001906000191690556020820151816001019060001916905560408201518160020160008201518160000190600019169055602082015181600101600082015181600001556020820151816001015560408201518160020190805190602001906118da929190611c3f565b50606082015180516118f6916003840191602090910190611c3f565b50608082015181600401555050505060608201518160080160006101000a81548160ff0219169083151502179055509050506001839080600181540180825580915050906001820390600052602060002001600090919290919091509060001916905550608060405190810160405280846000191681526020018e6000191681526020018d6000191681526020016001151581525060046000856000191660001916815260200190815260200160002060008201518160000190600019169055602082015181600101906000191690556040820151816002019060001916905560608201518160030160006101000a81548160ff021916908315150217905550905050600460008460001916600019168152602001908152602001600020600960008f600019166000191681526020019081526020016000206000820154816000019060001916905560018201548160010190600019169055600282015481600201906000191690556003820160009054906101000a900460ff168160030160006101000a81548160ff021916908315150217905550905050600460008460001916600019168152602001908152602001600020600960008e600019166000191681526020019081526020016000206000820154816000019060001916905560018201548160010190600019169055600282015481600201906000191690556003820160009054906101000a900460ff168160030160006101000a81548160ff021916908315150217905550905050611b338e89898c601b610a1e565b50611b3e8e84611c27565b5060019e9d5050505050505050505050505050565b600080548110611b6257600080fd5b506001919050565b6000816040518082805190602001908083835b60208310611b9c5780518252601f199092019160209182019101611b7d565b5181516020939093036101000a6000190180199091169216919091179052604051920182900390912095945050505050565b60025473ffffffffffffffffffffffffffffffffffffffff163314611bf257600080fd5b565b6000818152600760205260408120611b629082611dc9565b60408051928352602083019190915280519182900301902090565b60009182526003602052604090912060020155600190565b828054600181600116156101000203166002900490600052602060002090601f016020900481019282601f10611c8057805160ff1916838001178555611cad565b82800160010185558215611cad579182015b82811115611cad578251825591602001919060010190611c92565b50611cb9929150611dea565b5090565b828054600181600116156101000203166002900490600052602060002090601f016020900481019282601f10611cf65780548555611cad565b82800160010185558215611cad57600052602060002091601f016020900482015b82811115611cad578254825591600101919060010190611d17565b50805460018160011615610100020316600290046000825580601f10611d585750611d76565b601f016020900490600052602060002090810190611d769190611dea565b50565b60a06040519081016040528060008152602001600081526020016060815260200160608152602001600081525090565b6040805160c081019091526000815260208101611dc4611d79565b905290565b5080546000825560090290600052602060002090810190611d769190611e04565b6113b591905b80821115611cb95760008155600101611df0565b6113b591905b80821115611cb957600080825560018201819055600282018190556003820181815581611e3a6004850182611d32565b611e48600283016000611d32565b611e56600383016000611d32565b50600401805460ff19908116909155600883018054909116905550600901611e0a5600a165627a7a72305820401dfbca6c65ba33bb8f240faf18a47856b878f6f0cd4eb25111f7830ed7c2a60029",
  "source": "pragma solidity ^0.4.24;\n\n     \n// We have to specify what version of compiler this code will compile with\n contract StateContract\n {\n       //will contain both entity ids\n    struct TrackState \n    {\n      bytes32 _stateId;\n      bytes32 _sender_entity_id;\n      bytes32 _buyer_entity_id;\n      bool _isAlive;\n    }\n    \n    struct StateInfo \n    {\n          bytes32 _stateId;//...Each transaction has unique id\n          bytes32 _sensorId;\n          TransactionInfo _transInfo;\n          bool _isAlive;\n    }\n      \n    struct Sensor\n    {\n          string _name;\n          bytes32 _sensorId;\n          bytes32 _stateId;\n          bool _isAlive;\n    }\n     \n    struct TransactionInfo\n    {\n         bytes32 _stateId;\n         Details _details;\n    }\n      \n    struct Details\n    {\n         uint _weight;\n         uint _quantity;\n         string _place;\n         string _date;\n         uint _amount;//..\n    }\n     \n    struct Telemetry{\n         bytes32 _id;//.. Every specific location\n         bytes32 _sensorId;//..For specific sensors\n         Temperature _temp;\n         Location _loc;\n         bool _isAlive;\n    }\n     \n    struct Temperature{\n         uint _avgTemp;//...\n    }\n     \n    struct Location{\n         bytes32 _id;\n         string _latitude;\n         string _longitude;\n         string _location;//...\n         bool _isAlive;\n    }\n     \n      \n      \n    bytes32[] public sensorIds;//..All sensor ids\n    bytes32[] public stateIds;//..All state ids\n    address private  owner;\n      \n      //mapped sensor id with its Struct\n    mapping (bytes32 => Sensor ) private sensors;//..All sensors\n     //map state id to trackstate\n    mapping (bytes32 => TrackState) private trackState;\n      //mapped every state with its state id\n    mapping (bytes32 => StateInfo) private stateInfo;//... Every transaction state\n      //mapped each telemetry details with its unique id\n    mapping (bytes32 => Telemetry) private telemetries;//...Each Telemetry state\n      //map sensor id with its telemetries\n    mapping (bytes32 => Telemetry[]) private sensorTelemetries;  \n      //mapped location with integer cordinate for now\n    mapping (bytes32 => Location) private locationCordinates;//...Map of cordinate with location\n    //each entity id with its state\n    mapping (bytes32 => TrackState) private entityState;\n       \n    //TODO Events\n       \n    function StateContract() public {\n           owner=msg.sender;\n           addSensor('SENSOR-1');\n           addSensor('SENSOR-2');\n    }\n      \n    function checkOwner() internal view {\n           require(owner == msg.sender);\n    }\n       //generates an unique id from the name given and add it to map and array of ids\n    function addSensor(string _name) public returns (bytes32){\n        //   checkOwner();\n           bytes32 _sensorId = createLocId(_name);\n           require(!sensors[_sensorId]._isAlive);\n           sensors[_sensorId] = Sensor(_name,_sensorId,0,false);\n           sensorIds.push(_sensorId);\n           return _sensorId;\n    }\n       \n    //returns unique id of mapped transaction state   \n    function attachSensor(bytes32 _sensorId,bytes32 _senderEntityId,bytes32 _buyerEntityId,\n         uint _weight,\n         uint _quantity,\n         string _place,\n         string _latitude,\n         string _longitude,\n         string _date,\n         uint _amount)\n    public \n    returns(bool) \n    {\n        //  checkOwner();\n        clearSensorIds(_sensorId);\n         bytes32 _stateId = createId(_senderEntityId,_buyerEntityId) ;\n         Details memory _details = Details(_weight,_quantity,_place,_date,_amount);\n         require(!stateInfo[_stateId]._isAlive);\n         TransactionInfo memory _transInfo = TransactionInfo(_stateId,_details);\n         stateInfo[_stateId] = StateInfo (_stateId,_sensorId,_transInfo,true);\n         stateIds.push(_stateId);\n         \n         trackState[_stateId] = TrackState(_stateId,_senderEntityId,_buyerEntityId,true);\n         entityState[_senderEntityId] = trackState[_stateId];\n         entityState[_buyerEntityId] = trackState[_stateId];\n         updateSensor(_sensorId,_latitude,_longitude,_place, 27);\n         updateSensorStateId(_sensorId,_stateId);\n         \n         return true;\n    }\n       // update sensor info and returns the unique telemetry id\n    function updateSensor(bytes32 _sensorId , string _latitude,string _longitude,string _location ,uint _temp) public returns(bool) {\n        //  checkOwner();//check\n         isSensorPresent(_sensorId);//check\n         bytes32 _id = createLocId(_location);\n         locationCordinates[_id] = Location(_id,_latitude,_longitude,_location,true);\n         bytes32 _telemetryId = createLocId(_location);\n         telemetries[_telemetryId] =  Telemetry (_telemetryId,_sensorId,Temperature(_temp),locationCordinates[_id],true);\n         sensorTelemetries[_sensorId].push(telemetries[_telemetryId]);\n         sensors[_sensorId]._isAlive = true;\n         return true;\n    }\n    \n    function updateSensorStateId(bytes32 _sensorId,bytes32 _stateId) internal returns(bool){\n         sensors[_sensorId]._stateId = _stateId;\n         return true;\n    }\n    \n    function getSensorByIndex(uint _index) public view returns(bytes32)  {\n        //   checkOwner();\n           require(_index >= 0 && sensorIds.length > 0);\n           return sensorIds[_index];\n    }\n    \n    function getSensorsCount() public view returns(uint)  {\n        //   checkOwner();\n           return sensorIds.length;\n    }\n       \n       \n    function isSensorPresent(bytes32 _sensorId) internal view returns(bool){\n            require(sensorIds.length > 0);\n            // require(sensors[_sensorId]._isAlive);\n            return true;\n    }\n    \n    function clearSensorIds(bytes32 _sensorId) internal view returns(bool){\n            delete sensorTelemetries[_sensorId];\n            return true;\n    }\n    \n       //get  sensor details excluding telemetries;\n    function getSensorDetails(bytes32 _sensorId) public view returns(string,bytes32,bool){\n        //   checkOwner();\n           isSensorPresent(_sensorId);\n           \n           return (sensors[_sensorId]._name,sensors[_sensorId]._stateId,sensors[_sensorId]._isAlive);\n    }\n    \n        //get by sensor details excluding telemetries;\n    function getSensorTelemetry(bytes32 _sensorId,uint _index) public view returns( bytes32 ,\n         uint ,\n         string,\n         string,string){\n        //   checkOwner();\n           isSensorPresent(_sensorId);\n           bytes32 _id = sensorTelemetries[_sensorId][_index]._id;\n           return (telemetries[_id]._id,telemetries[_id]._temp._avgTemp,telemetries[_id]._loc._latitude,telemetries[_id]._loc._longitude,telemetries[_id]._loc._location);\n    }\n    \n        //get by sensor details excluding telemetries;\n    function getSensorTelemetryCount(bytes32 _sensorId) public view returns(uint){\n        //   checkOwner();\n           isSensorPresent(_sensorId);\n           return (sensorTelemetries[_sensorId].length);\n    }\n       \n    //track state of the entity using stateId\n    function getTransactState(bytes32 _stateId) public constant returns(bytes32,bytes32,bool){\n      require(trackState[_stateId]._isAlive);\n      return (trackState[_stateId]._sender_entity_id,trackState[_stateId]._buyer_entity_id,trackState[_stateId]._isAlive);\n    }\n    \n     //track state id using entityId\n    function getEntityStateId(bytes32 _entityId) public constant returns(bytes32){\n      require(entityState[_entityId]._isAlive);\n      return (entityState[_entityId]._stateId);\n    }\n    \n    function getTransactionStateIdByIndex(uint _index) public view returns (bytes32) {\n        // checkOwner();\n        require(_index >= 0 && stateIds.length >0);\n        return stateIds[_index];\n    }\n    \n    //All transaction details of the state by unique  state id \n    function getTransactionInfo(bytes32 _stateId)\n    public \n    view\n    returns(bytes32,uint ,\n         uint ,\n         string ,\n         string ,\n         uint )\n   { \n    //   checkOwner();\n    //   require(stateInfo[_stateId]._isAlive);\n      TransactionInfo storage _transInfo = stateInfo[_stateId]._transInfo;\n      return (stateInfo[_stateId]._sensorId ,_transInfo._details._weight ,_transInfo._details._quantity,_transInfo._details._place,\n      _transInfo._details._date,_transInfo._details._amount);\n   } \n  \n    //All Telemetry info by its unique id;    \n    function getTelemetryInfo(bytes32 _id)\n    public \n    view\n    returns( bytes32 ,\n         uint ,\n         string,\n         string,string)\n    {\n      checkOwner();\n      require(telemetries[_id]._isAlive);\n      return (telemetries[_id]._sensorId,telemetries[_id]._temp._avgTemp,telemetries[_id]._loc._latitude,telemetries[_id]._loc._longitude,telemetries[_id]._loc._location);\n    } \n  \n  \n       //get location name by cordinates\n    function getLocation(bytes32 _id)\n    public \n    view\n    returns(string)\n    {\n    //   checkOwner();\n      require(locationCordinates[_id]._isAlive);\n      return locationCordinates[_id]._location;\n    }\n       /** Id generated of address\n     * @dev Creates a new blob. It is guaranteed that different users will never receive the same blobId, even before consensus has been reached. This prevents blobId sniping.\n     * @return blobId Id of the blob.\n     */\n    function create(address _address) internal pure returns (bytes32 blobId) \n    {\n        // Generate the blobId.\n        blobId = bytes32(keccak256(_address));\n    }\n       \n           /** Id generated of string\n     * @dev Creates a new blob. It is guaranteed that different users will never receive the same blobId, even before consensus has been reached. This prevents blobId sniping.\n     * @return blobId Id of the blob.\n     */\n    function createLocId(string _string) internal pure returns (bytes32 blobId)\n    {\n        // Generate the blobId.\n        blobId = bytes32(keccak256(_string));\n    }\n       \n         //generate specific id with entity id and name \n    function createId(bytes32 _id1,bytes32 _id2) internal pure returns (bytes32 blobId)\n    {\n        // Generate the blobId.\n        blobId = bytes32(keccak256(_id1,_id2));\n    }\n  \n    function deleteTelemetryInfo(bytes32 _id) public  returns (bool){\n    //   checkOwner();//check\n      require(telemetries[_id]._isAlive);\n      telemetries[_id]._isAlive =  false;\n      delete  telemetries[_id];\n      return true;\n    }\n  \n    function deleteTransactionState(bytes32 _id) public  returns (bool){\n    //   checkOwner();//check\n      require(stateInfo[_id]._isAlive);\n      stateInfo[_id]._isAlive =  false;\n      delete  stateInfo[_id];\n      return true;\n    }\n  \n  }",
  "sourcePath": "/home/synerzip/Desktop/Ethereum-nodejs/truffle/contracts/StateContract.sol",
  "compiler": {
    "name": "solc",
    "version": "0.4.24+commit.e67f0147.Emscripten.clang"
  },
  "schemaVersion": "2.0.1",
  "updatedAt": "2018-09-30T16:06:00.805Z"
}